:020000040800F2
:10000000100400200901000899090008950900085A
:1000100097090008150200088D0A0008000000007A
:100020000000000000000000000000001D0A0008A1
:1000300017020008000000009B0900081F0A0008C2
:100040002301000823010008230100082301000800
:1000500023010008230100082301000823010008F0
:1000600023010008230100082301000823010008E0
:1000700023010008230100082301000823010008D0
:1000800023010008230100082301000823010008C0
:1000900023010008230100082301000823010008B0
:1000A00023010008230100082301000823010008A0
:1000B0002301000823010008230100082301000890
:1000C0002301000823010008230100082301000880
:1000D0002301000823010008230100082301000870
:1000E0002301000823010008230100082301000860
:1000F00023010008DFF80CD000F07AF80048004730
:10010000CD0A000810040020064880470648004732
:10011000FEE7FEE7FEE7FEE7FEE7FEE7FEE7FEE7B7
:10012000FEE7FEE77D0A0008F50000082DE9F05F14
:100130000546002092469B46884606468146402456
:100140001BE0284641464746224600F041F8534608
:100150005A46C01A914110D311461846224600F063
:1001600028F82D1A67EB01084F462246012000218E
:1001700000F01FF817EB00094E41201EA4F1010406
:10018000DFDC484631462A464346BDE8F09FD2B2FE
:1001900001E000F8012B491EFBD270470022F6E770
:1001A00010B513460A4604461946FFF7F0FF2046ED
:1001B00010BD202A04DB203A00FA02F1002070472B
:1001C0009140C2F1200320FA03F319439040704795
:1001D000202A04DB203A21FA02F00021704721FA9C
:1001E00002F3D040C2F12002914008431946704703
:1001F000064C074D06E0E06840F0010394E8070074
:1002000098471034AC42F6D3FFF778FFF00A0008A5
:10021000100B0008FEE77047014880687047000037
:1002200000000020024881684268114481607047E4
:100230000000002010B50024032000F06BF800201F
:1002400000F008F808B1012401E000F025F820468C
:1002500010BD000070B50E4E05460024706898B1C0
:100260004FF47A71B1FBF0F00A490968B1FBF0F084
:1002700000F07CFB40B9102D06D200222946501E0A
:1002800000F028F8356000E00124204670BD000031
:10029000000000200C0000200D4808B5016841F066
:1002A00000410160016801F000410091011F0A68EE
:1002B00042F001020A60096801F001010091016841
:1002C00041F080510160006800F08050009008BD4E
:1002D00024380240F0B40E4B1B680C46C3F30223D3
:1002E000C3F10705042D00D90425191D072901D2E2
:1002F000002300E0DB1E012606FA05F1491E21401D
:1003000099409E40761E16403143F0BC00F0BFBBC2
:100310000CED00E0064900F0070208684FF6FF0305
:10032000184040EA0220034A10430860704700006A
:100330000CED00E00000FA052DE9F0470E4605003F
:1003400079D0DFF88481D8F8000000F00100B042D5
:1003500014D2012E05D1D8F8001041F00401C8F8DC
:100360000010D8F8001021F001013143C8F8001046
:10037000D8F8000000F00100B0425CD12878534C5E
:10038000800705D52068A96820F0F00008432060A8
:100390002878C0075CD04D496868083902281AD00F
:1003A00003281BD0096801281BD08905002966DABB
:1003B000216821F0030101432160FFF72DFF6968E7
:1003C000074641F28830022914D0032920D00129A0
:1003D00081462AD038E009688903E7E7096889017E
:1003E000E4E78907E2E700BFFFF716FFC11B4945B5
:1003F00001D926E081462068C0F381000228F3D1AC
:1004000026E000BFFFF708FFC11B494501D918E0EE
:1004100081462068C0F381000328F3D118E000BFB3
:10042000FFF7FAFEC11B49450BD82068C0F38100D5
:100430000128F5D10CE022E0FFF7EEFEC11B494593
:1004400002D90320BDE8F087206810F00C0FF3D12B
:10045000D8F80010404601F00101B14211D9012E37
:1004600003D1016841F004010160016821F001013C
:1004700031430160006800F00100B04201D001206A
:10048000E0E72878400705D52068E96820F4E060B7
:10049000084320602878000706D52068296920F4E1
:1004A000605040EAC100206000F018F82168084A56
:1004B000C1F30311515CC840064908600648006852
:1004C000BDE8F047FFF7C6BE003C024008380240D6
:1004D000DF0A00080C0000200000002070B5154D58
:1004E0002968154801F00C02042A0CD0134C082A84
:1004F0000AD00C2A0AD0281F0068C0F342314FF4FA
:100500000040491C884070BD204670BD0C4AC1F3B4
:100510008343D35CC1F381522968521CC90302D5BD
:10052000A3FB040101E0A3FB00010023FFF7FEFD94
:1005300070BD0000083802400024F40000366E014F
:10054000D60A00082DE9F84F04007DD0FC48016868
:10055000006801F00C0700F480362078F94DC007E0
:1005600041D0082F12D00C2F02D1B6F5803F0DD00C
:100570006068012811D008B1052818D0286820F437
:1005800080302860286820F4802009E028688003F3
:1005900029D560680028D8D025E0286840F480304C
:1005A0002860606890B1FFF737FE80460AE028684F
:1005B00040F480202860F0E7FFF72EFEA0EB080053
:1005C00064287BD828688003F6D50CE0FFF724FE6A
:1005D000804605E0FFF720FEA0EB08006428F0D875
:1005E00028688003F6D42078DFF85CB3DFF85C83FA
:1005F00080074FF001094FF0000A35D5042F0AD0CB
:100600000C2F00D13EB1E068F8B1C8F80090FFF7B8
:1006100003FE06460BE0286880070BD5E06801283A
:1006200012D107E0FFF7F8FD801B0228C9D828681F
:100630008007F7D5DBF80010226921F4F85141EA70
:100640000221CBF800100FE077E1C8F800A0FFF717
:10065000E3FD064605E000BFFFF7DEFD801B022834
:10066000AFD828688007F7D42078C00674D53FB18A
:10067000A069E0B3C8F82090FFF7CEFD06464AE037
:100680002868800502D5A069002884D0206ADBF89C
:1006900000105E4601F46041884210D900F07EF9F6
:1006A0000028BDD13068216A20F4604008433060E2
:1006B000217F306861F31F6030600FE096E03168A1
:1006C00021F4604101433160217F306861F31F6094
:1006D0003060206A00F062F90028A1D1216A4FF44D
:1006E000004009EB513188409549096800E025E058
:1006F000974AC1F30311515CC84096490860964877
:100700000068FFF7A7FD00286FD125E0FFF784FD03
:10071000801B02286AD828688005F7D5DBF800100E
:10072000226A21F460411143CBF80010227FDBF8EC
:10073000001062F31F61CBF800100DE0C8F820A094
:10074000FFF76AFD064604E0FFF766FD801B0228FE
:100750004CD828688005F7D42078804E000722D531
:100760007F48616981B1C0F80090FFF755FD83466D
:1007700006E000BFFFF750FDA0EB0B00022835D8C4
:1007800030688007F6D50EE0C0F800A0FFF744FD02
:10079000834605E0FFF740FDA0EB0B00022825D8BB
:1007A00030688007F6D4207840076DD56B484FF04D
:1007B000000B10380068C0000BD46848103801687E
:1007C00041F08051016000684FF0010B00F0805053
:1007D000009064480168C90514D4016841F480712F
:1007E0000160FFF719FD009008E08DE079E000BF9F
:1007F000FFF712FD0099401A642872D85948006822
:10080000C005F5D5A06801280AD008B1052811D087
:10081000306820F480703060306820F4806002E03E
:10082000306840F480703060A068A8B1FFF7F4FC35
:1008300000900DE0306840F480603060F0E700BF69
:10084000FFF7EAFC0099411A41F2883081425AD8F8
:1008500030688005F4D50EE0FFF7DEFC009007E07D
:10086000FFF7DAFC0099411A41F2883081424AD8F8
:1008700030688005F4D4BBF1000F05D0374810383C
:10088000016821F080510160606A58B30C2F41D09B
:100890000228504605D0C8F86000FFF7BDFC0446AA
:1008A00034E04746C8F86000FFF7B6FC064604E0AF
:1008B000FFF7B2FC801B022825D828688001F7D4F6
:1008C000D4E90A1001431E48226B036823F47D0318
:1008D0001A4311430160C7F86090FFF79DFC04467E
:1008E00007E010E040E000BFFFF796FC001B022885
:1008F00009D828688001F7D536E000BFFFF78CFCE7
:10090000001B022802D90320BDE8F88F2868800167
:10091000F4D429E00128F7D009480068A26A00F45D
:100920008031914209D1E26A00F47011914204D100
:10093000216B00F44000884216D00120E4E700005B
:1009400008380240003802400438024000004742A4
:10095000DF0A00080C0000200000002034380240AC
:1009600080064742007000400020CDE710B5401ED1
:10097000B0F1807F01D3012010BD4FF0E024606111
:100980000F21601700F083F80020A061072020618C
:10099000002010BDFEE7FEE77047704738B51C49E0
:1009A000002309681B4A11F0F00F23D118491C31AC
:1009B0000C68E500184C03D5216801F4C0540EE022
:1009C0000D6845F080550D600D6805F08055009567
:1009D00024680D6804F4C05425F080550D60B4F50A
:1009E000C05F07D1B0F5404F04D11068012340F03B
:1009F00004001060106820F00100184310601068B7
:100A000000F00100984201D0012038BD002038BD1F
:100A100008380240003C0240007000407047FFF779
:100A200001BC000010B592B034216846FFF7B6FB58
:100A300014210DA8FFF7B2FB0F48016821F4C05143
:100A400041F4006101601020009001200024CDE9F4
:100A500006044FF42040CDE908046846FFF772FD14
:100A60000F20CDE90D040F94109400210DA81194CE
:100A7000FFF762FC12B010BD0070004002494FF059
:100A8000006008607047000008ED00E0FEE709071D
:100A9000090E002804DB00F1E02080F80014704704
:100AA00000F00F0000F1E02080F8141D704702E014
:100AB00008C8121F08C1002AFAD1704770470020E9
:100AC00001E001C1121F002AFBD17047FFF7B2FB02
:100AD000FFF7A8FFFEE7030406080C1018203000FB
:100AE00000000000000000010203040607080900DE
:100AF000100B00080000002010000000AE0A0008E3
:100B0000200B00081000002000040000BE0A0008AE
:100B100010000000010000000000000068FF1F003E
:04000005080000F5FA
:00000001FF
