:020000040800F2
:1000000028090020090100082D250008CB2100083F
:1000100029250008FB080008BD4800080000000072
:100020000000000000000000000000008929000816
:10003000FF080008000000005D2700086543000875
:100040002301000823010008230100082301000800
:10005000230100082301000801090008230100080A
:1000600023010008230100082301000823010008E0
:1000700023010008230100082301000823010008D0
:1000800023010008230100082301000823010008C0
:1000900023010008230100082301000823010008B0
:1000A00023010008230100082301000823010008A0
:1000B0002301000823010008F94300082301000878
:1000C0002301000823010008230100082301000880
:1000D00023010008AD48000823010008230100089F
:1000E0000B0900082301000823010008314400081F
:1000F00023010008DFF80CD000F09CFB004800470B
:10010000394A000828090020064880470648004769
:10011000FEE7FEE7FEE7FEE7FEE7FEE7FEE7FEE7B7
:10012000FEE7FEE7E9430008F50000082DE9F05F6F
:100130000546002092469B46884606468146402456
:100140001BE0284641464746224600F080FA5346C7
:100150005A46C01A914110D311461846224600F063
:1001600067FA2D1A67EB01084F462246012000214D
:1001700000F05EFA17EB00094E41201EA4F10104C5
:10018000DFDC484631462A464346BDE8F09F000082
:100190000649074A0868504343F239021044086090
:1001A00040087047014908607047000014010020B2
:1001B0006D4EC64140EA01039B0703D009E008C920
:1001C000121F08C0042AFAD203E011F8013B00F81C
:1001D000013B521EF9D27047D2B201E000F8012B68
:1001E000491EFBD270470022F6E710B513460A46B7
:1001F00004461946FFF7F0FF204610BD421C10F8D8
:10020000011B0029FBD1801A704710B5002200E0C5
:10021000521C835C8C5CA34201D1002BF8D1D8B274
:10022000E1B2401A10BD30B505460020034600E09B
:100230005B1C934205D2EC5CC85C201A01D1002CF7
:10024000F6D130BD2DE9FE4F804681EA0300C00F94
:100250000C46009021F0004123F00045B8EB02006D
:10026000A94105D24046214690461C460B4602460F
:1002700023F00040104347D0270DC7F30A00C3F313
:100280000A510290401A019040286BDAC3F3130020
:1002900040F4801B0098924620B10023D2EB030A61
:1002A00063EB0B0B01985946C0F14002504600F039
:1002B000BFF906460D4650465946019A00F0D7F957
:1002C00010EB08006141002487EA115284EAE773C9
:1002D0001A4340D0009A62B3019A012A4FEA0752AA
:1002E00015DC001B61EB02014FF0004202EA0752ED
:1002F000CDE90042001C41F5801132462B4600F04A
:10030000D7F903B0BDE8F08F40462146F9E7001B5E
:1003100061EB0201001C41F5801300185B412018BD
:10032000A2F5001747EB030140EAD570B6196D41FD
:1003300011E06D084FEA360645EAC0754FEA0752EC
:10034000001B61EB0201001C41F5801149084FEAD6
:1003500030000019514132462B4603B0BDE8F04F42
:1003600000F097B90098012240000023D0EB020270
:1003700063EBE073009821464FEAE074B8EB0000AD
:1003800061EB0401E9E783F000435BE781F00041A2
:1003900058E72DE9FE4F81EA030404F0004421F000
:1003A000004100944FF0000B23F0004350EA010499
:1003B0005ED052EA03045BD0C3F30A54C1F30A557A
:1003C0002C44A4F2F3340194A0FB0254C1F31301B2
:1003D00041F48011C3F3130343F4801301FB02447F
:1003E00000FB034E840A970A44EA815447EA835784
:1003F000A4FB076802958D0A05FB07854FEA932C3D
:1004000004FB0C542705029D4FEA065847EA1637AD
:10041000B5EB08056EEB070C870E920E47EA8117C5
:1004200042EA8312A7FB0201B6EB0B0164EB000466
:100430002B0D43EA0C335E1844EB1C50DA46514650
:10044000E7FB0201C5F313044FEA0B3343EA1453ED
:100450004FEA0432019C43EA0603A4F10C0402941F
:10046000009CCDE900B400F023F903B0BDE8F08FA3
:1004700000200146F9E72DE9F04D81EA030404F07C
:10048000004B21F0004514464FF0000A23F00041D4
:1004900050EA050220D054EA01021DD0C5F30A57E4
:1004A0000246C5F31303C1F31300C1F30A5640F427
:1004B000801543F48013A7EB0608101BD64608F2FC
:1004C000FD3873EB050002D308F1010801E0921832
:1004D0005B41B8F1000F03DA00200146BDE8F08D62
:1004E00000204FF48011064684460EE0171B73EB84
:1004F000050705D3121B63EB050306434CEA010C09
:1005000049084FEA300092185B4150EA0107EDD1EB
:1005100052EA030012D082EA040083EA050108438C
:1005200005D0101BAB4106D20122002306E00022B9
:100530004FF0004302E06FF0010253101AEB060087
:100540004CEB085110EB0A0041EB0B01BDE8F04DFC
:1005500000F09FB80EB5C10F80EAE0700844CA07EA
:10056000002140F233438DE80E000A460B4600F0AE
:100570009FF803B000BD0EB540F233410291002157
:10058000CDE900110A460B4600F092F803B000BD19
:1005900070B5C1F30A5201F000450024C1F3130104
:1005A00040F2FF3341F480119A4201DA002070BD1D
:1005B00040F233439A42A2F2334203DC524200F04B
:1005C00046F800E090402C43F1D0404270BDC1F3AA
:1005D0000A5210B5C1F3130140F2FF3341F4801108
:1005E0009A4201DA002010BD40F233439A42A2F24F
:1005F000334203DC524200F02AF810BD904010BD97
:1006000030B5041E71F1000404DB4FF00044404299
:1006100064EB0101141E73F1000405DB1C464FF06E
:100620000043524263EB04038B4208BF824230BD59
:10063000202A04DB203A00FA02F1002070479140A2
:10064000C2F1200320FA03F3194390407047202A97
:1006500004DB203A21FA02F00021704721FA02F36C
:10066000D040C2F120029140084319467047202A29
:1006700006DBCB17203A41FA02F043EAE07306E0CA
:1006800041FA02F3D040C2F12002914008431946DA
:10069000704710B5141E73F1000408DA401C41F1D4
:1006A000000192185B411A4301D120F0010010BDF6
:1006B0002DE9F04D92469B4611B1B1FA81F202E06C
:1006C000B0FA80F220329046FFF7B2FF04460F46A0
:1006D00040EA0A0041EA0B0153465A46084313D048
:1006E000114653EA010019D0C8F140025046FFF705
:1006F000AEFF05460E46504659464246FFF798FF64
:10070000084305D0012004E020463946BDE8F08DBD
:100710000020054346EAE0762C4337430A986305F8
:10072000E40AA0EB08000022FD0A44EA47540A301C
:1007300002D500200146E9E7010510196941DDE90C
:10074000084500196941BDE8F04DA2E770B521F0F8
:10075000004303430CD0C1F30A550024D5EB040534
:1007600064EB0403D617AD1AB34102DB0020014647
:1007700070BD201841EB025170BD00002DE9F04121
:10078000054621F000400C46284309D0C4F30A5026
:1007900040F23341884205DD28462146BDE8F0811C
:1007A0002846FBE740F2FE31884210DC0CDB4FEAC2
:1007B000043040EA155050EA053105D0104804F0E5
:1007C000004101430020E9E700200146E6E7A0F2EE
:1007D00033404642C6F1400228462146FFF728FF33
:1007E00007468846284621463246FFF730FF4346F3
:1007F0003A46FFF74EFF3246BDE8F041FFF718BF1B
:100800000000F03F30B5041E71F1000404DB4FF02E
:100810000044404264EB0101141E73F1000405DB47
:100820001C464FF00043524263EB0403994208BF59
:10083000904230BD064C074D06E0E06840F00103F1
:1008400094E8070098471034AC42F6D3FFF756FC03
:1008500028570008485700082DE9F04D00231A4694
:100860001B1A8A4103DB00200146BDE8F08DC1F36D
:100870000A52C1F3130141F480154FF0000BD10768
:1008800002D100186D41521E0027044640F2FF11AC
:10089000384601EB620A3E468046024600204FF48D
:1008A0008011FFF7D4FEC2197141BB1846EB01005D
:1008B000B4EB030C75EB000C04D3E41A65EB0005F4
:1008C00017460E46241908F101006D418046342870
:1008D000E3DDF91946EB0600091BA84103D24FF0EE
:1008E000FF32134601E0002213461BEB070046EBE4
:1008F0000A51BDE8F04DFFF7CCBE00BFFEE77047E0
:1009000010B5012000F038F810BD10B54FF480503C
:1009100000F032F810BD704770B50446002594F819
:100920002100022803D00420A063012520E02068D4
:10093000006820F00E00216808602068006820F040
:1009400001002168086094F8400000F01C010120BB
:100950008840E16B4860012084F8210000BF00203E
:1009600084F8200000BF606B10B12046616B88479F
:10097000284670BD7047000010B504460448006862
:10098000204020B1024804602046FFF7F3FF10BD6D
:100990001404014078B50346002200240020CAE078
:1009A000012696400D6805EA0604002C71D04D68BA
:1009B000012D08D04D68022D05D04D68112D02D0B3
:1009C0004D68122D13D1986856000325B540A843F1
:1009D0005600CD68B5402843986058680125954079
:1009E000A8430D79C5F30015954028435860D86891
:1009F00056000325B540A84356008D68B5402843EE
:100A0000D8604D68022D02D04D68122D13D1D60842
:100A100003F1200555F826005507EE0E0F25B540C9
:100A2000A8435607F60E0D69B5402843D60803F1D2
:100A3000200545F82600186856000325B540A84350
:100A40000D7905F003055600B540284318604D6840
:100A500005F08055B5F1805F6CD100BF394D2D6830
:100A600045F00105374E356035462D6805F0010526
:100A7000009500BF00BF344D960855F82600950735
:100A80002E0F0F25B540A843304DAB4202D10025B3
:100A900015E04FE02E4DAB4201D101250FE02D4D69
:100AA000AB4201D102250AE02B4DAB4201D1032517
:100AB00005E02A4DAB4201D1042500E0052596074B
:100AC000360FB5402843204D960845F82600244DA2
:100AD0002868A0434D6805F48035B5F5803F00D106
:100AE00020431F4D28602D1D2868A0434D6805F444
:100AF0000035B5F5003F00D12043194D2D1D28606C
:100B00002D1D2868A0434D6805F48015B5F5801F9C
:100B100000D12043124D083528602D1D2868A043C0
:100B20004D6805F40015B5F5001F00D120430C4DAC
:100B30000C352860521C0D68D540002D7FF430AF75
:100B400078BD00002038024008000140000002404B
:100B50000004024000080240000C02400010024065
:100B600000040140024613690B400BB1012000E074
:100B70000020704710B5426921EA020302EA01042D
:100B800043EA0443836110BD0AB1816101E00B04B3
:100B9000836170470148006870470000040100202D
:100BA0000348006803490968084401490860704720
:100BB000040100200C01002010B50024032000F0E7
:100BC000B3F8002000F008F808B1012401E000F0BB
:100BD0002FF8204610BD000070B5044600251148CE
:100BE0000068D8B10F4800684FF47A71B1FBF0F09B
:100BF0000D490968B1FBF0F6304600F0C4FE58B963
:100C0000102C07D200222146501E00F04FF8074852
:100C1000046004E0012502E0012500E001252846EA
:100C200070BD00000C010020100100200801002010
:100C300008B500BF1448006840F000401249086041
:100C40000846006800F00040009000BF00BF00BFF1
:100C5000081F006840F00100091F0860084600688E
:100C600000F00100009000BF00BF00BF081D006839
:100C700040F08050091D08600846006800F0805070
:100C8000009000BF00BF08BD24380240014608465E
:100C9000002809DB00F01F0301229A4043099B0052
:100CA00003F1E023C3F8002100BF70472DE9F05F96
:100CB00080460D461646002703F016FE07463946C5
:100CC0002A46334601F00700C0F1070ABAF1040FC3
:100CD00002D94FF0040A01E0C0F1070AD14600F141
:100CE000040ABAF1070F02D24FF0000A01E0A0F1A6
:100CF000030AD4464FF0010A0AFA09FAAAF1010AD6
:100D00000AEA020A0AFA0CFA4FF0010B0BFA0CFB82
:100D1000ABF1010B0BEA030B4AEA0B0421464046F8
:100D200003F0EAFDBDE8F09F00BF00F00702064BAC
:100D300019684FF6FF031940044B0B4343EA0221A5
:100D4000014B196000BF70470CED00E00000FA0590
:100D50002DE9F04104460D4614B90120BDE8F081AB
:100D60007E48006800F00100A84218D200BF012DA3
:100D700005D17A48006840F0040078490860774857
:100D8000006820F0010028437449086000BF08464D
:100D9000006800F00100A84201D00120DEE72078C1
:100DA00000F00200022807D16D48006820F0F00032
:100DB000A16808436A490860207800F00100002813
:100DC0007FD06068022807D165480838006800F4C1
:100DD0000030F8B90120C1E76068032807D16048F6
:100DE0000838006800F00070A0B90120B6E760681C
:100DF000012807D15A480838006800F0020048B9B5
:100E00000120ABE756480838006800F4007008B9C4
:100E10000120A3E75248006820F0030061680843FE
:100E20004F490860FFF7B6FE06466068022810D1F9
:100E300008E0FFF7AFFE801B41F28831884201D9FC
:100E400003208BE74648006800F00C000828F0D12A
:100E500037E06068032810D108E0FFF79BFE801B95
:100E600041F28831884201D9032077E73C48006885
:100E700000F00C000C28F0D123E06068012810D1AC
:100E800008E0FFF787FE801B41F28831884201D9D4
:100E9000032063E73248006800F00C000428F0D11A
:100EA0000FE008E0FFF776FE801B41F288318842B0
:100EB00001D9032052E72A48006800F00C000028FE
:100EC000F0D12648006800F00100A84218D900BF00
:100ED000012D05D12148006840F004001F49086039
:100EE0001E48006820F0010028431C49086000BF2C
:100EF0000846006800F00100A84201D001202DE75B
:100F0000207800F00400042807D11548006820F478
:100F1000E060E168084312490860207800F00800AA
:100F2000082808D10E48006820F46050216940EA82
:100F3000C1000B49086000F041F809490968C1F394
:100F40000311084A515CC840074908600748006817
:100F5000FFF742FE0746384600E70000003C02402B
:100F6000083802407B5600081001002008010020CC
:100F700001480068704700001001002000B5FFF72D
:100F8000F7FF04490968C1F30221034A515CC840D4
:100F900000BD0000083802408B56000800B5FFF77E
:100FA000E7FF04490968C1F3C221034A515CC84004
:100FB00000BD0000083802408B5600082DE9F05FA4
:100FC0002248D0F8009009F00C0070B3042804D037
:100FD000082804D00C2829D103E01D4D32E01D4D16
:100FE00030E01D48C9F3834110F801A0C9F38150D6
:100FF000441C1648006800F4803050B11548A0FB2E
:101000000A700146224600233846FFF78FF806464D
:1010100009E00F48A0FB0A7001462246002338462B
:10102000FFF784F8064635460CE000E000BF0748AD
:10103000001F0068C0F3423B0BF101000121814019
:10104000CD0300BF00BF2846BDE8F09F083802402E
:101050000024F40000127A00725600082DE9F843CB
:10106000044614B90120BDE8F883FE48006800F08A
:101070000C06FC48006800F48037207800F001007E
:10108000002875D0082E04D00C2E0ED1B7F5803F65
:101090000BD1F4480838006800F40030002867D00D
:1010A0006068002864D10120DDE700BF6068012886
:1010B00008D1EC480838006840F48030E949083924
:1010C00008602DE0606868B9E6480838006820F4D8
:1010D0008030E449083908600846006820F4802020
:1010E00008601DE0606805280DD1DE4808380068FA
:1010F00040F48020DB49083908600846006840F465
:10110000803008600CE0D7480838006820F4803050
:10111000D449083908600846006820F48020086037
:1011200000BF606890B1FFF735FD054606E0FFF7A8
:1011300031FD401B642801D9032094E7C9480838D1
:10114000006800F400300028F1D011E0FFF722FD24
:10115000054606E0FFF71EFD401B642801D9032069
:1011600081E7C0480838006800F400300028F1D159
:10117000207800F00200022853D1042E02D00C2E59
:1011800017D1B7B9B7480838006800F0020020B19D
:10119000E068012801D0012065E7B248001F00681F
:1011A00020F4F850216940EA0120AE49091F086087
:1011B00037E0E06800B30120AB490860FFF7EAFCC4
:1011C000054606E0FFF7E6FC401B022801D9032094
:1011D00049E7A4480838006800F002000028F1D070
:1011E000A048001F006820F4F850216940EA01205F
:1011F0009C49091F086014E000209B490860FFF724
:10120000C9FC054606E0FFF7C5FC401B022801D9D2
:10121000032028E793480838006800F002000028FF
:10122000F1D1207800F01000102871D1F6BB8D4864
:101230000838006800F4007018B1A06908B90120EE
:1012400011E78849091F206A096801F46041884252
:1012500019D9206A01F084FA08B1012003E7814816
:10126000001F006820F46040216A08437D49091F7F
:101270000860217F7B48001F006861F31F60794987
:10128000091F08601AE07748001F006820F46040DA
:10129000216A08437349091F0860217F7148001FB4
:1012A000006861F31F606F49091F00E020E00860DB
:1012B000206A01F055FA08B10120D4E60121206A24
:1012C00001EB503101208840C00366490968C1F331
:1012D0000311664A515CC84065490860654800686A
:1012E000FFF77AFC8046B8F1000F42D04046BAE6DC
:1012F000A06948B301205C490862FFF74BFC054632
:1013000007E0FFF747FC401B022802D90320AAE6AA
:101310002FE054480838006800F400700028F0D02E
:101320005048001F006820F46040216A08434D497E
:10133000091F0860217F4B48001F006861F31F6090
:101340004849091F086014E0002047490862FFF778
:1013500021FC054606E0FFF71DFC401B022801D9D1
:10136000032080E63F480838006800F40070002839
:10137000F1D1207800F0080008282CD16069A8B1CC
:1013800001203D490860FFF705FC054606E0FFF730
:1013900001FC401B022801D9032064E631482C30AF
:1013A000006800F002000028F1D014E0002032496B
:1013B0000860FFF7EFFB054606E0FFF7EBFB401B7D
:1013C000022801D903204EE626482C30006800F0A0
:1013D00002000028F1D1207800F0040004286ED12A
:1013E0004FF000091F481C30006800F0805088B999
:1013F00000BF1C481C30006840F0805019491C3167
:1014000008600846006800F08050009000BF00BFF0
:101410004FF001091948006800F48070B0B917480E
:10142000006840F4807015490860FFF7B3FB05467B
:1014300006E0FFF7AFFB401B642801D9032012E64A
:101440000E48006800F480700028F2D000BFA06849
:10145000012817D103482C30006840F480700149FE
:101460002C310DE008380240000047427B5600084E
:101470001001002008010020800647420070004053
:10148000086028E0A06858B96648006820F48070B9
:10149000644908600846006820F4806008601AE02B
:1014A000A06805280CD15F48006840F480605D4961
:1014B00008600846006840F4807008600BE040E077
:1014C0005848006820F48070564908600846006853
:1014D00020F48060086000BFA06898B1FFF75AFB55
:1014E000054608E0FFF756FB401B41F28831884271
:1014F00001D90320B7E54B48006800F400700028CC
:10150000F0D012E0FFF746FB054608E0FFF742FB8C
:10151000401B41F28831884201D90320A3E54148AC
:10152000006800F400700028F0D1B9F1010F07D174
:101530003C481038006820F080503A491039086063
:1015400000BF606AA8B30C2E52D0606A022839D15D
:10155000002035490866FFF71DFB054606E0FFF74A
:1015600019FB401B022801D903207CE52D483438A3
:10157000006800F000700028F1D1D4E90A010843A6
:10158000216B084327492C39096821F47D01084360
:1015900024492C390860012023490866FFF7FAFA2C
:1015A000054607E0FFF7F6FA401B022802D90320A0
:1015B00059E535E01B483438006800F00070002819
:1015C000F0D02DE0002018490866FFF7E3FA054641
:1015D00006E0FFF7DFFA401B022801D9032042E5AD
:1015E00010483438006800F000700028F1D117E08E
:1015F000606A012800D136E50A482C38076807F4EC
:101600008031A06A814209D107F47011E06A8142F9
:1016100004D107F44001206B814201D0012022E572
:10162000002020E5343802400000474210B504464F
:101630000CB9012010BD606A38B96068B0F5827FCE
:1016400000D105E00021E16102E00021216161613A
:101650000021A16294F8510028B9002084F85000BC
:10166000204600F03DF8022084F851002068006810
:1016700020F0400021680860A08800F48270218971
:1016800001F404410843A18901F400610843217C6D
:1016900001F002010843217D01F001010843218B83
:1016A00001F400710843217F01F038010843202133
:1016B000095D01F080010843218D01F400510843C8
:1016C000216808600421A06901EA1040216848608F
:1016D00000206065012084F851000020AAE7000086
:1016E00010B586B00446142101A8FEF77CFD184908
:1016F0002068884229D100BF1648006840F4805015
:10170000144908600846006800F48050009000BF4B
:1017100000BF00BF081F006840F00100091F0860FB
:101720000846006800F00100009000BF00BFE02004
:1017300001900220029000200390032004900520D5
:10174000059001A90448FFF725F906B010BD000077
:101750000030014020380240000002402DE9FF5FC8
:101760000446884691461D460E9E012002900020A8
:10177000019000BF94F85000012803D1022004B06A
:10178000BDE8F09F012084F8500000BFFFF702FA87
:10179000074694F851B060680390AA46BBF1010F68
:1017A0000BD00398B0F5827F04D1A06810B9BBF1CB
:1017B000040F02D002200190DBE0B8F1000F03D04B
:1017C000B9F1000F00D015B901200190D1E094F8D3
:1017D0005100042802D0052084F8510000206065E3
:1017E000C4F83890E587A587C4F83080E586A586DB
:1017F000206460642068006800F04000402805D044
:101800002068006840F0400021680860E068B0F59A
:10181000006F4AD1606810B1BAF1010F09D1206B95
:1018200000882168C860206B801C2063E08E401E09
:10183000E08633E02068806800F00200022810D1C2
:10184000E08E70B1029801280BD1206B00882168CE
:10185000C860206B801C2063E08E401EE086002064
:1018600002902068806800F0010068B1E08F58B1F4
:101870002068C068A16B0880A06B801CA063E08F0B
:10188000401EE08701200290FFF784F9C01BB042A0
:1018900004D3701C10B1032001906AE0E08E002890
:1018A000C8D1E08F0028C5D14AE0606810B1BAF114
:1018B000010F09D1206B007821680873206B401C50
:1018C0002063E08E401EE08634E02068806800F0EF
:1018D0000200022810D1E08E70B1029801280BD1CD
:1018E000206B007821680873206B401C2063E08E19
:1018F000401EE086002002902068806800F0010011
:1019000068B1E08F58B12068C068A16B0870A06B07
:10191000401CA063E08F401EE08701200290FFF78B
:1019200039F9C01BB04201D3701C00B916B90320AD
:1019300001901EE0E08E0028C7D1E08F0028C4D1BE
:101940003A463146204600F07DFF20B1012001904B
:10195000202060650DE0A06850B900BF0020009015
:101960002068C068009020688068009000BF00BFB9
:1019700000BF012084F8510000BF002084F850000F
:1019800000BF0198FBE670B504462546681EB0F11D
:10199000807F01D301200FE0681E4FF0E0214861F5
:1019A0000F214FF0FF3002F0A7FF00204FF0E021A1
:1019B000886107200861002070BD000030B5024634
:1019C0000B4600BF92F83800012801D1022030BD3B
:1019D000012082F8380000BF022082F83900106828
:1019E00044681068816824F0700418680443106823
:1019F00044601068B0F1804F0BD00E4D1068A842C3
:101A000007D00D4D1068A84203D00C4D1068A842B5
:101A100005D121F0800158680143106881600120E0
:101A200082F8390000BF002082F8380000BF00BFF4
:101A3000CDE700000004004000080040000801401D
:101A400010B504460CB9012010BD94F8390028B92E
:101A5000002084F83800204600F01AF8022084F8AC
:101A60003900211D206802F0EBFC012084F83E00C3
:101A700000BF84F83A0001213B2001553C2001556C
:101A80003D20015500BF012084F839000020DBE72C
:101A900038B504462349206888420DD100BF22484A
:101AA000006840F00200204908600846006800F025
:101AB0000200009000BF34E01C492068884216D123
:101AC00000BF1948006840F0040017490860084644
:101AD000006800F00400009000BF00BF0022114623
:101AE0001E20FFF7E3F81E20FFF7D0F819E0104999
:101AF0002068884215D100BF0B48006840F01000F4
:101B0000094908600846006800F01000009000BF16
:101B100000BF002211462B20FFF7C8F82B20FFF74B
:101B2000B5F838BD000400402438024000080040E9
:101B300000100040014691F83900012801D0012031
:101B40007047022081F839000868C06840F0010041
:101B50000B68D8600868B0F1804F0BD0104B086854
:101B6000984207D00F4B0868984203D00E4B086884
:101B700098420CD10868806800F00702062A0CD051
:101B80000868006840F001000B68186005E008680C
:101B9000006840F001000B6818600020D0E70000EA
:101BA0000004004000080040000801402DE9F04119
:101BB00004460D4600BF94F83800012802D10220E7
:101BC000BDE8F081012084F8380000BF022084F8CD
:101BD00039002068866826F0770626F47F4620685C
:101BE00086602868502833D00CDC202850D004DCD4
:101BF00000284BD0102851D149E0302849D0402846
:101C00004CD139E060282DD0702807D0B0F5805F26
:101C100003D0B0F5005F41D10DE040E0D5E90213FB
:101C20006A68206802F048FC2068866846F07706FB
:101C30002068866033E0D5E902136A68206802F004
:101C40003BFC2068806840F480402168886026E082
:101C5000EA686968206802F043FC5021206802F0BD
:101C600036FC1CE0EA686968206802F04CFC6021E0
:101C7000206802F02CFC12E0EA686968206802F033
:101C80002FFC4021206802F022FC08E000BF00BFCA
:101C900000BF2968206802F01AFC00E000BF00BF06
:101CA000012084F8390000BF002084F8380000BF0C
:101CB00000BF85E7704710B5044620680069C0F38F
:101CC0004000D8B12068C068C0F34000B0B16FF0E8
:101CD000020021680861012020762068806900F0F8
:101CE000030018B12046FFF7E5FF05E0204600F0AD
:101CF0008BF8204600F089F80020207620680069E3
:101D0000C0F38000D8B12068C068C0F38000B0B1D3
:101D10006FF0040021680861022020762068806945
:101D200000F4407018B12046FFF7C4FF05E02046DC
:101D300000F06AF8204600F068F80020207620685D
:101D40000069C0F3C000D8B12068C068C0F3C0000B
:101D5000B0B16FF008002168086104202076206887
:101D6000C06900F0030018B12046FFF7A3FF05E0AB
:101D7000204600F049F8204600F047F80020207681
:101D800020680069C0F30010D8B12068C068C0F3B3
:101D90000010B0B16FF010002168086108202076B3
:101DA0002068C06900F4407018B12046FFF782FF38
:101DB00005E0204600F028F8204600F026F8002034
:101DC00020762068006900F0010058B12068C068E2
:101DD00000F0010030B16FF0010021680861204679
:101DE00000F014F820680069C0F3801058B1206832
:101DF000C068C0F3801030B16FF040002168086106
:101E0000204600F004F810BD7047704770477047D7
:101E1000704700002DE9F0470446206805682068F7
:101E2000C668206847694FF00008C14605F00F08F2
:101E3000B8F1000F0AD105F0200038B106F02000FB
:101E400020B1204602F09DFBBDE8F087B8F1000FFD
:101E500072D007F0010018B906F4907000286BD01A
:101E600005F0010030B106F4807018B1E06B40F06D
:101E70000100E06305F0040030B107F0010018B183
:101E8000E06B40F00200E06305F0020030B107F0C3
:101E9000010018B1E06B40F00400E06305F00800B9
:101EA00048B106F0200010B907F0010018B1E06B4E
:101EB00040F00800E063E06B70B305F0200028B14B
:101EC00006F0200010B1204602F05BFB206840695C
:101ED000C0F38019E06B00F0080010B9B9F1000FF1
:101EE00023D0204602F02DFB2068406900F040001E
:101EF000402816D12068406920F0400021684861E0
:101F0000606B50B11748616B4863606BFEF704FD6E
:101F100010B1606B416B88470CE02046FFF778FFFB
:101F200008E02046FFF774FF04E02046FFF770FF4B
:101F30000020E06388E7FFE705F0800030B106F09D
:101F4000800018B1204602F047FC7DE705F0400014
:101F500030B106F0400018B1204602F002FB73E7F2
:101F600000BF71E72F45000810B504460CB90120E9
:101F700010BDA06900B100E000BF94F8390028B995
:101F8000002084F83800204600F028F8242084F847
:101F900039002068C06820F400502168C8602046DD
:101FA00002F042FB2068006920F49040216808613B
:101FB0002068406920F02A00216848612068C068D4
:101FC00040F400502168C8600020E063202084F8BD
:101FD000390084F83A000020CAE7000010B586B046
:101FE0000446142101A8FEF7FEF81C492068884227
:101FF00032D100BF1A48006840F480401849086098
:102000000846006800F48040009000BF00BF00BF99
:10201000081F006840F00100091F086008460068BA
:1020200000F00100009000BF00BF4FF4C0600190BD
:1020300002200290002003900320049007200590C6
:1020400001A90848FEF7A6FC002211462520FEF74C
:102050002DFE2520FEF71AFE06B010BD0038014007
:10206000203802400000024010B5034693F83A00C1
:1020700020282FD101B10AB9012010BD00BF93F86B
:102080003800012801D10220F7E7012083F8380049
:1020900000BF99629A85DA850020D863222083F8F0
:1020A0003A0000BF002083F8380000BF1868C068FD
:1020B00040F480701C68E0601868406940F00100DE
:1020C0001C6860611868C06840F020001C68E0600F
:1020D0000020D2E70220D0E70349884202D1012143
:1020E000024A117070470000D0040020E700002071
:1020F0002DE9F84304460D4616461F464FF00009E9
:1021000094F8390020285DD105B116B90120BDE849
:10211000F88300BF94F83800012801D10220F6E7C7
:10212000012084F8380000BF0020E063212084F8FB
:102130003900FEF72FFD8146A684E68400BF00200B
:1021400084F8380000BF2BE0E08C401EE084A068DB
:10215000B0F5805F16D14B460022802120460097C3
:1021600002F06EFB08B10320D1E7A846B8F80000E2
:10217000C0F3080021684860206908B9AD1C0FE071
:102180006D1C0DE04B46002280212046009702F096
:1021900057FB08B10320BAE715F8010B2168486026
:1021A000E08C0028D0D14B460022402120460097E9
:1021B00002F046FB08B10320A9E7202084F839008B
:1021C0000020A4E70220A2E7704700BFFEE700005E
:1021D00000B587B0142102A8FEF705F800BF6648D5
:1021E000006840F02000644908600846006800F07C
:1021F0002000019000BF00BF00BF0846006840F00B
:10220000010008600846006800F00100019000BF6E
:1022100000BF00BF0846006840F0020008600846A2
:10222000006800F00200019000BF00BF002248F6E5
:1022300012015248FEF7A8FC012202215048FEF785
:10224000A3FC00224FF401414D48FEF79DFC012202
:1022500011024A48FEF798FC48F202000290012061
:102260000390002004900320059002A94348FEF744
:1022700091FB0C20029000200390049002A93F489B
:10228000FEF788FB102002900120039000200490AC
:10229000059002A93948FEF77DFB012002903948DC
:1022A00003900020049002A93548FEF773FB02203A
:1022B00002900120039004900220059002A930486A
:1022C000FEF768FB4FF400400290012003900020CD
:1022D0000490059002A92A48FEF75CFB4FF4807039
:1022E00002900120039004900220059002A9234847
:1022F000FEF750FB4FF40060029001200390022093
:1023000004900320059002A91C48FEF743FB4FF4FC
:10231000805002901B4803900020049002A91748A7
:10232000FEF738FB4FF40E700290002003900490EB
:1023300002A91348FEF72EFB4FF480700290012093
:102340000390002004900320059002A90C48FEF79A
:1023500021FB002211460620FEF7A8FC0620FEF70E
:1023600095FC002211462820FEF7A0FC2820FEF74D
:102370008DFC07B000BD00001C3802400000024088
:10238000000402400000111010B50E480E4908600C
:102390004FF48270486000210B488160C160016188
:1023A00041614FF4007181610821C1610021016226
:1023B000416281620A21C162FFF738F908B1FEF774
:1023C000AAFA10BD00300140B803002000B587B064
:1023D000002003900490059006900190029014480C
:1023E00014490860032048600021124881600521DB
:1023F000C160002101614161FFF722FB08B1FEF7D6
:102400008AFA4FF48050039003A90A48FFF7CEFBE5
:1024100008B1FEF780FA00200190029001A905485A
:10242000FFF7CCFA08B1FEF776FA07B000BD00005E
:10243000000400401004002000B587B00020039085
:102440000490059006900190029014481449086089
:102450000120486000211248816040F2E731C160EC
:10246000002101614161FFF7EBFA08B1FEF753FA71
:102470004FF48050039003A90948FFF797FB08B178
:10248000FEF749FA00200190029001A90448FFF7E5
:1024900095FA08B1FEF73FFA07B000BD000800400A
:1024A000500400201CB50020009001900E480F49F8
:1024B00008601720486000210C48816040F2E73135
:1024C000C16000214161FFF7BBFA08B1FEF723FAB2
:1024D00000200090019069460448FFF76FFA08B1A8
:1024E000FEF719FA1CBD0000001000409004002007
:1024F00010B50B480B4908604FF416504860002196
:1025000008488160C16001610C2141610021816145
:10251000C161FFF729FD08B1FEF7FDF910BD00000C
:1025200000380140D004002000BFFEE770470000E3
:102530001CB54AE02548006825490968401AC828A2
:102540003FD3224800682249086003F00FF81F4873
:1025500000681F490968401AB0F5FA7F01D30120CD
:1025600000E000200446012400201A4908700722D8
:1025700019491A48FFF778FD9CB91748007830B11F
:1025800017480068062102691348904706E014487E
:102590000068062102691048401C904702F0DCFFE9
:1025A0000AE010A103C9CDE900010D480068062129
:1025B00002696846904700BF07480021016081809A
:1025C00081710749096848698047B3E7FC0000202A
:1025D000B4000020E7000020DE000020D00400202E
:1025E000AC0000205F6E6F706500000070B552E0B7
:1025F000504800685049C2685048904750494F4879
:10260000FDF703FE80B902F0A7FF4C4880784FF435
:102610007A7148434B4908604B4800684FF47A711F
:1026200048434A49086014E049480068FDF7BAFD8C
:10263000FDF7AEFD052190FBF1F201FB120000EB6E
:102640004001C1EBC0103F49096801EBC0003F49A0
:1026500008603C4800683D490968401A41F28831E9
:10266000884218D339480068364908603520334914
:10267000087030204870392088703720C8703920A1
:102680000871FE2048712B480068062102692B481A
:10269000904702F061FF274909684869804702288E
:1026A000A6D02449096848698047022802D0042836
:1026B0003CD136E01F4800681F49C2681F48904758
:1026C0001E48FDF79BFD85B24FF6FF732A461B4956
:1026D0002048FFF70DFD18480088002820DD04225F
:1026E0001D491648FDF79FFDD0B9352013490870E4
:1026F00036204870372088703820C870042404E0E1
:10270000201F0E490855601CC4B20B480088844243
:10271000F6DB0848006802690748018807489047C7
:1027200005E0044909688868804700E000BF00BFF1
:1027300070BD0000AC000020A8000020A403002011
:10274000B8000020FC000020E8000020EC00002081
:1027500000010020D00400206856000870470000E7
:1027600018B5034600222548006800F0F00050BB71
:1027700022481C30006800F0805020B120480068DA
:1027800000F4C05118E000BF1C481C30006840F045
:1027900080501A4C1C3420602046006800F08050A5
:1027A000009000BF00BF1648006800F4C0512046EA
:1027B000006820F080502060B1F5C05F03D1B3F510
:1027C000404F00D1012200BF012A05D10D48006809
:1027D00040F004000B4C20600A48006820F0010023
:1027E0001043084C206000BF2046006800F0010044
:1027F000904201D0012018BD0020FCE708380240BB
:1028000000700040003C0240074808490860084842
:102810004860084888600848C86008480861084857
:102820004861084670470000D93800081C010020A4
:1028300091410008C5420008B5380008A1420008CF
:10284000B94000087CB504460D4616461648006897
:102850001821B0FBF1F01549B0FBF1F04FF47A719B
:10286000484301906068B0F5827F0DD12B4600226D
:1028700080212046009600F01BF898B1606D40F072
:102880002000606503207CBD00BF019800B908E00E
:102890000198401E019020688068C0F3C010002895
:1028A000F3D100BF0020EEE71001002040420F00EE
:1028B0002DE9F84F04460D4690461E46DDF8289057
:1028C000FEF768F9A0EB0900371AFEF763F98246B4
:1028D0002C480068C0F3CB307843009045E0701C72
:1028E000002842D0FEF756F9A0EB0A00B84200D209
:1028F000A7BB2068406820F0E0002168486060685D
:10290000B0F5827F0DD1A068B0F5004F03D0A0686C
:10291000B0F5806F05D12068006820F04000216884
:102920000860A06AB0F5005F0DD100BF20680068A4
:1029300020F40050216808602068006840F40050CE
:102940002168086000BF012084F8510000BF00200A
:1029500084F8500000BF0320BDE8F88FFFE700981F
:1029600000B900270098401E009020688068284029
:10297000A84201D1012000E000204045AFD1002055
:10298000EAE7000010010020704700002DE9F74F32
:1029900088B08A4693460024A14600BF0027DFF88E
:1029A000F88000BF72E04FF010096AE0002008BB19
:1029B000A01CFDF7CFFD02460B46CDE9000100202B
:1029C0004FF0804102F07CF8CDE904014846FDF764
:1029D000D2FDCDE90201DDE90423FDF7DAFC024670
:1029E0000B46CDE9060100202C49FDF744FD0546C4
:1029F0000E4620E0E01CFDF7ADFD02460B46CDE99A
:102A0000000100204FF0804102F05AF8CDE90401A6
:102A10004846FDF7B0FDCDE90201DDE90423FDF7ED
:102A2000B8FC02460B46CDE9060100201B49FDF724
:102A300022FD05460E460898FDF79DFD2A463346C1
:102A4000CDE90401FDF7A2FC21F000413A464346DE
:102A5000CDE90601FDF7D4FD0FD20898FDF78BFDF7
:102A60002A463346CDE90601FDF790FC21F00048E7
:102A700007468AF800908BF8004009F1040000F046
:102A8000FF09B9F1180F91DD601CC4B2082C8ADB74
:102A90000BB0BDE8F08F0000D012634180847E410E
:102AA00010B5084801683031302001F011FB0548AD
:102AB000006890F83000C0F300100349087608461B
:102AC000007E10BD240000200800002030B516480C
:102AD000006890F8270000F00700421C12480068C8
:102AE00090F83000C3091048006890F8300000F0FA
:102AF000060008B1012000E0002004460A480068F2
:102B000090F832100848006890F8300000F010008B
:102B1000102801D1022000E000200546D0182044F2
:102B20000844284480B230BD240000202DE9F04143
:102B3000032213480168891D062001F0D3FA1048CA
:102B40000068807900040E490968C97940EA0120CB
:102B50000B490968097A08430A4908600868FDF7C3
:102B60000AFD06460022084BFDF713FC0446FDF75C
:102B70002EFD0449086008460068BDE8F0810000A9
:102B8000240000200800002080844E4070B50546D7
:102B90000C460648008820800020044908802288CE
:102BA00003492846FDF706FB70BD000038000020F1
:102BB000A401002008B500205E49087000F0D0FC98
:102BC0006F225D49012001F08DFA08205B490968F8
:102BD0004870282059490968487058480068417869
:102BE000012001F07DFB20205449096888724020B3
:102BF00052490968887251480068817A0A2001F0B8
:102C00006FFB20204D49096808734C480068017B20
:102C10000C2001F065FB01226946302001F062FAC8
:102C20004748407E012804D11E2044490968487362
:102C300003E00E2041490968487305203F490968AF
:102C400081F82600AA203D490968C877FF203B4942
:102C50000968087492203949096881F82700C12061
:102C60003649096881F8280094203449096881F8B8
:102C70002900C1203149096881F82A003048007EC6
:102C8000C02141EA00102D49096881F830002B4825
:102C9000006890F83010302001F022FBFFF700FFB1
:102CA0002748807E2549096881F832002820234979
:102CB000096808750C2021490968487502201F49D8
:102CC000096888756F221C49012001F011FB1C491D
:102CD000086800F005FD1A49486800F0C1FB184972
:102CE000886800F04FFC164800210269134800680C
:102CF000123000F0DFFB1248002142690F480068E3
:102D0000133000F0D7FB002000F09EFD802000F083
:102D1000A1FC012000F0B8FC14200949087391F9C6
:102D20000C0000F009FD012000F062FC00F042FB05
:102D300008BD0000290000203501002024000020EB
:102D4000080000202DE9F04F89B001200890F948D3
:102D500000780C287ED2DFE800F0060784EFEDEC67
:102D6000EBEAE9E8E7E6C1E2F348006890F83000F2
:102D700000F01000102805D14C20EF49096881F8B7
:102D8000400004E00C20EC49096881F84000E12093
:102D9000E949096881F841000222E74801684031A9
:102DA000402001F0A5FA052000F022FC4FF48071CC
:102DB000E248FDF718FAE2494868FDF7DCFBCDE987
:102DC0000201FFF783FE0190FDF7D5FB804600224C
:102DD000DC4BFDF7DEFA0646DDE90223FDF74BFB8F
:102DE0000022D94BCDE90401FDF7D3FACDE9060164
:102DF00002F042FB04460022D44BFDF723FA824640
:102E0000FDF7E5FB80B2D24908600846006800EB98
:102E10005000086008460068CE490860CE48006847
:102E2000CE490860CE490860A020C349096881F8EE
:102E30003500C148006890F83510352001F050FA8F
:102E40000020C8490870C8490870C8490870C849B6
:102E5000087000E049E2C74908800220B5490870BF
:102E600044E201F083F9012809D1BE48007830B965
:102E70000120BC490870B8480068B949086001F0F1
:102E800065F901281ED1B748007801281AD1B64843
:102E90000078B8B90120B449087000F065FAB64A64
:102EA00003C200F039FAB549086000F075FAB44978
:102EB0000870A9480068A9490860A949086003206A
:102EC0009C490870A8480078B8B9A648007801283D
:102ED00013D1A1480068A2490968401A9D490968B0
:102EE00088420AD901209349087093480068407BC2
:102EF00040F020010D2001F0F3F99B48007888B9DB
:102F00009848007870B99948007858B99248006894
:102F100092490968401A8E490968884202D90520F9
:102F200084490870E2E1DAE1D3E186E151E129E187
:102F3000ECE0D8E0CEE0FFE78E480088B0F5807F77
:102F400003DD06207B490870D0E101F0F7F8012885
:102F500053D188480088A8B98548007890B9764848
:102F6000006890F8300000F08000802804D1012132
:102F7000804801F003F905E06F48006890F83200DE
:102F80007C4908807B48008879490978401A6A4959
:102F9000096891F8351001F03F01884217DD664A53
:102FA000126892F8352002F03F01644A704B1B789A
:102FB000D01801F0E3F86048006890F8350000F0A0
:102FC0003F006B49097808446949087015E0694A6F
:102FD0001278674B1B78D21AD1B2584A644B1B78CF
:102FE000D01801F0CBF86348007861490978401A9D
:102FF0005F49097808445E49087001F095F8012896
:1030000058D102F0A9FA5448006854490860594858
:10301000008890BB5648007878BB4748006890F815
:10302000300000F08000802804D10121514801F0D7
:10303000A5F805E04048006890F832004D49088046
:103040004C4A12784A4B1B78D21AD1B23B4A484BB1
:103050001B78D01801F092F8464800784449097866
:10306000401A4349097808444149087001203F4902
:10307000087004202F4908701CE0FFE73D4A1278D1
:103080003B4B1B78D21AD1B22C4A394B1B78D01843
:1030900001F074F83748007835490978401A344906
:1030A000097808443249087001203049087004202A
:1030B000204908702D48007858B9274800682749EA
:1030C0000968401A22490968884202D9052019492D
:1030D00008700BE10020264908700120154908708E
:1030E0000220089002E1002021490870214908804F
:1030F00011480068407B40F020010D2001F0F0F8FD
:1031000001200C49087003200890EFE000201849C6
:1031100008701849088008480068407B40F020018A
:103120000D2001F0DDF8012002490870062008900A
:10313000DCE000002900002024000020A401002081
:10314000080000200000204000408F400000F03FB9
:103150002C00002030000020FC0000205000002047
:1031600054000020340000203500002036000020EC
:103170003A000020380000204000002048000020D5
:103180004C00002001205C49096881F840002020A3
:103190005949096881F841000222574801684031C5
:1031A000402001F0A5F898205349096881F83500BE
:1031B0005148006890F83510352001F091F803204F
:1031C00000F016FA08204D49087000204C4908709C
:1031D0008CE000F0C3FF01282ED14748006890F82A
:1031E000300000F08000802803D10121454801F023
:1031F0009FF844480088002808DD4248008840289D
:1032000004DC404800784049087002E020203E4934
:1032100008703D4801783D4801F08AF83848007848
:1032200039490978084436490870394800683949ED
:10323000086009203149087058E000F07FFF70BB3A
:10324000304800882E490978401A2F490978884269
:103250000FDD2E492A4A127888182B49097801F087
:1032600067F82748007828490978084424490870F5
:1032700015E0244A1278224B1B78D21AD1B2234A85
:103280001F4B1B78D01801F053F81E4800781C49DA
:103290000978401A1A49097808441949087000F059
:1032A00043FF012809D11A4800681A4908600A201A
:1032B00012490870012000F09BF915480068154973
:1032C0000968401AB0F57A7F02D90B200B490870C3
:1032D0000CE00020094908700420089006E0002056
:1032E000064908700520089000E000BF00BF08985C
:1032F00009B0BDE8F08F0000240000202900002064
:103300003B0000205800002028000020A4010020DD
:10331000FC0000205C0000202DE9F047022210484C
:1033200001681B311B2000F0DDFE0D490968097F93
:103330000B4A1268D27E41EA0220FDF70BF9804663
:10334000FDF726F98246FDF705F906460022054BF2
:10335000FDF71FF80446FDF71BF9BDE8F0870000F4
:103360002400002080844E4070B50A480168113165
:10337000112000F0ADFE07490968487CFDF7FBF815
:10338000044600224FF08043FDF775F881F00041BC
:1033900070BD00002400002010B5054801680C3104
:1033A0000C2000F095FE02480068007B400910BD2B
:1033B0002400002038B56946092000F089FEFFF797
:1033C000B5FB044600202449096848722248006879
:1033D000417A092000F084FF204800F081F91E485E
:1033E00001683B313B2000F073FE1B48006890F8F9
:1033F0003B0000F0BF0040F040001749096881F829
:103400003B001548006890F83B103B2000F068FF37
:10341000114801683B313B2000F05AFE05E00E48A0
:1034200001683B313B2000F053FE0B48006890F8E8
:103430003B0000F020002028F1D09DF80000064954
:103440000968487204480068417A092000F048FF82
:10345000204600F045F938BD24000020008F42339B
:103460002DE9F0410446104844602046FDF783F8FA
:1034700005462A460B4600200C49FCF7FCFF074690
:10348000FDF7A5F884B2200A09490968887008493F
:103490000968CC70022206480168891C104600F0B9
:1034A00027FFBDE8F08100000800002080847E41F5
:1034B000240000207CB504460E46154600200190ED
:1034C0000090254800681230844203D106F0600065
:1034D000207001E0002020706A4601A92846FFF70D
:1034E00055FA9DF80400102804D014280AD0182892
:1034F0001CD111E020789DF8001001F0070108436D
:10350000207014E020789DF8001001F0070141F0D0
:103510000801084320700AE020789DF8001001F0AF
:10352000070141F010010843207000E000BF00BF18
:10353000094800681230844206D12178122000F038
:10354000CFFE0648056105E02178132000F0C8FE93
:10355000024845617CBD00002400002008000020D6
:1035600010B505E0064801684231422000F0B0FD88
:103570000348006890F842001228F3D110BD000003
:10358000240000202DE9F0410446164884601648C6
:103590000168091D042000F09BFD2046FCF7EBFFAD
:1035A00005460022114BFCF766FF0746FDF70FF8B2
:1035B00084B20D480068007900F0C000210A21F0B3
:1035C000C0010843084909680871074909684C7136
:1035D000022205480168091D042000F089FEBDE8AB
:1035E000F0810000080000202400002080844E406C
:1035F00070B50446002514480068407820F0F800B3
:10360000124908700846007884421CD0032C01D16E
:10361000012500E000250E480078854204D00C48C2
:103620000570284600F08DFE07480068407800F0DD
:10363000F80020430449096848700348006841784D
:10364000012000F04DFE70BD24000020600000202D
:103650006100002010B504460A48016809310920BC
:1036600000F036FD07480068407A00F07F002043F4
:1036700004490968487203480068417A092000F04B
:103680002FFE10BD2400002010B504461348016829
:103690004D314D2000F01CFD104801680931092012
:1036A00000F016FD0D480068407A00F08000802888
:1036B00007D1012C0AD187200849096881F84D00FB
:1036C00004E084200549096881F84D00034800683A
:1036D00090F84D104D2000F003FE10BD2400002096
:1036E0002DE9F0410446114804602046FCF743FFF1
:1036F000054600220E4BFCF7BEFE0746FCF767FFAF
:103700000446200C0B4909688871200A0949096898
:10371000C871084909680C72032206480168891DAE
:10372000062000F0E5FDBDE8F08100000800002063
:1037300080844E402400002010B504463D480168B6
:103740000931092000F0C4FC3A4801684D314D2090
:1037500000F0BEFC37480068407A00F08000802806
:1037600041D13448006890F84D0000F08700872868
:103770001CD1052C00DA0524142C00DD14242D485E
:103780000068407A00F08F0040F070002949096815
:10379000487228480068407A00F0F000611F01F08C
:1037A0000F0108432349096848723AE0022C00DA05
:1037B0000224112C00DD11241E480068407A00F01C
:1037C0008F0040F070001B49096848721948006872
:1037D000407A00F0F000A11E01F00F0108431549E6
:1037E000096848721DE0B4F1FF3F01DA4FF0FF3481
:1037F0000E2C00DD0E240F480068407A00F08F0088
:1038000040F070000B49096848720A480068407A25
:1038100000F0F000611C01F00F0108430549096840
:10382000487204480068417A092000F059FD0248B6
:10383000047310BD24000020080000200149087016
:10384000704700002900002010B504460E480168AA
:103850000E310E2000F03CFC002C04DA1F2020EA80
:103860000404641C644208480068807B04F01F0163
:1038700040EAC10004490968887303480068817BF5
:103880000E2000F02DFD10BD2400002070B5044670
:103890000D4605480580028821460448FCF78AFC4D
:1038A00007200349087070BD58000020A4010020C3
:1038B0002900002070B504460D460648007820B95E
:1038C00029462046FFF762F903E02946204600F02A
:1038D00033F870BD0000002010B5094809490860A0
:1038E0000949086000F014F800F052FC0020074974
:1038F00008700846007800F065FCFFF75BF910BD22
:10390000340100202400002084000020000000205A
:1039100010B5012210210748FDF736F90122D10226
:103920000448FDF731F9002202210248FDF72CF985
:1039300010BD00000000024070B505460C46064868
:1039400000882080002004490880228803492846F6
:10395000FCF730FC70BD00008A000020A4020020AB
:103960002DE9F84F4FF0010AFB4800780B2874D27C
:10397000DFE800F0060774CEEFEEEDEC73EBEA0043
:1039800004E3012000F020FB9D20F44909684874FD
:10399000F2480068417C112000F0A2FCF048C07A97
:1039A000012816D1EE48007BEC49096881F8240013
:1039B000EA4801681C311C2000F08AFBE7490968CD
:1039C000097F01F03F01E74A52F8210000F02EFB89
:1039D00004E0FF20E149096881F82400DF4800681D
:1039E00090F82410242000F07BFC0020DB490968BB
:1039F00081F83D00D949096881F83E000222D74884
:103A000001683D31402000F073FCD548807A0128E0
:103A100003D1062000F0D8FA0EE0D0480068C07B41
:103A2000CE4909684873CD480068417B0D2000F0FD
:103A300057FC052000F0C8FA4FF48071CA48FCF723
:103A4000D2FBC7484069C9490860C9480068C949EC
:103A500008600220C049087098E296E200F064FB1A
:103A6000012820D101F078FDC1480068C1490860F3
:103A7000BB48C07A01280FD1B84801681C311C200E
:103A800000F026FBB5490968097F01F03F01B54AFE
:103A900052F8210000F0CAFA4021122000F020FC68
:103AA0000320AD49087000F051FB01281FD1B04838
:103AB0000068B0490860AA48C07A01280FD1A74819
:103AC00001681C311C2000F003FBA4490968097F30
:103AD00001F03F01A34A52F8210000F0A7FA0221A9
:103AE000122000F0FDFB00F061FAA34908709C4829
:103AF000807A01280BD19E4800689E490968401AC7
:103B00009A490968884202D90420934908703DE225
:103B1000924801681231122000F0DAFA8F480068EA
:103B2000807C00F02000202814D12021122000F0F9
:103B3000D7FB8B48807A012802D18749087002E0C0
:103B400002208549087021E203E2DEE1D4E1ABE125
:103B500030E129E16946192000F0BAFA9DF8000029
:103B600000F0800068B19DF80000C043401CC0F325
:103B700085008249087008460078404240B20870CB
:103B800004E09DF8000080087C49087073480168D3
:103B90001A311A2000F09CFA71480068784988426E
:103BA0002FD2764890F90000002818DA734890F96F
:103BB0000000FCF7CFFC04460D4668490968887E82
:103BC000FCF7D9FC804600226E4BFCF73BFB064617
:103BD00022462B46FCF736FB6B4A03C240E05F49A6
:103BE0000968887EFCF7C7FC0646684A684BFCF704
:103BF000D0FB04460022634BFCF724FB624A03C25D
:103C00002EE05E4890F90000002818DA5B4890F931
:103C10000000FCF79FFC04460D4650490968887E69
:103C2000FCF7A9FC804600225A4BFCF70BFB06462A
:103C300022462B46FCF706FB534A03C210E04749D5
:103C40000968887EFCF797FC0646504A504BFCF703
:103C5000A0FB044600224F4BFCF7F4FA4A4A03C289
:103C60003F48807A01282FD13C480068C07B3B49FF
:103C70000968487339480068417B0D2000F030FB2B
:103C80003748407A01280DD13448006890F8220066
:103C9000414908803148006890F82210324800F00D
:103CA0006DFA52E02D4801681331132000F010FA2C
:103CB0002A480068C07C3849088028480068C17CD0
:103CC000294800F05BFA40E02448016810311020D8
:103CD00000F0FEF92248407A012819D11F480068F7
:103CE00090F822002C4908801C480068007C1B4981
:103CF0000968487319480068417B0D2000F0F0FA0C
:103D00001648006890F82210174800F037FA1CE0B7
:103D1000124801681331132000F0DAF90F480068E7
:103D2000C07C1D4908800D480068007C0B4909686B
:103D300048730A480068417B0D2000F0D1FA07481B
:103D40000068C17C084800F019FA0548807A01280B
:103D500024D10149087024E088000020840000205C
:103D6000680000209C550008A4020020A00000204C
:103D7000FC0000209C000020980000208C00002007
:103D8000008F4233008064C0900000201B9E5E299B
:103D9000CB10F13F00A063C08A00002002207D49C3
:103DA00008704FF0020AF1E001207A4908704FF0E4
:103DB000030AEBE0012000F007F97748C07A0128F8
:103DC0001AD1F5207549096848747348007B734916
:103DD000096881F82400714801681C311C2000F03A
:103DE00077F96E490968097F01F03F016C4A52F882
:103DF000210000F01BF908E0F720684909684874C1
:103E000000206649096881F824006448006890F839
:103E10002410242000F064FA60480068417C1120DE
:103E200000F05EFA5F4800785C49096881F822007A
:103E30005A48006890F82210222000F051FA002021
:103E400056490968887355480068817B0E2000F048
:103E500047FA52480068807B5049096848734F48C8
:103E60000068417B0D2000F03BFA4C48006890F858
:103E700022104D4800F05CFA41204849096881F859
:103E80003D0040204549096881F83E000222434830
:103E900001683D31402000F02BFA032000F094F837
:103EA00006203C49087071E000F03EF9012806D177
:103EB0000821122000F014FA07203649087000F09B
:103EC00045F9012817D13448C07A01280FD1334869
:103ED00001681C311C2000F0FBF830490968097F9B
:103EE00001F03F012E4A52F8210000F09FF8022114
:103EF000122000F0F5F949E0012000F065F80020FB
:103F0000244908704FF0040A40E0012000F05CF8FA
:103F1000FA2022490968487420480068417C112031
:103F200000F0DEF900201D49096881F83D001B49B9
:103F3000096881F83E000222184801683D3140209E
:103F400000F0D6F9072000F03FF80A201149087068
:103F50001CE000F003F9012816D10421122000F022
:103F6000BFF900F003F9012809D10121122000F066
:103F7000B7F90120074908704FF0080A04E0002053
:103F8000044908704FF0070A00E000BF00BF504628
:103F9000BDE8F88F88000020680000208400002021
:103FA0009C550008A4000020A402002010B505487C
:103FB00001680C310C2000F08BF802480068007B8F
:103FC000400910BD8400002070B504460025144847
:103FD0000068407820F0F800124908700846007820
:103FE00084421CD0032C01D1012500E000250E489D
:103FF0000078854204D00C480570284600F0A1F9ED
:1040000007480068407800F0F80020430449096838
:104010004870034800684178012000F061F970BDE4
:1040200084000020A6000020A70000202DE9F04118
:104030000446114804602046FCF79DFA054600221C
:104040000E4BFCF718FA0746FCF7C1FA0446200CA1
:104050000B4909688871200A09490968C87108492B
:1040600009680C72032206480168891D062000F0C9
:104070003FF9BDE8F08100006800002080844E40D8
:10408000840000200149087070470000880000206B
:1040900070B504460D46054805800288214604484F
:1040A000FCF788F805200349087070BDA4000020C3
:1040B000A40200208800002010B50448007810B940
:1040C000FEF740FE10BDFFF74BFCFBE700000020B1
:1040D00070B504460D4601222946204600F002F83C
:1040E00070BD00002DE9F04105460E46174600223E
:1040F00010210C48FCF748FD05F07F0000F022F984
:10410000002405E0002000F01DF93055601CC4B209
:10411000BC42F7DB012210210248FCF735FDBDE867
:10412000F08100000000024010B54FF40071024819
:10413000FCF718FD10BD00000004024010B5082176
:104140000148FCF70FFD10BD0004024010B510211E
:104150000148FCF707FD10BD0004024010B5202106
:104160000148FCF7FFFC10BD0004024010B5082117
:104170000148FCF7F7FC10BD0000024070B5044692
:104180000D462A4621460020FFF7ACFF70BD000017
:1041900010B5012000F072F80948046800BF084813
:1041A0000068001BFBD0002000F068F80448046899
:1041B00000BF03480068001B0A28FAD310BD0000A6
:1041C000FC00002010B504462848047028480470FC
:1041D000007801282BD10020FFF7F6FE2548006863
:1041E000407800F07F0040F0800022490968487064
:1041F000204800684178012000F072F80120FFF7A4
:10420000E3FE00201B49096881F83D00194909684F
:1042100081F83E000222174801683D31402000F03D
:1042200067F86F2214490120FFF75CFF1DE06F2241
:1042300011490120FFF756FF0020FFF7C5FE0D488A
:104240000068407800F07F000A4909684870094812
:1042500000684178012000F043F80120FFF7B4FE28
:104260006F2205490120FFF73DFF10BD010000202E
:1042700000000020840000203501002010B5044615
:10428000012C05D1002201020448FCF77DFC04E06A
:10429000012211020148FCF777FC10BD0004024026
:1042A00070B504460D460648007820B929462046D8
:1042B000FFF7ECFA03E029462046FFF7E9FE70BD60
:1042C0000000002010B50548007818B90120FFF75C
:1042D000B5FA02E00120FFF7D5FE10BD0000002076
:1042E00013B50446012201A9204600F001F81CBDC7
:1042F0002DE9F04105460E461746002210210B48D5
:10430000FCF742FC45F0800000F01CF8002404E0BB
:10431000305D00F017F8601CC4B2BC42F8DB01222B
:1043200010210248FCF730FCBDE8F081000002409B
:1043300070B504460D462A4621460020FFF7D8FFF7
:1043400070BD704701B582B03220012301AA02A9D5
:1043500000900348FDF702FA9DF804000EBD00002E
:10436000B803002010B504480068401C02490860EA
:10437000FCF716FC10BD0000FC00002000B593B057
:10438000342106A8FBF72FFF142101A8FBF72BFF10
:104390001448006820F4C05040F4006011490860DF
:1043A00001200690079002200F90C1031091810414
:1043B00011914105129106A8FCF750FE08B1FCF7D7
:1043C000AAFA0F200190032002900020039004908D
:1043D0000590012101A8FCF7BBFC08B1FCF79BFA92
:1043E00013B000BD007000404FF00060014908604C
:1043F0007047000008ED00E010B50A480068401C56
:1044000008490860084600684FF47A71B0FBF1F281
:1044100001FB120010B90120034908700348FDF7A1
:104420004AFC10BDF0000020B00000205004002025
:1044300010B50248FDF73FFC10BD000090040020BD
:1044400010B50268B0F1804F05D0164B984202D0EB
:10445000154B984203D122F070024B681A43B0F119
:10446000804F0ED00F4B98420BD00F4B984208D084
:104470000E4B984205D00E4B984202D00D4B9842FD
:1044800003D122F44072CB681A4322F080030C69F6
:1044900043EA040202608B68C3620B6883620123F3
:1044A000436110BD000400400008004000080140C6
:1044B000000C01400010014030B50C46816821F429
:1044C0007F4142EA032525432943816030BD0A46E6
:1044D000816821F0700142F0070319438160704741
:1044E00030B50B461446026A056A25F001050562DF
:1044F000816921F0F00141EA041122F00A021A4315
:104500008161026230BD30B50B461446056A25F064
:10451000100505628169026A21F4704141EA0431A3
:1045200022F0A00242EA03128161026230BD70B53E
:1045300005466C6A0020E085E0842046FDF768FCB3
:1045400070BD0168C96821F490710268D16001688A
:10455000496921F0010102685161202180F83A1077
:10456000704710B504462068C06820F040002168FC
:10457000C860202084F839002046FDF725FE002081
:1045800010BD70B5044694F83A0022284AD1A068BC
:10459000B0F5805F13D1A56A206940B920684068F2
:1045A000C0F308002880A06A801CA06219E020687F
:1045B0004068C0B22880A06A401CA06211E0206957
:1045C00038B920684068C1B2A26A501CA06211705C
:1045D00007E02068406800F07F01A26A501CA062DA
:1045E0001170E08D401E80B2E085C8B92068C068B7
:1045F00020F020002168C8602068C06820F4807026
:104600002168C8602068406920F001002168486185
:10461000202084F83A002046FDF75EFD002070BDA2
:104620000020FCE70220FAE770B50446216809691A
:1046300021F44051E2681143226811612269A168A6
:10464000114362691143E26941EA02052168C968C0
:1046500049F20C62914329432268D160216849697B
:1046600021F44071A269114322685161594A2168BD
:10467000914202D1FCF792FC01E0FCF77FFCE1697A
:10468000B1F5004F53D100EBC00101EB001162689E
:104690005200B1FBF2F16422B1FBF2F10A0100EB2E
:1046A000C00101EB001163685B00B1FBF3F100EBAB
:1046B000C00303EB001366687600B3FBF6F36426D1
:1046C000B3FBF6F303EBC30606EB0313A1EB830185
:1046D000322303EBC1016423B1FBF3F101F0F801D4
:1046E00002EB410200EBC00101EB001163685B00CB
:1046F000B1FBF3F100EBC00303EB00136668760037
:10470000B3FBF6F36426B3FBF6F303EBC30606EB49
:104710000313A1EB8301322303EBC1016423B1FB3B
:10472000F3F101F0070111442268916051E000EBC0
:10473000C00101EB001162689200B1FBF2F100EBE5
:10474000C00202EB001263689B00B2FBF3F2642329
:10475000B2FBF3F202EBC20303EB0212A1EB820104
:10476000322202EB01116422B1FBF2F101F0F001FF
:1047700000EBC00202EB001263689B00B2FBF3F295
:104780006423B2FBF3F201EB021200EBC00101EB78
:10479000001163689B00B1FBF3F100EBC00303EB76
:1047A00000136668B600B3FBF6F36426B3FBF6F3BA
:1047B00003EBC30606EB0313A1EB8301322303EBE8
:1047C00001116423B1FBF3F101F00F0111442268E0
:1047D000916070BD00380140014691F839002128F0
:1047E0002CD18868B0F5805F0FD10A6A1088C0F3B9
:1047F00008000B685860086918B9086A801C0862CC
:1048000009E0086A401C086205E00B6A581C08624F
:1048100018780B685860C88C401E80B2C88458B99C
:104820000868C06820F080000B68D8600868C0681D
:1048300040F040000B68D860002070470220FCE781
:104840002DE9F04104460D4617469846069E21E0A4
:10485000701CF8B12EB1FCF79DF9A0EB0800B04236
:1048600018D92068C06820F4D0702168C86020681A
:10487000406920F0010021684861202084F8390057
:1048800084F83A0000BF002084F8380000BF0320FD
:10489000BDE8F081206800682840A84201D10120CD
:1048A00000E00020B842D3D00020F1E710B5024864
:1048B000FDF7B0FA10BD0000D004002000BFFEE7F5
:1048C000490050EAC12018BF04204A0D18BF40F02B
:1048D000010040F2FF72B2EB515F08BF40F00200EE
:1048E000012808BF0520704702480068C0F3022075
:1048F000704700000CED00E010B5002804DB0A074B
:10490000130E054A135406E00A07140E034A00F07A
:104910000F031B1FD45410BD00E400E018ED00E0AD
:104920002DE9F0414F1E00EBC7010446D1E900011B
:1049300015461E4637F006020DD02A463346FBF7D1
:1049400028FD7F1E04EBC703D3E90023FBF77AFCA5
:1049500037F00602F1D1022F25D0042F13D0062FF5
:1049600018BFBDE8F0812A463346FBF712FDD4E9B3
:104970000A23FBF767FC2A463346FBF70AFDD4E916
:104980000823FBF75FFC2A463346FBF702FDD4E918
:104990000623FBF757FC2A463346FBF7FAFCD4E91B
:1049A0000423FBF74FFC2A463346FBF7F2FCD4E91D
:1049B0000223FBF747FC2A463346FBF7EAFCD4E91F
:1049C0000023BDE8F041FBF73DBC00000022134688
:1049D00010460149FBF74FBD0000F03FFBF732BC2A
:1049E0000022134610461146FBF745BD40F2013246
:1049F00000204FF0E041FBF7A9BE0000024A002072
:104A00001107FBF7A3BE000001FDFFFF02E008C88D
:104A1000121F08C1002AFAD170477047002001E038
:104A200001C1121F002AFBD1704700000149086034
:104A30007047000018010020FCF7BEF8FFF79EFC4D
:104A4000FDF7C6FBFDF7A0FCFDF752FDFDF7BEFC30
:104A5000FDF7F2FCFDF726FD1348FBF7CFFB84B210
:104A60004FF6FF73224610491048FDF741FB07221D
:104A70000F490E48FDF7F8FA0E48FDF75BF8FDF711
:104A8000C3FE0D4908600968086880470A4909683B
:104A90008868804707E009480078012801D1FDF7C0
:104AA00047FDFDF7A3FDF6E7B8000020D004002085
:104AB000DE00002050040020AC000020AA000020EE
:104AC0002DE9F04D16460F4694B01C4621F00041EA
:104AD00023F00042002814BF4FF0010C4FF0000CEF
:104AE0000CEB470CFE4B0CEB03054FEA630C6545E2
:104AF0002BD3350018BF012505EB44051D44F94BA8
:104B00009D4222D3F84B52EA060C02D09F4205D1B7
:104B100048B914B000201946BDE8F08D002808BF40
:104B20004FF0000C01D04FF0010C0CEB470313F5D4
:104B3000001F0AD8002E14BF4FF0010C4FF0000CDC
:104B40000CEB440313F5001F07D914B0324623467B
:104B50003946BDE8F04DFFF741BFDFF890834FF0D5
:104B6000000A002FB8BF424523DAE14B9A42A8BFA2
:104B70004FF0020A1DDADC4B93421ADCDD4B03EBEB
:104B80002253142B08DDC3F1340C26FA0CF303FA7C
:104B90000CFCB4450DD108E05EB9C3F1140C22FA47
:104BA0000CF303FA0CFC944503D103F00103C3F1A9
:104BB000020A51EA00031BD1002C19DA002F18BF9A
:104BC000BAF1020F02D0BAF1010F07D00220FFF7AD
:104BD0002DFF14B0BDE8F04DFFF7F8BE0220FFF73F
:104BE00025FFFFF7F3FE14B081F00041BDE8F08D22
:104BF000330070D1424525D107F1804212F5801271
:104C000001BF00280020B84914B008BFBDE8F08DEE
:104C1000B548884207DC002CA1BF1846214614B0D5
:104C2000BDE8F08D07E0002CBFBF184684F00041BE
:104C300014B0BDE8F08DB0497944D1E9000114B059
:104C4000BDE8F08DDFF8A0C262452AD1002C24DA3D
:104C500039B1414517D1002804BF002002461CD1BC
:104C600006E040B10220FFF7E1FEFFF7BFFE0A4673
:104C7000394600F0D7BA9D4A394614B0002062F395
:104C80001E01BDE8F08D08DA14B03B46BDE8F04DDA
:104C9000024600206146FBF7EEBB14B03946BDE882
:104CA000F08D414517DAB4F1804F0CD0A4F10053D8
:104CB000B3F1FF530FD13B1E0DDB14B01946BDE815
:104CC000F04D00F023BC3B4614B00246BDE8F04D69
:104CD0001946FBF75EBB050027F000433AD1E1B16E
:104CE000414537D1002F06DD002CA1BF00204146F1
:104CF00014B0BDE8F08D002F01DD002C1FDB002F6C
:104D000016DA002C14DBBAF1010F4FF0000014BFCB
:104D100076497A4914B0BDE8F08DBAF1020F18BF98
:104D2000002F0CD0BAF1010F09D1002F07DA0BE0E8
:104D3000002FB8BF002C0DDABAF1010F04D000200B
:104D400014B00146BDE8F08D14B000204FF00041D2
:104D5000BDE8F08D4FF0010808EBE77CCDF814C0FA
:104D60005CEA0A0C0DD0DFF898C162457EDDDFF801
:104D700094C1654B624512DD8B420ADB002C18DBC7
:104D800023E00120FFF752FE14B0BDE8F04DFFF71D
:104D900027BE554A8A4202DC002C0ADC15E0994203
:104DA00002DA002C11DA04E04F4B994219DD002C95
:104DB0000BDD0220FFF73AFEFFF718FE4B4A14B056
:104DC00061F31E021146BDE8F08D0220FFF72EFEB2
:104DD000FFF714FE444A14B061F31E021146BDE809
:104DE000F08D00223946FBF7CEFA07460D466FF0EC
:104DF0000102FBF7ABFC4FF05532444BFBF7C6FA10
:104E00003A462B46FBF7C5FA0022414BFBF7BEFAA8
:104E100080468B463A462B4610461946FBF7B9FAB0
:104E200042465B46FBF7B5FA88460E904FF0C0420B
:104E3000384B38462946FBF7ACFA83460091364A90
:104E4000344B41460E98FBF7A4FA80460191334A51
:104E5000334B38462946FBF79CFA4246019BFBF749
:104E600092FA0D4602460B460C9000E011E05846BF
:104E70000099FBF7E7F9002788465A463846009B19
:104E8000FBF781FA2B460C9AFBF780FA024600F0FA
:104E900079B90020B1F5801F07DA35222846194676
:104EA000FBF754FC05466FF0340000EB2150A0F2F4
:104EB000FF300190C1F3130040F07F6141F0405199
:104EC000029118498842D8BF4FF0000B35DD1649D2
:104ED0008142C8BF4FF0010B2FDC4FF0000B25E0E3
:104EE000FFFF1F00FFFF0F000000F03F0000F07FFA
:104EF0000000404301FCFFFFE40A00000000F0FF57
:104F00000000E0410000F043FFFFEF3F5555D53F63
:104F10000000E03F4715F73FFE822B6544DF5DF858
:104F20000BAE543E8E9803007AB60B000198401CDD
:104F300001900298A0F580100290FF4802997844F1
:104F400000EBCB000991D0E9002328460B93129285
:104F5000FBF719FA00910A9028460B9B129A0999BF
:104F6000FBF770F902460B460020F449FBF783FA81
:104F7000CDE90C010B46024600990A98FBF709FAA5
:104F80000690EF4888460027784402990068109000
:104F90004FF0005040EA610000EB8B4000F500212B
:104FA00002910B9B129A1098FBF7EDF92A46099B88
:104FB000FBF7ECF93A464346FBF7EBF90891129000
:104FC00038464146029B109AFBF7E3F9009B0A9A88
:104FD000FBF7DCF9089B129AFBF7D5F9DDE90C2306
:104FE000FBF7D7F90B91069A1290434610461946E3
:104FF000FBF7CFF905460246D2480B460A91062137
:105000007844FFF78DFC0A9B2A46089102901046CF
:105010001946FBF7BEF9089B029AFBF7BAF9054659
:105020000991434638461946069AFBF70BF90B9B44
:10503000129AFBF7AEF92A46099BFBF703F9CDE973
:1050400008013A46434610461946FBF7A2F90A9171
:105050000022BD4B0090FBF7F5F8DDE90823FBF7D4
:10506000F1F80D463A46B84B3846FBF78CF90A9BE7
:10507000009AFBF788F9DDE90823FBF787F9CDE90A
:1050800008013A462B4610464146FBF782F900914B
:105090000A90DDE908014346069AFBF77AF9069083
:1050A00088462B463A460B991298FBF772F943460D
:1050B000069AFBF7C7F880460B4602460D91009909
:1050C0000A98FBF7BFF800200F460546009B0A9A96
:1050D000FBF759F942460D9BFBF758F988460E90AD
:1050E0004FF06042994B28463946FBF752F902913E
:1050F0000090974A954B41460E98FBF74AF9804637
:105100000391944A944B28463946FBF742F94246AC
:10511000039BFBF797F8914A7A4402EBCB03D3E960
:105120000023FBF78FF8054607910198FBF712FA69
:105130000C9003912A46079B02990098FBF782F88E
:10514000874A7A4402EBCB03D3E9002393460193C9
:10515000FBF778F8039B0C9AFBF774F80027884656
:105160003846039B0C9AFBF70EF95A46019BFBF756
:105170000AF9029B009AFBF706F92A46079BFBF700
:1051800005F902460020069005986C4DAAF101032E
:10519000184301D1734D069000200B460490304611
:1051A0002146FBF7F6F882468B46234630461946E1
:1051B000049AFBF7E8F83A464346FBF7EAF852460A
:1051C0005B46FBF73FF806468A463A464346214689
:1051D0000498FBF7DEF804460F4632465346FBF7C9
:1051E00031F8614A8B46914221DBABEB020353EA73
:1051F000000210D122463B46FBF7C5F880460391DA
:105200005A4A5B4B30465146FBF71CF84246039B1B
:10521000FBF7F8FA27D20220FFF708FCFFF7E6FBBE
:105220000A46294614B062F31E01BDE8F08D514BC9
:105230002BF000429A4216D34F4A0BEB020353EA7B
:10524000000208D122463B46FBF79DF83246534602
:10525000FBF7D8FA07D80220FFF7E8FBFFF7CEFBF1
:105260000A462946DEE72BF000404449444A01EB58
:1052700020514FF00008824223DA481C4FF480117D
:1052800021FA00F058443F4AC0F30A517A443E4B99
:10529000A1F2FF31CB4020EA0303C0F3130040F436
:1052A000801CC1F1140012682CFA00F8BBF1000F49
:1052B000B8BFC8F1000820463946FBF764F8044639
:1052C0000F4622463B4630465146FAF7BBFF4FF0A9
:1052D000000B5A462D4B58460391FBF75AF80091A4
:1052E0000A902B4A2B4B58460399FBF752F804912E
:1052F000029022463B4658460399FBF744F8324653
:105300005346FBF743F8244A244BFBF742F8049B2F
:10531000029AFAF797FF07468A46009B0A9AFAF71D
:1053200091FF04460E46009B0A9AFBF72CF83A467A
:105330005346FBF72BF833E0560700000000F03F20
:1053400094070000C40600000000084009C7EE3FB3
:10535000FD033ADCF5015B14E02F3EBE9C05000026
:10536000620500000000F0BF00009040FE822B6547
:105370004715973C00CC904000346F3F01FCFFFF85
:105380000000E03F90040000FFFF0F00432EE63FC7
:10539000396CA80C615C20BEEF39FAFE422EE63F64
:1053A0000746224633460F9110461946FAF7F1FF99
:1053B000834602462E488A460B4605217844FFF76D
:1053C000AFFA5A465346FAF7E4FF22463346FAF755
:1053D000DDFF82468B463A46204631460F9BFAF760
:1053E000D8FF3A460F9BFAF72DFF0F460A9000228E
:1053F0004FF0804350465946FAF7C5FF039100909D
:1054000052465B4620463146FAF7C3FF039B009A9B
:10541000FBF731F83B460A9AFAF7B5FF22463346C6
:10542000FAF7B1FF0022134BFAF7B0FF0E4604461D
:1054300001EB08510815002810DC42462046314691
:10544000FBF784F9FFF73CFA042808BFFFF7D6FA08
:10545000424620463146FBF779F9044606980B464A
:1054600014B022462946BDE8F04DFAF792BF00007D
:10547000380300000000F03F2DE9F04D07460E46CE
:10548000FBF77CF904460D463A463346FAF77EFFB1
:10549000DFF86CA0DFF86CB01B4B0746884616F0AF
:1054A000004F4FF000020AD0FBF7AAF80AD90022F9
:1054B0005B4638464146FBF7A5F91BD212E0FBF7E5
:1054C0009FF808D20022534620462946FAF75BFF90
:1054D00004460D460EE000225B4638464146FBF787
:1054E00091F907D80022534620462946FAF7AAFE2A
:1054F00004460D463146204665F31E01BDE8F08D99
:105500000000F03F0000E03F0000E0BF2DE9F04167
:1055100006460F46FBF7A0F904000D4618BF012010
:10552000284320F00040C0F17F6000F1E040C00F50
:105530000ED0301C18BF0120384320F00040C0F1CD
:105540007F6000F1E040C00F04BF0120FFF76EFA5A
:1055500020462946BDE8F08110B54FF400410248CD
:10556000FBF708FB10BD00000004024010B500224C
:105570004FF400610848FBF707FBFBF70BFB044601
:1055800000BFFBF707FB001B0228FAD90122D1025A
:105590000148FBF7F9FA10BD0000024020AEA0362A
:1055A000E07D0B37A017083660F0AF3660F0AF36FD
:1055B000403D2E36C0AFD235000D993620A563365A
:1055C00080A331374061223760DE353640466B3686
:1055D000A032BF36A032BF36A00ECB35E0625436C3
:1055E000A0443937A00ECB35809AF436001F13370C
:1055F000E050DA3540466B36809AF43680A3313776
:10560000807F3D360016D636A03BFC36C0C14C36F6
:10561000809AF43660DE353680A33137809AF436CE
:105620008091B73660022A3700FB1E3660F0AF3635
:10563000A0443937209C2636000D993660D5F835C0
:10564000000D9936C0AFD2354034F135C0CA893625
:1056500040466B36C0B80F36807F3D36A0443937A0
:1056600060022A37C0C14C36313233340035363708
:105670003800030406080C10182030000000000059
:1056800000000001020304060708090000000001F1
:105690000203040000000000000000000000F03FD2
:1056A000000000000000F83F0000000000000000C3
:1056B0000000004003B8E23F0000000000000000CE
:1056C00006D0CF43EBFD4C3E033333333333E33F5C
:1056D000FFAB6FDBB66DDB3F4D268F515555D53F88
:1056E00001411DA96074D13F65DBC9934A86CD3F56
:1056F000EF4E454A287ECA3F3E5555555555C53F44
:1057000093BDBE166CC166BF2CDE25AF6A56113F35
:10571000F16BD2C541BDBBBED0A4BE726937663E37
:1057200000000000000000004857000800000020B2
:105730001C0100000C4A0008645800081C010020ED
:105740000C0800001C4A00080000000000000000D7
:10575000400ECF196009000050C300001400000083
:10576000A0860100F04902000101FF0000000000D6
:105770002000000000000000000000000000000009
:105780000000000000000000000000000000000019
:105790000000000001000000000000000000000008
:1057A00000000000000000000101000000000000F7
:1057B000C092ED190A070C0101000000040000006E
:1057C0006400000064000000FF0000000000000012
:1057D00000000000000000000000000000000000C9
:1057E00001000000000000000000000000000101B6
:1057F0001200010000000000000000000000000096
:10580000343333303030000000000000000000006E
:10581000000068656C6C6F206675636B20776F7233
:105820006C640000000031313131310000000000B3
:10583000000000000000000000000000010203045E
:105840000506070000000000000000000000000046
:10585000100000000100000068FF1F0000000000B1
:045860000000000044
:04000005080000F5FA
:00000001FF
