:020000040800F2
:100000006806002009010008C9230008D71F00085E
:10001000C5230008B9050008C12A00080000000037
:10002000000000000000000000000000752400082F
:100030001106000800000000CB2300087924000806
:100040002301000823010008230100082301000800
:1000500023010008230100081306000823010008FB
:1000600023010008230100082301000823010008E0
:1000700023010008230100082301000823010008D0
:1000800023010008230100082301000823010008C0
:1000900023010008230100082301000823010008B0
:1000A00023010008230100082301000823010008A0
:1000B000230100082301000811250008230100087E
:1000C0002301000823010008230100082301000880
:1000D00023010008B12A00082301000823010008B9
:1000E0001D06000823010008230100084925000817
:1000F00023010008DFF80CD000F088F90048004721
:100100001D2B000868060020064880470648004767
:10011000FEE7FEE7FEE7FEE7FEE7FEE7FEE7FEE7B7
:10012000FEE7FEE701250008F50000082DE9F05F75
:100130000546002092469B46884606468146402456
:100140001BE0284641464746224600F0F2F8534657
:100150005A46C01A914110D311461846224600F063
:10016000D9F82D1A67EB01084F46224601200021DD
:1001700000F0D0F817EB00094E41201EA4F1010455
:10018000DFDC484631462A464346BDE8F09F40EA58
:1001900001039B0703D009E008C9121F08C0042A05
:1001A000FAD203E011F8013B00F8013B521EF9D2EC
:1001B0007047D2B201E000F8012B491EFBD2704714
:1001C0000022F6E710B513460A4604461946FFF723
:1001D000F0FF204610BD421C10F8011B0029FBD186
:1001E000801A70472DE9FE4F81EA030404F00044B1
:1001F00021F0004100944FF0000B23F0004350EA3F
:1002000001045ED052EA03045BD0C3F30A54C1F385
:100210000A552C44A4F2F3340194A0FB0254C1F318
:10022000130141F48011C3F3130343F4801301FB62
:10023000024400FB034E840A970A44EA815447EAC9
:100240008357A4FB076802958D0A05FB07854FEAD3
:10025000932C04FB0C542705029D4FEA065847EAED
:100260001637B5EB08056EEB070C870E920E47EAC2
:10027000811742EA8312A7FB0201B6EB0B0164EB84
:1002800000042B0D43EA0C335E1844EB1C50DA4695
:100290005146E7FB0201C5F313044FEA0B3343EA6F
:1002A00014534FEA0432019C43EA0603A4F10C0400
:1002B0000294009CCDE900B400F05AF803B0BDE808
:1002C000F08F00200146F9E70EB540F2334102916C
:1002D0000021CDE900110A460B4600F049F803B0B1
:1002E00000BDC1F30A5210B5C1F3130140F2FF3350
:1002F00041F480119A4201DA002010BD40F23343EC
:100300009A42A2F2334203DC524200F012F810BDCE
:10031000904010BD202A04DB203A00FA02F10020B0
:1003200070479140C2F1200320FA03F31943904033
:100330007047202A04DB203A21FA02F0002170479E
:1003400021FA02F3D040C2F120029140084319463D
:10035000704710B5141E73F1000408DA401C41F117
:10036000000192185B411A4301D120F0010010BD39
:100370002DE9F04D92469B4611B1B1FA81F202E0AF
:10038000B0FA80F220329046FFF7C4FF04460F46D1
:1003900040EA0A0041EA0B0153465A46084313D08B
:1003A000114653EA010019D0C8F140025046FFF748
:1003B000C0FF05460E46504659464246FFF7AAFF83
:1003C000084305D0012004E020463946BDE8F08D01
:1003D0000020054346EAE0762C4337430A9863053C
:1003E000E40AA0EB08000022FD0A44EA47540A3060
:1003F00002D500200146E9E7010510196941DDE950
:10040000084500196941BDE8F04DA2E7064C074DCB
:1004100006E0E06840F0010394E8070098471034D4
:10042000AC42F6D3FFF76AFE242D0008442D0008E5
:1004300010B501229103174800F032FA002204217E
:10044000144800F02DFA01220221134800F028FA86
:10045000012204210F4800F023FA012211030D4864
:1004600000F01EFA00224FF480410A4800F018FA0A
:100470004FF4045000F064F842F2380000F060F8E5
:100480004FF4404000F05CF84FF4045000F058F88E
:1004900010BD0000000402400000024010B50446F8
:1004A000012202210B4800F0FBF9012204210A4835
:1004B00000F0F6F901229103074800F0F1F900225B
:1004C0004FF48041044800F0EBF9204600F038F882
:1004D00010BD000000000240000402402DE9FC476E
:1004E000064689464846FFF7EFFE0746124A134B79
:1004F000FFF778FECDE90001FFF7F3FE8246544690
:100500004FEA9A3546B924F4004444F4804425F473
:10051000004545F4804507E024F4804444F4004459
:1005200025F4804545F40045204600F009F82846AA
:1005300000F006F8BDE8FC878DEDB5A0F7C63040A9
:1005400070B50446002501220421194800F0A8F9DD
:1005500000220221174800F0A3F900BF1BE004F4B9
:10056000004028B101221103114800F099F905E07B
:1005700000224FF480510E4800F092F9002204212D
:100580000B4800F08DF9640001220421084800F0B6
:1005900087F9681CC5B2102DE1DB01221103044864
:1005A00000F07EF901220221024800F079F970BDC5
:1005B000000402400000024000BFFEE7F0B5034621
:1005C0000C4641F60F5141F2210600221BE0985CD7
:1005D000002514E000F0800701F4004C87EA2C2786
:1005E0002FB14FF6FF7707EA4101714003E04FF664
:1005F000FF7707EA41014706380E6F1CFDB2082D50
:10060000E8DB501CC2B2A242E1DBC84380B2F0BDBD
:10061000704710B5012000F04DF810BD10B54FF433
:10062000805000F047F810BD704770B504460025B3
:1006300094F82100022803D00420A063012520E0C3
:100640002068006820F00E002168086020680068BB
:1006500020F001002168086094F8400000F01C01BF
:1006600001208840E16B4860012084F8210000BF30
:10067000002084F8200000BF606B10B12046616B41
:100680008847284670BD000070B5044600F00EF99A
:1006900006462546681C10B104480068054400BFA2
:1006A00000F004F9801BA842FAD370BD7C00002042
:1006B0007047000010B5044604480068204020B18F
:1006C000024804602046FFF7F3FF10BD1404014008
:1006D00078B50346002200240020CAE00126964097
:1006E0000D6805EA0604002C71D04D68012D08D074
:1006F0004D68022D05D04D68112D02D04D68122D88
:1007000013D1986856000325B540A8435600CD681C
:10071000B54028439860586801259540A8430D7955
:10072000C5F30015954028435860D8685600032546
:10073000B540A84356008D68B5402843D8604D6841
:10074000022D02D04D68122D13D1D60803F12005D9
:1007500055F826005507EE0E0F25B540A84356075D
:10076000F60E0D69B5402843D60803F1200545F87B
:100770002600186856000325B540A8430D7905F0FA
:1007800003055600B540284318604D6805F08055B4
:10079000B5F1805F6CD100BF394D2D6845F0010582
:1007A000374E356035462D6805F00105009500BFD0
:1007B00000BF344D960855F8260095072E0F0F25DB
:1007C000B540A843304DAB4202D1002515E04FE0C3
:1007D0002E4DAB4201D101250FE02D4DAB4201D191
:1007E00002250AE02B4DAB4201D1032505E02A4D3D
:1007F000AB4201D1042500E005259607360FB54030
:100800002843204D960845F82600244D2868A0432B
:100810004D6805F48035B5F5803F00D120431F4D6C
:1008200028602D1D2868A0434D6805F40035B5F5F6
:10083000003F00D12043194D2D1D28602D1D286833
:10084000A0434D6805F48015B5F5801F00D1204305
:10085000124D083528602D1D2868A0434D6805F409
:100860000015B5F5001F00D120430C4D0C35286054
:10087000521C0D68D540002D7FF430AF78BD0000CC
:1008800020380240080001400000024000040240FD
:1008900000080240000C0240001002400004014029
:1008A0000AB1816101E00B0483617047014800686F
:1008B000704700007400002003480068034909687D
:1008C0000844014908607047740000207C00002043
:1008D00010B50024032000F0B3F8002000F008F861
:1008E00008B1012401E000F02FF8204610BD0000FF
:1008F00070B50446002511480068D8B10F4800685B
:100900004FF47A71B1FBF0F00D490968B1FBF0F6D4
:10091000304600F0AFFD58B9102C07D20022214616
:10092000501E00F04FF80748046004E0012502E083
:10093000012500E00125284670BD00007C00002054
:10094000800000207800002008B500BF144800682F
:1009500040F00040124908600846006800F000407E
:10096000009000BF00BF00BF081F006840F00100FA
:10097000091F08600846006800F00100009000BFF1
:1009800000BF00BF081D006840F08050091D0860CE
:100990000846006800F08050009000BF00BF08BD0E
:1009A0002438024001460846002809DB00F01F03F6
:1009B00001229A4043099B0003F1E023C3F8002180
:1009C00000BF70472DE9F05F80460D4616460027B0
:1009D00002F078F8074639462A46334601F0070008
:1009E000C0F1070ABAF1040F02D94FF0040A01E07E
:1009F000C0F1070AD14600F1040ABAF1070F02D28A
:100A00004FF0000A01E0A0F1030AD4464FF0010ABA
:100A10000AFA09FAAAF1010A0AEA020A0AFA0CFA1F
:100A20004FF0010B0BFA0CFBABF1010B0BEA030BC4
:100A30004AEA0B042146404602F04CF8BDE8F09F1C
:100A400000BF00F00702064B19684FF6FF0319407C
:100A5000044B0B4343EA0221014B196000BF70476E
:100A60000CED00E00000FA052DE9F04104460D46CA
:100A700014B90120BDE8F0817E48006800F0010053
:100A8000A84218D200BF012D05D17A48006840F075
:100A90000400784908607748006820F00100284386
:100AA0007449086000BF0846006800F00100A842D1
:100AB00001D00120DEE7207800F00200022807D1F3
:100AC0006D48006820F0F000A16808436A4908609A
:100AD000207800F0010000287FD06068022807D14C
:100AE00065480838006800F40030F8B90120C1E713
:100AF0006068032807D160480838006800F000707B
:100B0000A0B90120B6E76068012807D15A48083823
:100B1000006800F0020048B90120ABE756480838E9
:100B2000006800F4007008B90120A3E7524800688B
:100B300020F00300616808434F490860FFF7B6FEE4
:100B400006466068022810D108E0FFF7AFFE801B60
:100B500041F28831884201D903208BE7464800687A
:100B600000F00C000828F0D137E06068032810D1AD
:100B700008E0FFF79BFE801B41F28831884201D9D3
:100B8000032077E73C48006800F00C000C28F0D107
:100B900023E06068012810D108E0FFF787FE801B82
:100BA00041F28831884201D9032063E73248006866
:100BB00000F00C000428F0D10FE008E0FFF776FE0B
:100BC000801B41F28831884201D9032052E72A482C
:100BD000006800F00C000028F0D12648006800F002
:100BE0000100A84218D900BF012D05D12148006895
:100BF00040F004001F4908601E48006820F0010012
:100C000028431C49086000BF0846006800F0010046
:100C1000A84201D001202DE7207800F0040004282C
:100C200007D11548006820F4E060E16808431249E4
:100C30000860207800F00800082808D10E480068F5
:100C400020F46050216940EAC1000B49086000F0BF
:100C500041F809490968C1F30311084A515CC840C9
:100C60000749086007480068FFF742FE0746384614
:100C700000E70000003C0240083802400B2D00084D
:100C800080000020780000200148006870470000C4
:100C90008000002000B5FFF7F7FF04490968C1F3A1
:100CA0000221034A515CC84000BD000008380240E0
:100CB0001B2D000800B5FFF7E7FF04490968C1F3E1
:100CC000C221034A515CC84000BD00000838024000
:100CD0001B2D00082DE9F05F2248D0F8009009F0A4
:100CE0000C0070B3042804D0082804D00C2829D1A3
:100CF00003E01D4D32E01D4D30E01D48C9F3834136
:100D000010F801A0C9F38150441C1648006800F493
:100D1000803050B11548A0FB0A70014622460023DE
:100D20003846FFF703FA064609E00F48A0FB0A70B1
:100D30000146224600233846FFF7F8F906463546B5
:100D40000CE000E000BF0748001F0068C0F3423B12
:100D50000BF1010001218140CD0300BF00BF2846F7
:100D6000BDE8F09F083802400024F40000127A0029
:100D7000022D00082DE9F843044614B90120BDE80E
:100D8000F883FE48006800F00C06FC48006800F498
:100D90008037207800F00100002875D0082E04D09C
:100DA0000C2E0ED1B7F5803F0BD1F44808380068FF
:100DB00000F40030002867D06068002864D101206A
:100DC000DDE700BF6068012808D1EC4808380068FA
:100DD00040F48030E949083908602DE0606868B95E
:100DE000E6480838006820F48030E4490839086093
:100DF0000846006820F4802008601DE0606805282F
:100E00000DD1DE480838006840F48020DB490839FD
:100E100008600846006840F4803008600CE0D7485D
:100E20000838006820F48030D44908390860084642
:100E3000006820F48020086000BF606890B1FFF770
:100E400035FD054606E0FFF731FD401B642801D95A
:100E5000032094E7C9480838006800F400300028EF
:100E6000F1D011E0FFF722FD054606E0FFF71EFD79
:100E7000401B642801D9032081E7C0480838006876
:100E800000F400300028F1D1207800F002000228A0
:100E900053D1042E02D00C2E17D1B7B9B748083859
:100EA000006800F0020020B1E068012801D00120B4
:100EB00065E7B248001F006820F4F850216940EA55
:100EC0000120AE49091F086037E0E06800B3012047
:100ED000AB490860FFF7EAFC054606E0FFF7E6FCD1
:100EE000401B022801D9032049E7A44808380068BC
:100EF00000F002000028F1D0A048001F006820F494
:100F0000F850216940EA01209C49091F086014E05B
:100F100000209B490860FFF7C9FC054606E0FFF783
:100F2000C5FC401B022801D9032028E79348083854
:100F3000006800F002000028F1D1207800F01000D5
:100F4000102871D1F6BB8D480838006800F4007095
:100F500018B1A06908B9012011E78849091F206A62
:100F6000096801F46041884219D9206A01F02EFA1B
:100F700008B1012003E78148001F006820F46040A9
:100F8000216A08437D49091F0860217F7B48001FB3
:100F9000006861F31F607949091F08601AE077480B
:100FA000001F006820F46040216A08437349091F4C
:100FB0000860217F7148001F006861F31F606F495E
:100FC000091F00E020E00860206A01F0FFF908B185
:100FD0000120D4E60121206A01EB50310120884034
:100FE000C00366490968C1F30311664A515CC840F1
:100FF0006549086065480068FFF77AFC8046B8F1EB
:10100000000F42D04046BAE6A06948B301205C49CF
:101010000862FFF74BFC054607E0FFF747FC401B63
:10102000022802D90320AAE62FE0544808380068B5
:1010300000F400700028F0D05048001F006820F431
:101040006040216A08434D49091F0860217F4B48D1
:10105000001F006861F31F604849091F086014E021
:10106000002047490862FFF721FC054606E0FFF72C
:101070001DFC401B022801D9032080E63F480838A8
:10108000006800F400700028F1D1207800F008001A
:1010900008282CD16069A8B101203D490860FFF7FC
:1010A00005FC054606E0FFF701FC401B022801D9BC
:1010B000032064E631482C30006800F0020000286C
:1010C000F1D014E0002032490860FFF7EFFB05463D
:1010D00006E0FFF7EBFB401B022801D903204EE698
:1010E00026482C30006800F002000028F1D120785A
:1010F00000F0040004286ED14FF000091F481C3096
:10110000006800F0805088B900BF1C481C3000689F
:1011100040F0805019491C3108600846006800F012
:101120008050009000BF00BF4FF0010919480068CF
:1011300000F48070B0B91748006840F48070154919
:101140000860FFF7B3FB054606E0FFF7AFFB401B67
:10115000642801D9032012E60E48006800F480706C
:101160000028F2D000BFA068012817D103482C3016
:10117000006840F4807001492C310DE008380240CD
:10118000000047420B2D000880000020780000205E
:101190008006474200700040086028E0A06858B907
:1011A0006648006820F4807064490860084600685A
:1011B00020F4806008601AE0A06805280CD15F4820
:1011C000006840F480605D4908600846006840F4AB
:1011D000807008600BE040E05848006820F48070A0
:1011E000564908600846006820F48060086000BF27
:1011F000A06898B1FFF75AFB054608E0FFF756FBD9
:10120000401B41F28831884201D90320B7E54B48A1
:10121000006800F400700028F0D012E0FFF746FBF1
:10122000054608E0FFF742FB401B41F28831884247
:1012300001D90320A3E54148006800F400700028AC
:10124000F0D1B9F1010F07D13C481038006820F007
:1012500080503A491039086000BF606AA8B30C2E6C
:1012600052D0606A022839D1002035490866FFF75C
:101270001DFB054606E0FFF719FB401B022801D9BC
:1012800003207CE52D483438006800F00070002809
:10129000F1D1D4E90A010843216B084327492C39CD
:1012A000096821F47D01084324492C390860012094
:1012B00023490866FFF7FAFA054607E0FFF7F6FA52
:1012C000401B022802D9032059E535E01B48343879
:1012D000006800F000700028F0D02DE000201849D0
:1012E0000866FFF7E3FA054606E0FFF7DFFA401B62
:1012F000022801D9032042E510483438006800F084
:1013000000700028F1D117E0606A012800D136E5AD
:101310000A482C38076807F48031A06A814209D155
:1013200007F47011E06A814204D107F44001206B98
:10133000814201D0012022E5002020E5343802401E
:101340000000474210B504460CB9012010BD606A88
:1013500038B96068B0F5827F00D105E00021E16115
:1013600002E00021216161610021A16294F8510035
:1013700028B9002084F85000204600F03DF80220F3
:1013800084F851002068006820F04000216808605F
:10139000A08800F48270218901F404410843A189E6
:1013A00001F400610843217C01F002010843217D22
:1013B00001F001010843218B01F400710843217FF2
:1013C00001F0380108432021095D01F08001084344
:1013D000218D01F400510843216808600421A069AF
:1013E00001EA10402168486000206065012084F80F
:1013F00051000020AAE7000010B586B00446142171
:1014000001A8FEF7DDFE18492068884229D100BFF7
:101410001648006840F48050144908600846006887
:1014200000F48050009000BF00BF00BF081F00689C
:1014300040F00100091F08600846006800F0010044
:10144000009000BF00BFE020019002200290002029
:101450000390032004900520059001A90448FFF79C
:1014600037F906B010BD00000030014020380240BE
:101470000000024070B504462546681EB0F1807F2A
:1014800001D301200FE0681E4FF0E02148610F21D9
:101490004FF0FF3001F01EFB00204FF0E02188618B
:1014A00007200861002070BD30B502460B4600BF22
:1014B00092F83800012801D1022030BD012082F8C5
:1014C000380000BF022082F83900106844681068B4
:1014D000816824F070041868044310684460106840
:1014E000B0F1804F0BD00E4D1068A84207D00D4DC3
:1014F0001068A84203D00C4D1068A84205D121F015
:1015000080015868014310688160012082F8390029
:1015100000BF002082F8380000BF00BFCDE7000008
:1015200000040040000800400008014010B50446D7
:101530000CB9012010BD94F8390028B9002084F8B6
:101540003800204600F01AF8022084F83900211DE6
:10155000206801F001F8012084F83E0000BF84F803
:101560003A0001213B2001553C2001553D20015509
:1015700000BF012084F839000020DBE738B50446BD
:101580002068B0F1804F0DD100BF2A48006840F0BC
:101590000100284908600846006800F0010000903A
:1015A00000BF46E02449206888420DD100BF214891
:1015B000006840F002001F4908600846006800F01B
:1015C0000200009000BF34E01C492068884216D118
:1015D00000BF1848006840F004001649086008463B
:1015E000006800F00400009000BF00BF0022114618
:1015F0001E20FFF7E7F91E20FFF7D4F919E0104984
:101600002068884215D100BF0A48006840F01000E9
:10161000084908600846006800F01000009000BF0C
:1016200000BF002211462B20FFF7CCF92B20FFF73B
:10163000B9F938BD243802400004004000080040D9
:1016400000100040014691F83900012801D0012026
:101650007047022081F839000868C06840F0010036
:101660000B68D8600868B0F1804F0BD0104B086849
:10167000984207D00F4B0868984203D00E4B086879
:1016800098420CD10868806800F00702062A0CD046
:101690000868006840F001000B68186005E0086801
:1016A000006840F001000B6818600020D0E70000DF
:1016B0000004004000080040000801402DE9F0410E
:1016C00004460D4600BF94F83800012802D10220DC
:1016D000BDE8F081012084F8380000BF022084F8C2
:1016E00039002068866826F0770626F47F46206851
:1016F00086602868502833D00CDC202850D004DCC9
:1017000000284BD0102851D149E0302849D040283A
:101710004CD139E060282DD0702807D0B0F5805F1B
:1017200003D0B0F5005F41D10DE040E0D5E90213F0
:101730006A68206800F05DFF2068866846F07706DA
:101740002068866033E0D5E902136A68206800F0FB
:1017500050FF2068806840F480402168886026E05F
:10176000EA686968206800F0BDFF5021206800F039
:101770004BFF1CE0EA686968206800F0C6FF602142
:10178000206800F041FF12E0EA686968206800F014
:10179000A9FF4021206800F037FF08E000BF00BF2C
:1017A00000BF2968206800F02FFF00E000BF00BFE5
:1017B000012084F8390000BF002084F8380000BF01
:1017C00000BF85E7704710B5044620680069C0F384
:1017D0004000D8B12068C068C0F34000B0B16FF0DD
:1017E000020021680861012020762068806900F0ED
:1017F000030018B12046FFF7E5FF05E0204600F0A2
:10180000B9F8204600F05EF90020207620680069D3
:10181000C0F38000D8B12068C068C0F38000B0B1C8
:101820006FF004002168086102202076206880693A
:1018300000F4407018B12046FFF7C4FF05E02046D1
:1018400000F098F8204600F03DF90020207620684E
:101850000069C0F3C000D8B12068C068C0F3C00000
:10186000B0B16FF00800216808610420207620687C
:10187000C06900F0030018B12046FFF7A3FF05E0A0
:10188000204600F077F8204600F01CF90020207672
:1018900020680069C0F30010D8B12068C068C0F3A8
:1018A0000010B0B16FF010002168086108202076A8
:1018B0002068C06900F4407018B12046FFF782FF2D
:1018C00005E0204600F056F8204600F0FBF8002026
:1018D00020762068006900F0010058B12068C068D7
:1018E00000F0010030B16FF001002168086120466E
:1018F00000F046F920680069C0F3801058B12068F4
:10190000C068C0F3801030B16FF0400021680861FA
:10191000204600F083F910BD10B586B004461421AE
:1019200001A8FEF74DFC2068B0F1804F1BD100BF2D
:101930000E48006840F001000C4908600846006845
:1019400000F00100009000BF00BF012001900220C4
:10195000029000200390032004900120059001A92B
:101960000348FEF7B5FE06B010BD00001C3802406B
:1019700000000240704770B504460D46164600BF91
:1019800094F83800012801D1022070BD012084F8AC
:10199000380000BF36B1042E1BD0082E31D00C2EDB
:1019A0005ED145E02946206800F037FE2068806956
:1019B00040F00800216888612068806920F00400F8
:1019C0002168886120688069E96808432168886126
:1019D00047E02946206800F038FE2068806940F41E
:1019E0000060216888612068806920F48060216837
:1019F000886120688069E96840EA0120216888617F
:101A00002FE02946206800F03AFE2068C06940F0C7
:101A100008002168C8612068C06920F004002168BE
:101A2000C8612068C069E96808432168C86118E096
:101A30002946206800F03CFE2068C06940F4006040
:101A40002168C8612068C06920F480602168C8618D
:101A50002068C069E96840EA01202168C86100E0A7
:101A600000BF00BF00BF002084F8380000BF00BFE7
:101A70008BE710B504460CB9012010BD94F839006D
:101A800028B9002084F83800204600F01AF8022017
:101A900084F83900211D206800F05EFD012084F8E3
:101AA0003E0000BF84F83A0001213B2001553C2054
:101AB00001553D20015500BF012084F83900002068
:101AC000DBE770477047000070B504460D4615B956
:101AD00094F83A000BE0042D02D13B20005D06E0B3
:101AE000082D02D13C20005D01E03D20005D012871
:101AF00001D0012070BD1DB9022084F83A000EE02B
:101B0000042D03D102213B20015508E0082D03D10B
:101B100002213C20015502E002213D200155012215
:101B20002946206800F054FD2068B0F1804F0BD0AA
:101B300010492068884207D00F492068884203D0A6
:101B40000E49206888420CD12068806800F00706A2
:101B5000062E0CD02068006840F001002168086063
:101B600005E02068006840F001002168086000205E
:101B7000C0E70000000400400008004000080140E9
:101B80002DE9F04704461F492068884237D11E4896
:101B90000078012833D11D480068C0F3CF051C48E8
:101BA0000078801CC006060EDFF868804FF0000940
:101BB00016480068B0421CD2002718F805001349E7
:101BC000097801F00701C1F1070140FA01F909F0B4
:101BD00001070FB1012000E0002002464FF4004150
:101BE0000D48FEF75DFE09480068401C0749086083
:101BF00004E00020054908600349087000BFBDE803
:101C0000F087000000080040400000205C00002039
:101C10004100002044020020000402407047704749
:101C20002DE9F0470446206805682068C6682068EA
:101C300047694FF00008C14605F00F08B8F1000FE2
:101C40000AD105F0200038B106F0200020B120466E
:101C500000F099FDBDE8F087B8F1000F72D007F0F1
:101C6000010018B906F4907000286BD005F001004F
:101C700030B106F4807018B1E06B40F00100E06311
:101C800005F0040030B107F0010018B1E06B40F03E
:101C90000200E06305F0020030B107F0010018B166
:101CA000E06B40F00400E06305F0080048B106F086
:101CB000200010B907F0010018B1E06B40F00800F7
:101CC000E063E06B70B305F0200028B106F020005F
:101CD00010B1204600F057FD20684069C0F380191C
:101CE000E06B00F0080010B9B9F1000F23D02046D6
:101CF00000F029FD2068406900F04000402816D11E
:101D00002068406920F0400021684861606B50B154
:101D10001748616B4863606BFEF787FC10B1606B1E
:101D2000416B88470CE02046FFF779FF08E020462A
:101D3000FFF775FF04E02046FFF771FF0020E06326
:101D400088E7FFE705F0800030B106F0800018B1A9
:101D5000204600F043FE7DE705F0400030B106F07C
:101D6000400018B1204600F0FEFC73E700BF71E7A9
:101D70003327000810B504460CB9012010BDA06936
:101D800000B100E000BF94F8390028B9002084F8C1
:101D90003800204600F028F8242084F83900206814
:101DA000C06820F400502168C860204600F03EFD65
:101DB0002068006920F4904021680861206840692B
:101DC00020F02A00216848612068C06840F4005073
:101DD0002168C8600020E063202084F8390084F87E
:101DE0003A000020CAE7000010B586B0044614216E
:101DF00001A8FEF7E5F91C492068884232D100BFEE
:101E00001A48006840F48040184908600846006895
:101E100000F48040009000BF00BF00BF081F0068B2
:101E200040F00100091F08600846006800F001004A
:101E3000009000BF00BF4FF4C060019002200290EC
:101E400000200390032004900720059001A9084872
:101E5000FEF73EFC002211462520FEF7B3FD2520AB
:101E6000FEF7A0FD06B010BD00380140203802404A
:101E70000000024010B5034693F83A0020282FD105
:101E800001B10AB9012010BD00BF93F83800012844
:101E900001D10220F7E7012083F8380000BF9962E2
:101EA0009A85DA850020D863222083F83A0000BFA3
:101EB000002083F8380000BF1868C06840F48070C4
:101EC0001C68E0601868406940F001001C686061AF
:101ED0001868C06840F020001C68E0600020D2E76D
:101EE0000220D0E70349884202D10121024A117041
:101EF00070470000F00100203F0000202DE9F8436A
:101F000004460D4616461F464FF0000994F8390066
:101F100020285DD105B116B90120BDE8F88300BFC6
:101F200094F83800012801D10220F6E7012084F856
:101F3000380000BF0020E063212084F83900FEF75C
:101F4000B5FC8146A684E68400BF002084F83800F2
:101F500000BF2BE0E08C401EE084A068B0F5805FFD
:101F600016D14B46002280212046009700F06AFDE2
:101F700008B10320D1E7A846B8F80000C0F3080074
:101F800021684860206908B9AD1C0FE06D1C0DE0A8
:101F90004B46002280212046009700F053FD08B1F7
:101FA0000320BAE715F8010B21684860E08C00288F
:101FB000D0D14B46002240212046009700F042FD40
:101FC00008B10320A9E7202084F839000020A4E705
:101FD0000220A2E7704700BFFEE7000000B587B00F
:101FE000142102A8FEF7ECF800BF6048006840F03A
:101FF00020005E4908600846006800F0200001905B
:1020000000BF00BF00BF0846006840F00100086044
:102010000846006800F00100019000BF00BF00BF4B
:102020000846006840F0020008600846006800F0BA
:102030000200019000BF00BF002248F602014C4898
:10204000FEF72EFC01224FF488714948FEF728FC68
:10205000012202214748FEF723FC00224FF204111F
:102060004448FEF71DFC48F2020002900120039054
:10207000002004900320059002A93D48FEF728FBAC
:102080000C20029000200390049002A93848FEF72B
:102090001FFB4FF4887002900120039004900220EF
:1020A000059002A93248FEF713FB01200290324846
:1020B00003900020049002A92E48FEF709FB02209D
:1020C00002900120039004900220059002A9294863
:1020D000FEF7FEFA042002900120039000200490F5
:1020E000059002A92348FEF7F3FA4FF471400290DD
:1020F00001200390002004900320059002A91D48B0
:10210000FEF7E6FA4FF400600290012003900220EF
:1021100004900320059002A91548FEF7D9FA4FF460
:1021200080500290144803900020049002A91048A7
:10213000FEF7CEFA4FF40E70029000200390049048
:1021400002A90C48FEF7C4FA002211460620FEF749
:1021500039FC0620FEF726FC002211462820FEF757
:1021600031FC2820FEF71EFC07B000BD1C380240E1
:1021700000000240000402400000111010B50E489B
:102180000E4908604FF48270486000210B4881605E
:10219000C160016141614FF4007181610821C16139
:1021A00000210162416281620A21C162FFF7CAF81F
:1021B00008B1FEF739FA10BD003001409800002048
:1021C00000B58BB000200790089009900A90059008
:1021D000069001900290039004904FF080402049B7
:1021E00008600020486000211D4881600121C16015
:1021F0000021016180214161FFF798F908B1FEF7E4
:1022000013FA4FF48050079007A91548FFF756FAC4
:1022100008B1FEF709FA1248FFF72BFC08B1FEF7E8
:1022200003FA00200590069005A90D48FFF73CF938
:1022300008B1FEF7F9F9602001900120029000201A
:1022400003900490002201A90548FFF794FB08B110
:10225000FEF7EAF90248FFF75FFB0BB000BD000094
:10226000F000002000B587B0002003900490059096
:1022700006900190029014481449086003204860B9
:102280000021124881600521C16000210161416186
:10229000FFF74CF908B1FEF7C7F94FF480500390EF
:1022A00003A90A48FFF70AFA08B1FEF7BDF90020B2
:1022B0000190029001A90548FFF7F6F808B1FEF772
:1022C000B3F907B000BD0000000400403001002059
:1022D00000B587B00020039004900590069001900F
:1022E00002901548154908601F20486000211348D6
:1022F000816040F2E731C1600021016180214161CC
:10230000FFF714F908B1FEF78FF94FF480500390EE
:1023100003A90A48FFF7D2F908B1FEF785F90020B2
:102320000190029001A90548FFF7BEF808B1FEF739
:102330007BF907B000BD00000008004070010020DC
:102340001CB50020009001900E480F49086017202E
:10235000486000210C48816040F2E731C1600021F3
:102360004161FFF7E3F808B1FEF75EF90020009045
:10237000019069460448FFF797F808B1FEF754F951
:102380001CBD000000100040B001002010B50B483B
:102390000B4908604FF416504860002108488160DE
:1023A000C16001610C21416100218161C161FFF7C0
:1023B000E1FC08B1FEF738F910BD0000003801401B
:1023C000F001002000BFFEE77047704718B50346D4
:1023D00000222548006800F0F00050BB22481C3065
:1023E000006800F0805020B12048006800F4C0511F
:1023F00018E000BF1C481C30006840F080501A4CA8
:102400001C3420602046006800F08050009000BF1F
:1024100000BF1648006800F4C0512046006820F054
:1024200080502060B1F5C05F03D1B3F5404F00D1BB
:10243000012200BF012A05D10D48006840F00400C8
:102440000B4C20600A48006820F001001043084C43
:10245000206000BF2046006800F00100904201D0DB
:10246000012018BD0020FCE7083802400070004041
:10247000003C02407047000010B504480068401C52
:1024800002490860FEF718FA10BD00006C00002039
:1024900000B593B0342106A8FDF792FE142101A8DF
:1024A000FDF78EFE1548006820F4C05040F400602F
:1024B0001249086001200690079002200F90C10386
:1024C00010914FF4402111914105129106A8FEF799
:1024D00051FC08B1FEF7A8F80F20019003200290EC
:1024E0000020039004900590012101A8FEF7BCFA9A
:1024F00008B1FEF799F813B000BD0000007000406D
:102500004FF00060014908607047000008ED00E0EE
:1025100010B50A480068401C084908600846006871
:102520004FF47A71B0FBF1F201FB120010B90120F7
:10253000034908700348FFF746F910BD600000200A
:10254000080000207001002010B50248FFF73BF999
:1025500010BD0000B001002010B50268B0F1804F3E
:1025600005D0164B984202D0154B984203D122F069
:1025700070024B681A43B0F1804F0ED00F4B984257
:102580000BD00F4B984208D00E4B984205D00E4B03
:10259000984202D00D4B984203D122F44072CB688E
:1025A0001A4322F080030C6943EA040202608B683C
:1025B000C3620B6883620123436110BD00040040C5
:1025C0000008004000080140000C014000100140DC
:1025D00030B501F01F05012404FA05F3046A9C4399
:1025E0000462046A01F01F0502FA05F52C43046237
:1025F00030BD30B50C46816821F47F4142EA0325A5
:1026000025432943816030BD0A46816821F070016D
:1026100042F0070319438160704730B5056A25F021
:1026200001050562036A4468826922F0700222F0A3
:1026300003020D682A4323F002038D682B43446094
:1026400082614D684563036230BD30B5056A25F08F
:1026500010050562036A4468826922F4E04222F4AC
:1026600040720D6842EA052223F020038D6843EA98
:102670000513446082614D688563036230BD30B5E7
:10268000056A25F480750562036A4468C26922F010
:10269000700222F003020D682A4323F400738D6850
:1026A00043EA05234460C2614D68C563036230BDDF
:1026B00030B5056A25F480550562036A4468C2692D
:1026C00022F4E04222F440720D6842EA052223F42B
:1026D00000538D6843EA05334460C2614D68056468
:1026E000036230BD30B50B461446026A056A25F018
:1026F00001050562816921F0F00141EA041122F02F
:102700000A021A438161026230BD30B50B4614469D
:10271000056A25F0100505628169026A21F470419D
:1027200041EA043122F0A00242EA0312816102620E
:1027300030BD70B505466C6A0020E085E084204617
:10274000FFF76DFA70BD0168C96821F490710268E5
:10275000D1600168496921F00101026851612021BD
:1027600080F83A10704710B504462068C06820F021
:1027700040002168C860202084F839002046FFF717
:1027800029FC002010BD70B5044694F83A002228B8
:102790004AD1A068B0F5805F13D1A56A206940B91D
:1027A00020684068C0F308002880A06A801CA062EE
:1027B00019E020684068C0B22880A06A401CA0626E
:1027C00011E0206938B920684068C1B2A26A501C83
:1027D000A062117007E02068406800F07F01A26AE3
:1027E000501CA0621170E08D401E80B2E085C8B917
:1027F0002068C06820F020002168C8602068C06898
:1028000020F480702168C8602068406920F00100D1
:1028100021684861202084F83A002046FFF762FBD7
:10282000002070BD0020FCE70220FAE770B50446E6
:102830002168096921F44051E2681143226811615D
:102840002269A168114362691143E26941EA020504
:102850002168C96849F20C62914329432268D1601A
:102860002168496921F44071A269114322685161CC
:10287000594A2168914202D1FEF71CFA01E0FEF7A5
:1028800009FAE169B1F5004F53D100EBC00101EB4A
:10289000001162685200B1FBF2F16422B1FBF2F167
:1028A0000A0100EBC00101EB001163685B00B1FBA2
:1028B000F3F100EBC00303EB001366687600B3FB93
:1028C000F6F36426B3FBF6F303EBC30606EB031340
:1028D000A1EB8301322303EBC1016423B1FBF3F1CC
:1028E00001F0F80102EB410200EBC00101EB001125
:1028F00063685B00B1FBF3F100EBC00303EB001373
:1029000066687600B3FBF6F36426B3FBF6F303EBDD
:10291000C30606EB0313A1EB8301322303EBC101D2
:102920006423B1FBF3F101F00701114422689160C7
:1029300051E000EBC00101EB001162689200B1FBB5
:10294000F2F100EBC00202EB001263689B00B2FBE5
:10295000F3F26423B2FBF3F202EBC20303EB0212C5
:10296000A1EB8201322202EB01116422B1FBF2F1F0
:1029700001F0F00100EBC00202EB001263689B0063
:10298000B2FBF3F26423B2FBF3F201EB021200EBB1
:10299000C00101EB001163689B00B1FBF3F100EB98
:1029A000C00303EB00136668B600B3FBF6F36426BE
:1029B000B3FBF6F303EBC30606EB0313A1EB8301B2
:1029C000322303EB01116423B1FBF3F101F00F019A
:1029D00011442268916070BD00380140014691F8B1
:1029E000390021282CD18868B0F5805F0FD10A6AA0
:1029F0001088C0F308000B685860086918B9086AA5
:102A0000801C086209E0086A401C086205E00B6A45
:102A1000581C086218780B685860C88C401E80B239
:102A2000C88458B90868C06820F080000B68D86076
:102A30000868C06840F040000B68D860002070470C
:102A40000220FCE72DE9F04104460D461746984662
:102A5000069E21E0701CF8B12EB1FDF727FFA0EB18
:102A60000800B04218D92068C06820F4D0702168EE
:102A7000C8602068406920F001002168486120207A
:102A800084F8390084F83A0000BF002084F8380048
:102A900000BF0320BDE8F081206800682840A842FC
:102AA00001D1012000E00020B842D3D00020F1E79E
:102AB00010B50248FFF7B4F810BD0000F001002087
:102AC00000BFFEE702480068C0F302207047000024
:102AD0000CED00E010B5002804DB0A07130E054AD0
:102AE000135406E00A07140E034A00F00F031B1FDD
:102AF000D45410BD00E400E018ED00E002E008C886
:102B0000121F08C1002AFAD170477047002001E067
:102B100001C1121F002AFBD1704700001FB5FDF74D
:102B2000D7FEFFF7B5FCFFF759FAFFF727FBFFF7D2
:102B30002DFCFFF797FBFFF7CBFBFFF701FCFFF73F
:102B40003FFB2648FDF747FB84B24FF6FF73224652
:102B500022492348FFF7D2F9072222492048FFF7EC
:102B600089F92148FEF76EFD00212048FEF7ACFFF1
:102B70004FF4FA60FDF788FDFDF75AFC42F2282079
:102B8000FDF78CFC1A490020FDF7A8FC194901202B
:102B9000FDF7A4FC20E018A103C9CDE90201002043
:102BA00000900190DDE90201CDE9000114480078B0
:102BB00088B922211348FDF703FB06236A46222128
:102BC000104800F023F8104908703220FDF75CFD32
:102BD00001200B49087000BFDDE700001000002055
:102BE000F00100203600002070010020F0000020DD
:102BF000D0DD060020A107007478746573740000AE
:102C00004000002044020020410000202DE9F04354
:102C100087B005460E4617469846B8F1060F01D113
:102C2000112E03DA002007B0BDE8F0832C46AA225B
:102C300005212046FDF7BDFA641D1C480690BDF82D
:102C4000180020809DF81A00A070E41C1422184976
:102C500001A8FDF79CFA3868CDF80500B888ADF8F2
:102C60000900072101A8FDF7A9FC4FEA1029072157
:102C700001A8FDF7A3FCC0B249EA0020069001A814
:102C8000BDF81810ADF80B100DF10D02092100F080
:102C900011F8DDF80D002060DDF8110060609DF88E
:102CA000150020720934601BC0B2BCE7C194C1009A
:102CB000F02C000830B504460B46122B02D94FF019
:102CC000FF3030BD002100BF06E0605C044D6D5C4C
:102CD00068405054481CC1B29942F6DB0020F0E72E
:102CE00042000020313233340035363738000000DE
:102CF00006000000000000000000000000000000CE
:102D00000000030406080C1018203000000000002A
:102D1000000000010203040607080900000000018A
:102D200002030400442D000800000020840000007D
:102D3000FC2A0008C82D000884000020E4050000DB
:102D40000C2B000812000100000000000000000031
:102D50000000000034333330303000000000000049
:102D600000000000000068656C6C6F206675636B86
:102D700020776F726C640000000031313131310016
:102D8000000000000000FF87B859B7A1CC24575EAF
:102D90004B9C0EE9EA502ABE000000000000000033
:102DA0000000000000000000010203040506070007
:102DB0000000000000000000000000001000000003
:082DC0000100000068FF1F0084
:04000005080000F5FA
:00000001FF
