:020000040800F2
:10000000C80400200901000861170008E515000870
:100010005D17000815020008DB1A00080000000048
:100020000000000000000000000000004B18000865
:100030001902000800000000631700084D180008AE
:100040002301000823010008230100082301000800
:1000500023010008230100082301000823010008F0
:1000600023010008230100082301000823010008E0
:1000700023010008230100082301000823010008D0
:1000800023010008230100082301000823010008C0
:1000900023010008230100082301000823010008B0
:1000A00023010008230100082301000823010008A0
:1000B0002301000823010008230100082301000890
:1000C0002301000823010008230100082301000880
:1000D0002301000823010008230100082301000870
:1000E0002301000823010008230100082301000860
:1000F00023010008DFF80CD000F07AF80048004730
:10010000391B0008C80400200648804706480047FD
:10011000FEE7FEE7FEE7FEE7FEE7FEE7FEE7FEE7B7
:10012000FEE7FEE7F1180008F50000082DE9F05F92
:100130000546002092469B46884606468146402456
:100140001BE0284641464746224600F041F8534608
:100150005A46C01A914110D311461846224600F063
:1001600028F82D1A67EB01084F462246012000218E
:1001700000F01FF817EB00094E41201EA4F1010406
:10018000DFDC484631462A464346BDE8F09FD2B2FE
:1001900001E000F8012B491EFBD270470022F6E770
:1001A00010B513460A4604461946FFF7F0FF2046ED
:1001B00010BD202A04DB203A00FA02F1002070472B
:1001C0009140C2F1200320FA03F319439040704795
:1001D000202A04DB203A21FA02F00021704721FA9C
:1001E00002F3D040C2F12002914008431946704703
:1001F000064C074D06E0E06840F0010394E8070074
:1002000098471034AC42F6D3FFF778FF901B0008F4
:10021000B01B000800BFFEE77047704770B504468A
:1002200000F0F8F806462546681C10B1044800683E
:10023000054400BF00F0EEF8801BA842FAD370BD61
:100240001C00002078B50346002200240020CAE0EC
:10025000012696400D6805EA0604002C71D04D6811
:10026000012D08D04D68022D05D04D68112D02D00A
:100270004D68122D13D1986856000325B540A84348
:100280005600CD68B54028439860586801259540D0
:10029000A8430D79C5F30015954028435860D868E8
:1002A00056000325B540A84356008D68B540284345
:1002B000D8604D68022D02D04D68122D13D1D6089A
:1002C00003F1200555F826005507EE0E0F25B54021
:1002D000A8435607F60E0D69B5402843D60803F12A
:1002E000200545F82600186856000325B540A843A8
:1002F0000D7905F003055600B540284318604D6898
:1003000005F08055B5F1805F6CD100BF394D2D6887
:1003100045F00105374E356035462D6805F001057D
:10032000009500BF00BF344D960855F8260095078C
:100330002E0F0F25B540A843304DAB4202D100250A
:1003400015E04FE02E4DAB4201D101250FE02D4DC0
:10035000AB4201D102250AE02B4DAB4201D103256E
:1003600005E02A4DAB4201D1042500E005259607A2
:10037000360FB5402843204D960845F82600244DF9
:100380002868A0434D6805F48035B5F5803F00D15D
:1003900020431F4D28602D1D2868A0434D6805F49B
:1003A0000035B5F5003F00D12043194D2D1D2860C3
:1003B0002D1D2868A0434D6805F48015B5F5801FF4
:1003C00000D12043124D083528602D1D2868A04318
:1003D0004D6805F40015B5F5001F00D120430C4D04
:1003E0000C352860521C0D68D540002D7FF430AFCD
:1003F00078BD0000203802400800014000000240A3
:100400000004024000080240000C024000100240BC
:1004100000040140014800687047000014000020FB
:1004200003480068034909680844014908607047A7
:10043000140000201C00002010B50024032000F050
:10044000A3F8002000F008F808B1012401E000F052
:100450002FF8204610BD000070B504460025114855
:100460000068D8B10F4800684FF47A71B1FBF0F022
:100470000D490968B1FBF0F6304600F039FE58B975
:10048000102C07D200222146501E00F03FF80748EA
:10049000046004E0012502E0012500E00125284672
:1004A00070BD00001C00002020000020180000206B
:1004B00008B500BF1448006840F0004012490860C9
:1004C0000846006800F00040009000BF00BF00BF79
:1004D000081F006840F00100091F08600846006816
:1004E00000F00100009000BF00BF00BF081D0068C1
:1004F00040F08050091D08600846006800F08050F8
:10050000009000BF00BF08BD243802402DE9F05F15
:1005100080460D461646002701F0E2FA07463946A6
:100520002A46334601F00700C0F1070ABAF1040F6A
:1005300002D94FF0040A01E0C0F1070AD14600F1E8
:10054000040ABAF1070F02D24FF0000A01E0A0F14D
:10055000030AD4464FF0010A0AFA09FAAAF1010A7D
:100560000AEA020A0AFA0CFA4FF0010B0BFA0CFB2A
:10057000ABF1010B0BEA030B4AEA0B0421464046A0
:1005800001F0B6FABDE8F09F00BF00F00702064B8D
:1005900019684FF6FF031940044B0B4343EA02214D
:1005A000014B196000BF70470CED00E00000FA0538
:1005B0000120810291FAA1F1B1FA81F1014A42F8D8
:1005C0002100704700000E420120410291FAA1F182
:1005D000B1FA81F1014A42F82100704700000E4251
:1005E000F8B50446207800F0010020B9207800F02A
:1005F000020002287ED1207800F0010000B100BF87
:10060000207800F00200022800D100BF00275E48D9
:10061000006800F0805070B900BF5B48006840F08F
:100620008050594908600846006800F080500090EA
:1006300000BF00BF01275548006800F48070B0B9C2
:100640005248006840F4807050490860FFF7E2FEAD
:10065000064606E0FFF7DEFE801B642801D9032072
:10066000F8BD4A48006800F480700028F2D046487F
:100670002438006800F0C045606800F0C040A8421F
:1006800004D1A06800F0C040A8420FD0606800F418
:100690004030B0F5403F09D13B482438006800F4B1
:1006A0000030B0F5003F01D10120D9E736481030C5
:1006B000006800F440359DB3606800F44030A84203
:1006C00003D0207800F0010048B9A06800F4403061
:1006D000A8422DD0207800F00200022828D12A4814
:1006E0001030006820F440350120294908600020BE
:1006F000086000E045E024481030056005F4807093
:10070000B0F5807F14D1FFF785FE064609E0FFF7BC
:1007100081FE801B41F28831884202D903209FE785
:1007200006E019481030006800F400700028EED090
:1007300000BF00BF606800F44030B0F5403F0BD10F
:1007400011482438006820F0C040616801F0C041C1
:1007500008430D492439086000BF0B481030006879
:10076000616801F44031084307491031086000BF57
:10077000012F05D10448006820F08050024908602C
:1007800000BF00206CE700002438024000700040E9
:10079000DC0647422DE9F04104460D4614B901201C
:1007A000BDE8F0817E48006800F00100A84218D240
:1007B00000BF012D05D17A48006840F00400784957
:1007C00008607748006820F00100284374490860F9
:1007D00000BF0846006800F00100A84201D00120D7
:1007E000DEE7207800F00200022807D16D4800689B
:1007F00020F0F000A16808436A490860207800F002
:10080000010000287FD06068022807D165480838B9
:10081000006800F40030F8B90120C1E760680328DF
:1008200007D160480838006800F00070A0B90120C6
:10083000B6E76068012807D15A480838006800F018
:10084000020048B90120ABE756480838006800F4B8
:10085000007008B90120A3E75248006820F00300A7
:10086000616808434F490860FFF7D4FD0646606899
:10087000022810D108E0FFF7CDFD801B41F288313E
:10088000884201D903208BE74648006800F00C003D
:100890000828F0D137E06068032810D108E0FFF79E
:1008A000B9FD801B41F28831884201D9032077E7E6
:1008B0003C48006800F00C000C28F0D123E0606890
:1008C000012810D108E0FFF7A5FD801B41F2883117
:1008D000884201D9032063E73248006800F00C0029
:1008E0000428F0D10FE008E0FFF794FD801B41F2EF
:1008F0008831884201D9032052E72A48006800F075
:100900000C000028F0D12648006800F00100A84241
:1009100018D900BF012D05D12148006840F004001E
:100920001F4908601E48006820F0010028431C4948
:10093000086000BF0846006800F00100A84201D02E
:1009400001202DE7207800F00400042807D1154885
:10095000006820F4E060E1680843124908602078EC
:1009600000F00800082808D10E48006820F4605004
:10097000216940EAC1000B49086000F01BF80949F1
:100980000968C1F30311084A515CC840074908606F
:1009900007480068FFF760FD0746384600E700009B
:1009A000003C024008380240751B0008200000206F
:1009B000180000202DE9F05F2248D0F8009009F0DF
:1009C0000C0070B3042804D0082804D00C2829D1C6
:1009D00003E01D4D32E01D4D30E01D48C9F3834159
:1009E00010F801A0C9F38150441C1648006800F4B7
:1009F000803050B11548A0FB0A7001462246002302
:100A00003846FFF793FB064609E00F48A0FB0A7043
:100A10000146224600233846FFF788FB0646354646
:100A20000CE000E000BF0748001F0068C0F3423B35
:100A30000BF1010001218140CD0300BF00BF28461A
:100A4000BDE8F09F083802400024F40000127A004C
:100A50006C1B00082DE9F843044614B90120BDE8D9
:100A6000F883FE48006800F00C06FC48006800F4BB
:100A70008037207800F00100002875D0082E04D0BF
:100A80000C2E0ED1B7F5803F0BD1F4480838006822
:100A900000F40030002867D06068002864D101208D
:100AA000DDE700BF6068012808D1EC48083800681D
:100AB00040F48030E949083908602DE0606868B981
:100AC000E6480838006820F48030E44908390860B6
:100AD0000846006820F4802008601DE06068052852
:100AE0000DD1DE480838006840F48020DB49083921
:100AF00008600846006840F4803008600CE0D74881
:100B00000838006820F48030D44908390860084665
:100B1000006820F48020086000BF606890B1FFF793
:100B200079FC054606E0FFF775FC401B642801D9F7
:100B3000032094E7C9480838006800F40030002812
:100B4000F1D011E0FFF766FC054606E0FFF762FC16
:100B5000401B642801D9032081E7C0480838006899
:100B600000F400300028F1D1207800F002000228C3
:100B700053D1042E02D00C2E17D1B7B9B74808387C
:100B8000006800F0020020B1E068012801D00120D7
:100B900065E7B248001F006820F4F850216940EA78
:100BA0000120AE49091F086037E0E06800B301206A
:100BB000AB490860FFF72EFC054606E0FFF72AFC6C
:100BC000401B022801D9032049E7A44808380068DF
:100BD00000F002000028F1D0A048001F006820F4B7
:100BE000F850216940EA01209C49091F086014E07F
:100BF00000209B490860FFF70DFC054606E0FFF763
:100C000009FC401B022801D9032028E79348083833
:100C1000006800F002000028F1D1207800F01000F8
:100C2000102871D1F6BB8D480838006800F40070B8
:100C300018B1A06908B9012011E78849091F206A85
:100C4000096801F46041884219D9206A00F08AFDE0
:100C500008B1012003E78148001F006820F46040CC
:100C6000216A08437D49091F0860217F7B48001FD6
:100C7000006861F31F607949091F08601AE077482E
:100C8000001F006820F46040216A08437349091F6F
:100C90000860217F7148001F006861F31F606F4981
:100CA000091F00E020E00860206A00F05BFD08B149
:100CB0000120D4E60121206A01EB50310120884057
:100CC000C00366490968C1F30311664A515CC84014
:100CD0006549086065480068FFF7BEFB8046B8F1CB
:100CE000000F42D04046BAE6A06948B301205C49F3
:100CF0000862FFF78FFB054607E0FFF78BFB401B01
:100D0000022802D90320AAE62FE0544808380068D8
:100D100000F400700028F0D05048001F006820F454
:100D20006040216A08434D49091F0860217F4B48F4
:100D3000001F006861F31F604849091F086014E044
:100D4000002047490862FFF765FB054606E0FFF70C
:100D500061FB401B022801D9032080E63F48083888
:100D6000006800F400700028F1D1207800F008003D
:100D700008282CD16069A8B101203D490860FFF71F
:100D800049FB054606E0FFF745FB401B022801D959
:100D9000032064E631482C30006800F0020000288F
:100DA000F1D014E0002032490860FFF733FB05461C
:100DB00006E0FFF72FFB401B022801D903204EE677
:100DC00026482C30006800F002000028F1D120787D
:100DD00000F0040004286ED14FF000091F481C30B9
:100DE000006800F0805088B900BF1C481C300068C3
:100DF00040F0805019491C3108600846006800F036
:100E00008050009000BF00BF4FF0010919480068F2
:100E100000F48070B0B91748006840F4807015493C
:100E20000860FFF7F7FA054606E0FFF7F3FA401B04
:100E3000642801D9032012E60E48006800F480708F
:100E40000028F2D000BFA068012817D103482C3039
:100E5000006840F4807001492C310DE008380240F0
:100E600000004742751B00082000002018000020E9
:100E70008006474200700040086028E0A06858B92A
:100E80006648006820F4807064490860084600687D
:100E900020F4806008601AE0A06805280CD15F4843
:100EA000006840F480605D4908600846006840F4CE
:100EB000807008600BE040E05848006820F48070C3
:100EC000564908600846006820F48060086000BF4A
:100ED000A06898B1FFF79EFA054608E0FFF79AFA76
:100EE000401B41F28831884201D90320B7E54B48C5
:100EF000006800F400700028F0D012E0FFF78AFAD2
:100F0000054608E0FFF786FA401B41F28831884227
:100F100001D90320A3E54148006800F400700028CF
:100F2000F0D1B9F1010F07D13C481038006820F02A
:100F300080503A491039086000BF606AA8B30C2E8F
:100F400052D0606A022839D1002035490866FFF77F
:100F500061FA054606E0FFF75DFA401B022801D959
:100F600003207CE52D483438006800F0007000282C
:100F7000F1D1D4E90A010843216B084327492C39F0
:100F8000096821F47D01084324492C3908600120B7
:100F900023490866FFF73EFA054607E0FFF73AFAED
:100FA000401B022802D9032059E535E01B4834389C
:100FB000006800F000700028F0D02DE000201849F3
:100FC0000866FFF727FA054606E0FFF723FA401BFD
:100FD000022801D9032042E510483438006800F0A7
:100FE00000700028F1D117E0606A012800D136E5D1
:100FF0000A482C38076807F48031A06A814209D179
:1010000007F47011E06A814204D107F44001206BBB
:10101000814201D0012022E5002020E53438024041
:101020000000474210B504460CB9012010BD607F96
:1010300020B900202077204600F04EF8022060778B
:1010400000BFCA202168486253202168486200BF5F
:10105000204600F0DBFB40B100BFFF202168486262
:1010600000BF042060770120E0E72068806819490C
:101070000840216888602169606808436169084305
:10108000216889680843216888602168E0680861F0
:1010900020680169208941EA0040216808612068D0
:1010A000C06820F080002168C8602068006C20F4CF
:1010B0008020216808642068006CA16908432168C9
:1010C000086400BFFF202168486200BF01206077EC
:1010D0000020ABE7BFFF8FFF034A0168914202D1B6
:1010E0000121024A1160704700280040D80647429B
:1010F00070B504462546681EB0F1807F01D30120FB
:101100000FE0681E4FF0E02148610F214FF0FF30E3
:1011100000F0EEFC00204FF0E0218861072008611C
:10112000002070BD30B502460B4600BF92F8380073
:10113000012801D1022030BD012082F8380000BF13
:10114000022082F83900106844681068816824F031
:10115000700418680443106844601068B0F1804F50
:101160000BD00E4D1068A84207D00D4D1068A84254
:1011700003D00C4D1068A84205D121F080015868B9
:10118000014310688160012082F8390000BF00200F
:1011900082F8380000BF00BFCDE700000004004027
:1011A000000800400008014010B504460CB90120B9
:1011B00010BD94F8390028B9002084F83800204682
:1011C00000F01AF8022084F83900211D206800F090
:1011D00097FB012084F83E0000BF84F83A0001210B
:1011E0003B2001553C2001553D20015500BF012009
:1011F00084F839000020DBE708B50168B1F1804FC1
:101200000DD100BF0649096841F00101044A11608F
:101210001146096801F00101009100BF00BF08BD3F
:10122000243802402DE9F04104460D4600BF94F8F1
:101230003800012802D10220BDE8F081012084F8A5
:10124000380000BF022084F839002068866826F044
:10125000770626F47F46206886602868502833D0B9
:101260000CDC202850D004DC00284BD0102851D1B1
:1012700049E0302849D040284CD139E060282DD0B1
:10128000702807D0B0F5805F03D0B0F5005F41D182
:101290000DE040E0D5E902136A68206800F07DFBAC
:1012A0002068866846F077062068866033E0D5E9D6
:1012B00002136A68206800F070FB2068806840F4C0
:1012C00080402168886026E0EA686968206800F04C
:1012D000DDFB5021206800F06BFB1CE0EA686968C8
:1012E000206800F0E6FB6021206800F061FB12E05E
:1012F000EA686968206800F0C9FB4021206800F0B6
:1013000057FB08E000BF00BF00BF2968206800F05D
:101310004FFB00E000BF00BF012084F8390000BF90
:10132000002084F8380000BF00BF85E710B586B004
:101330000446142101A8FEF731FF2068B0F1804F68
:1013400019D100BF0D48006840F001000B4908604A
:101350000846006800F00100009000BF00BF0220B6
:10136000019002900390032004900120059001A9B0
:101370000348FEF767FF06B010BD00001C380240AE
:101380000000024070B504460D46164600BF94F8B2
:101390003800012801D1022070BD012084F83800F6
:1013A00000BF36B1042E1BD0082E31D00C2E5ED1DA
:1013B00045E02946206800F004FB2068806940F081
:1013C0000800216888612068806920F00400216895
:1013D000886120688069E96808432168886147E07E
:1013E0002946206800F005FB2068806940F4006011
:1013F000216888612068806920F4806021688861A4
:1014000020688069E96840EA0120216888612FE04E
:101410002946206800F007FB2068C06940F00800FA
:101420002168C8612068C06920F004002168C86193
:101430002068C069E96808432168C86118E0294646
:10144000206800F009FB2068C06940F40060216852
:10145000C8612068C06920F480602168C861206884
:10146000C069E96840EA01202168C86100E000BF66
:1014700000BF00BF002084F8380000BF00BF8BE72A
:1014800010B504460CB9012010BD94F8390028B9F4
:10149000002084F83800204600F01AF8022084F872
:1014A0003900211D206800F02BFA012084F83E004D
:1014B00000BF84F83A0001213B2001553C20015532
:1014C0003D20015500BF012084F839000020DBE7F2
:1014D0007047000070B504460D4615B994F83A00FF
:1014E0000BE0042D02D13B20005D06E0082D02D167
:1014F0003C20005D01E03D20005D012801D001207D
:1015000070BD1DB9022084F83A000EE0042D03D10D
:1015100002213B20015508E0082D03D102213C2087
:10152000015502E002213D20015501222946206893
:1015300000F022FA2068B0F1804F0BD010492068EB
:10154000884207D00F492068884203D00E4920689E
:1015500088420CD12068806800F00706062E0CD067
:101560002068006840F001002168086005E02068FC
:10157000006840F00100216808600020C0E700001A
:1015800000040040000800400008014070B5044617
:101590000D4600222946206800F0EEF900BF2068C1
:1015A000006A41F21111084028B92068006820F053
:1015B00001002168086000BF1DB9012084F83A00CD
:1015C0000EE0042D03D101213B20015508E0082D38
:1015D00003D101213C20015502E001213D200155AC
:1015E000002070BD00BFFEE700B587B0142102A83F
:1015F000FEF7D4FD00BF1E48006840F020001C49E3
:1016000008600846006800F02000019000BF00BF9D
:1016100000BF0846006840F0010008600846006806
:1016200000F00100019000BF00BF00BF0846006845
:1016300040F0020008600846006800F002000190D7
:1016400000BF00BF4FF400400290002003900490C0
:1016500002A90848FEF7F6FD4FF44E7002900020F4
:101660000390049002A90448FEF7ECFD07B000BD0A
:101670001C380240000002400004024010B5FEF792
:10168000A3FFFEF795FF0A480A490860002048605A
:101690007F2108488160FF21C16000210161416113
:1016A0008161FFF7BFFC08B1FEF7B7FD10BD000078
:1016B000002800403800002000B58BB000200790C3
:1016C000089009900A90059006900190029003906E
:1016D00004904FF0804020490860002048600021BD
:1016E0001D4881600321C1600021016180214161A9
:1016F000FFF75AFD08B1FEF790FD4FF480500790B8
:1017000007A91548FFF78EFD08B1FEF786FD1248C0
:10171000FFF7B6FE08B1FEF780FD002005900690A9
:1017200005A90D48FFF7FEFC08B1FEF776FD602025
:10173000019002200290002003900490042201A94D
:101740000548FFF71FFE08B1FEF767FD0248FFF7E7
:10175000EDFD0BB000BD00005800002000BFFEE70B
:101760007047704718B5034600222548006800F00E
:10177000F00050BB22481C30006800F0805020B1BF
:101780002048006800F4C05118E000BF1C481C301D
:10179000006840F080501A4C1C34206020460068DD
:1017A00000F08050009000BF00BF1648006800F4B1
:1017B000C0512046006820F080502060B1F5C05F25
:1017C00003D1B3F5404F00D1012200BF012A05D15A
:1017D0000D48006840F004000B4C20600A48006887
:1017E00020F001001043084C206000BF2046006834
:1017F00000F00100904201D0012018BD0020FCE75C
:101800000838024000700040003C024070B50446B9
:101810002068C06800F04000A8B94FF0FF30216890
:10182000C860FEF7F7FD054607E0FEF7F3FD401B35
:10183000B0F57A7F01D9032070BD2068C06800F040
:1018400040000028F1D00020F6E7704710B50448AA
:101850000068401C02490860FEF7E2FD10BD000070
:101860000C00002000B595B0342108A8FEF796FCC6
:10187000142103A8FEF792FC002000900190029032
:101880001A48006820F4C05040F40060174908600E
:1018900009200890012009900D9002201190C103A9
:1018A0001291410413914105149108A8FFF7D2F851
:1018B00008B1FEF7B2FC0F20039003200490002033
:1018C000059006900790002103A8FEF763FF08B17A
:1018D000FEF7A3FC01200090400401906846FEF74B
:1018E0007FFE08B1FEF799FC15B000BD0070004006
:1018F0004FF00060014908607047000008ED00E00B
:1019000010B50268B0F1804F05D0164B984202D056
:10191000154B984203D122F070024B681A43B0F184
:10192000804F0ED00F4B98420BD00F4B984208D0EF
:101930000E4B984205D00E4B984202D00D4B984268
:1019400003D122F44072CB681A4322F080030C6961
:1019500043EA040202608B68C3620B68836201235E
:10196000436110BD00040040000800400008014031
:10197000000C01400010014030B501F01F050124AA
:1019800004FA05F3046A9C430462046A01F01F052B
:1019900002FA05F52C43046230BD30B50C4681686F
:1019A00021F47F4142EA032525432943816030BD6C
:1019B0000A46816821F0700142F0070319438160F3
:1019C000704730B5056A25F001050562036A446871
:1019D000826922F0700222F003020D682A4323F08C
:1019E00002038D682B43446082614D684563036246
:1019F00030BD30B5056A25F010050562036A4468FC
:101A0000826922F4E04222F440720D6842EA052223
:101A100023F020038D6843EA0513446082614D681A
:101A20008563036230BD30B5056A25F480750562B3
:101A3000036A4468C26922F0700222F003020D6852
:101A40002A4323F400738D6843EA05234460C2618E
:101A50004D68C563036230BD30B5056A25F4805515
:101A60000562036A4468C26922F4E04222F44072CB
:101A70000D6842EA052223F400538D6843EA0533DA
:101A80004460C2614D680564036230BD30B50B46E9
:101A90001446026A056A25F001050562816921F094
:101AA000F00141EA041122F00A021A438161026244
:101AB00030BD30B50B461446056A25F010050562A9
:101AC0008169026A21F4704141EA043122F0A002E6
:101AD00042EA03128161026230BD00BFFEE70000EE
:101AE00002480068C0F30220704700000CED00E0DF
:101AF00010B5002804DB0A07130E054A135406E04C
:101B00000A07140E034A00F00F031B1FD45410BD24
:101B100000E400E018ED00E002E008C8121F08C170
:101B2000002AFAD170477047002001E001C1121F5E
:101B3000002AFBD170470000FEF77EFCFFF792FE03
:101B4000FFF752FDFFF7B8FDFFF798FD04210648A7
:101B5000FFF7C0FC0A20FEF761FB04210248FFF7F3
:101B600015FD00BFFEE70000580000200304060832
:101B70000C101820300000000000000000010203DB
:101B80000406070809000000000102030400000029
:101B9000B01B00080000002024000000181B0008F3
:101BA000D41B000824000020A4040000281B000807
:101BB0000000000001020304050607000000000009
:101BC0000000000000000000100000000100000004
:041BD00068FF1F008B
:04000005080000F5FA
:00000001FF
