:020000040800F2
:100000006809002009010008CD29000827260008FA
:10001000C9290008D5090008114A0008000000009D
:10002000000000000000000000000000192D000882
:100030002D0A000800000000ED2A0008D94300083E
:100040002301000823010008230100082301000800
:1000500023010008230100082F0A000823010008DB
:1000600023010008230100082301000823010008E0
:1000700023010008230100082301000823010008D0
:1000800023010008230100082301000823010008C0
:1000900023010008230100082301000823010008B0
:1000A00023010008230100082301000823010008A0
:1000B00023010008230100087144000823010008FF
:1000C0002301000823010008230100082301000880
:1000D00023010008014A0008230100082301000849
:1000E000390A000823010008230100082301000841
:1000F00023010008DFF80CD000F06AFB004800473D
:10010000F54B00086809002006488047064800476C
:10011000FEE7FEE7FEE7FEE7FEE7FEE7FEE7FEE7B7
:10012000FEE7FEE761440008F50000082DE9F05FF6
:100130000546002092469B46884606468146402456
:100140001BE0284641464746224600F066FA5346E1
:100150005A46C01A914110D311461846224600F063
:100160004DFA2D1A67EB01084F4622460120002167
:1001700000F044FA17EB00094E41201EA4F10104DF
:10018000DFDC484631462A464346BDE8F09F40EA58
:1001900001039B0703D009E008C9121F08C0042A05
:1001A000FAD203E011F8013B00F8013B521EF9D2EC
:1001B0007047D2B201E000F8012B491EFBD2704714
:1001C0000022F6E710B513460A4604461946FFF723
:1001D000F0FF204610BD421C10F8011B0029FBD186
:1001E000801A70472DE9FE4F804681EA0300C00F58
:1001F0000C46009021F0004123F00045B8EB0200CE
:10020000A94105D24046214690461C460B4602466F
:1002100023F00040104347D0270DC7F30A00C3F373
:100220000A510290401A019040286BDAC3F3130080
:1002300040F4801B0098924620B10023D2EB030AC1
:1002400063EB0B0B01985946C0F14002504600F099
:10025000D5F906460D4650465946019A00F0EDF98B
:1002600010EB08006141002487EA115284EAE77329
:100270001A4340D0009A62B3019A012A4FEA07520A
:1002800015DC001B61EB02014FF0004202EA07524D
:10029000CDE90042001C41F5801132462B4600F0AA
:1002A000EDF903B0BDE8F08F40462146F9E7001BA9
:1002B00061EB0201001C41F5801300185B4120181E
:1002C000A2F5001747EB030140EAD570B6196D415E
:1002D00011E06D084FEA360645EAC0754FEA07524D
:1002E000001B61EB0201001C41F5801149084FEA37
:1002F00030000019514132462B4603B0BDE8F04FA3
:1003000000F0ADB90098012240000023D0EB0202BA
:1003100063EBE073009821464FEAE074B8EB00000D
:1003200061EB0401E9E783F000435BE781F0004102
:1003300058E72DE9FE4F81EA030404F0004421F060
:10034000004100944FF0000B23F0004350EA0104F9
:100350005ED052EA03045BD0C3F30A54C1F30A55DA
:100360002C44A4F2F3340194A0FB0254C1F3130112
:1003700041F48011C3F3130343F4801301FB0244DF
:1003800000FB034E840A970A44EA815447EA8357E4
:10039000A4FB076802958D0A05FB07854FEA932C9D
:1003A00004FB0C542705029D4FEA065847EA16370E
:1003B000B5EB08056EEB070C870E920E47EA811726
:1003C00042EA8312A7FB0201B6EB0B0164EB0004C7
:1003D0002B0D43EA0C335E1844EB1C50DA465146B1
:1003E000E7FB0201C5F313044FEA0B3343EA14534E
:1003F0004FEA0432019C43EA0603A4F10C04029480
:10040000009CCDE900B400F039F903B0BDE8F08FED
:1004100000200146F9E72DE9F04D81EA030404F0DC
:10042000004B21F0004514464FF0000A23F0004134
:1004300050EA050220D054EA01021DD0C5F30A5744
:100440000246C5F31303C1F31300C1F30A5640F487
:10045000801543F48013A7EB0608101BD64608F25C
:10046000FD3873EB050002D308F1010801E0921892
:100470005B41B8F1000F03DA00200146BDE8F08DC2
:1004800000204FF48011064684460EE0171B73EBE4
:10049000050705D3121B63EB050306434CEA010C69
:1004A00049084FEA300092185B4150EA0107EDD14C
:1004B00052EA030012D082EA040083EA05010843ED
:1004C00005D0101BAB4106D20122002306E000221A
:1004D0004FF0004302E06FF0010253101AEB0600E8
:1004E0004CEB085110EB0A0041EB0B01BDE8F04D5D
:1004F00000F0B5B80EB5C10F80EAE0700844CA0735
:10050000002140F233438DE80E000A460B4600F00E
:10051000B5F803B000BD0EB540F2334102910021A1
:10052000CDE900110A460B4600F0A8F803B000BD63
:1005300070B5C1F30A5201F000450024C1F3130164
:1005400040F2FF3341F480119A4201DA002070BD7D
:1005500040F233439A42A2F2334203DC524200F0AB
:100560005CF800E090402C43F1D0404270BDC1F3F4
:100570000A5210B5C1F3130140F2FF3341F4801168
:100580009A4201DA002010BD40F233439A42A2F2AF
:10059000334203DC524200F040F810BD904010BDE1
:1005A00030B5041E71F1000404DB4FF000444042FA
:1005B00064EB0101141E73F1000405DB1C464FF0CF
:1005C0000043524263EB04038B4208BF824230BDBA
:1005D00030B50B46014600202022012409E021FA13
:1005E00002F59D4205D303FA02F5491B04FA02F510
:1005F0002844151EA2F10102F1DC30BD202A04DBE3
:10060000203A00FA02F1002070479140C2F1200325
:1006100020FA03F3194390407047202A04DB203A64
:1006200021FA02F00021704721FA02F3D040C2F112
:1006300020029140084319467047202A06DBCB1759
:10064000203A41FA02F043EAE07306E041FA02F38D
:10065000D040C2F12002914008431946704710B5BE
:10066000141E73F1000408DA401C41F100019218D5
:100670005B411A4301D120F0010010BD2DE9F04D7E
:1006800092469B4611B1B1FA81F202E0B0FA80F2D3
:1006900020329046FFF7B2FF04460F4640EA0A00B8
:1006A00041EA0B0153465A46084313D0114653EA18
:1006B000010019D0C8F140025046FFF7AEFF0546D1
:1006C0000E46504659464246FFF798FF084305D06C
:1006D000012004E020463946BDE8F08D00200543A6
:1006E00046EAE0762C4337430A986305E40AA0EB18
:1006F00008000022FD0A44EA47540A3002D50020CF
:100700000146E9E7010510196941DDE908450019CD
:100710006941BDE8F04DA2E72DE9F041054621F021
:1007200000400C46284309D0C4F30A5040F233413C
:10073000884205DD28462146BDE8F0812846FBE7D2
:1007400040F2FE31884210DC0CDB4FEA043040EA14
:10075000155050EA053105D0104804F0004101431E
:100760000020E9E700200146E6E7A0F233404642D8
:10077000C6F1400228462146FFF740FF074688465B
:10078000284621463246FFF748FF43463A46FFF7E0
:1007900066FF3246BDE8F041FFF730BF0000F03F92
:1007A00030B5041E71F1000404DB4FF000444042F8
:1007B00064EB0101141E73F1000405DB1C464FF0CD
:1007C0000043524263EB0403994208BF904230BD9C
:1007D000064C074D06E0E06840F0010394E807008E
:1007E00098471034AC42F6D3FFF788FC844F0008DA
:1007F000A44F000870B58C1810F8015B15F00703C2
:1008000001D110F8013B2A1106D110F8012B03E0A9
:1008100010F8016B01F8016B5B1EF9D12B0705D4B1
:100820000023521E0DD401F8013BFAE710F8013BFA
:10083000CB1A921C03E013F8015B01F8015B521E16
:10084000F9D5A142D8D3002070BD000010B5012217
:100850009103174800F044FA00220421144800F0E4
:100860003FFA01220221134800F03AFA0122042142
:100870000F4800F035FA012211030D4800F030FA5C
:1008800000224FF480410A4800F02AFA4FF4045045
:1008900000F064F842F2380000F060F84FF4404095
:1008A00000F05CF84FF4045000F058F810BD000060
:1008B000000402400000024010B50446012202215B
:1008C0000B4800F00DFA012204210A4800F008FA52
:1008D00001229103074800F003FA00224FF48041FF
:1008E000044800F0FDF9204600F038F810BD000083
:1008F00000000240000402402DE9FC4706468946FC
:100900004846FFF708FE0746124A134BFFF711FD52
:10091000CDE90001FFF72BFE824654464FEA9A3597
:1009200046B924F4004444F4804425F4004545F4D9
:10093000804507E024F4804444F4004425F48045D5
:1009400045F40045204600F009F8284600F006F876
:10095000BDE8FC878DEDB5A0F7C6304070B5044604
:10096000002501220421194800F0BAF900220221D1
:10097000174800F0B5F900BF1BE004F4004028B1AF
:1009800001221103114800F0ABF905E000224FF4F9
:1009900080510E4800F0A4F9002204210B4800F019
:1009A0009FF9640001220421084800F099F9681CAD
:1009B000C5B2102DE1DB01221103044800F090F9CB
:1009C00001220221024800F08BF970BD00040240B0
:1009D0000000024000BFFEE7F0B503460C4641F6BA
:1009E0000F5141F2210600221BE0985C002514E023
:1009F00000F0800701F4004C87EA2C272FB14FF656
:100A0000FF7707EA4101714003E04FF6FF7707EAFD
:100A100041014706380E6F1CFDB2082DE8DB501C63
:100A2000C2B2A242E1DBC84380B2F0BD704710B54C
:100A3000012000F04DF810BD10B54FF4805000F0CB
:100A400047F810BD704770B50446002594F82100A2
:100A5000022803D00420A063012520E0206800685C
:100A600020F00E00216808602068006820F0010076
:100A70002168086094F8400000F01C0101208840C3
:100A8000E16B4860012084F8210000BF002084F859
:100A9000200000BF606B10B12046616B884728467C
:100AA00070BD000070B5044600F020F906462546EA
:100AB000681C10B104480068054400BF00F016F936
:100AC000801BA842FAD370BD30010020704700009F
:100AD00010B5044604480068204020B10248046074
:100AE0002046FFF7F3FF10BD1404014078B503461C
:100AF000002200240020CAE0012696400D6805EA85
:100B00000604002C71D04D68012D08D04D68022DCF
:100B100005D04D68112D02D04D68122D13D1986863
:100B200056000325B540A8435600CD68B54028437C
:100B30009860586801259540A8430D79C5F30015C4
:100B4000954028435860D86856000325B540A8430F
:100B500056008D68B5402843D8604D68022D02D0FC
:100B60004D68122D13D1D60803F1200555F8260043
:100B70005507EE0E0F25B540A8435607F60E0D6932
:100B8000B5402843D60803F1200545F8260018682B
:100B900056000325B540A8430D7905F0030556001E
:100BA000B540284318604D6805F08055B5F1805F69
:100BB0006CD100BF394D2D6845F00105374E3560C9
:100BC00035462D6805F00105009500BF00BF344D86
:100BD000960855F8260095072E0F0F25B540A84317
:100BE000304DAB4202D1002515E04FE02E4DAB4217
:100BF00001D101250FE02D4DAB4201D102250AE0C4
:100C00002B4DAB4201D1032505E02A4DAB4201D16A
:100C1000042500E005259607360FB5402843204DF2
:100C2000960845F82600244D2868A0434D6805F431
:100C30008035B5F5803F00D120431F4D28602D1D24
:100C40002868A0434D6805F40035B5F5003F00D194
:100C50002043194D2D1D28602D1D2868A0434D6887
:100C600005F48015B5F5801F00D12043124D0835DD
:100C700028602D1D2868A0434D6805F40015B5F5C2
:100C8000001F00D120430C4D0C352860521C0D680C
:100C9000D540002D7FF430AF78BD000020380240F1
:100CA0000800014000000240000402400008024029
:100CB000000C02400010024000040140024613698B
:100CC0000B400BB1012000E00020704710B54269D5
:100CD00021EA020302EA010443EA0443836110BDEE
:100CE0000AB1816101E00B0483617047014800682B
:100CF0007047000028010020034800680349096884
:100D00000844014908607047280100203001002094
:100D100010B50024032000F0B3F8002000F008F81C
:100D200008B1012401E000F02FF8204610BD0000BA
:100D300070B50446002511480068D8B10F48006816
:100D40004FF47A71B1FBF0F00D490968B1FBF0F690
:100D5000304600F0C4FE58B9102C07D200222146BC
:100D6000501E00F04FF80748046004E0012502E03F
:100D7000012500E00125284670BD0000300100205B
:100D8000340100202C01002008B500BF1448006881
:100D900040F00040124908600846006800F000403A
:100DA000009000BF00BF00BF081F006840F00100B6
:100DB000091F08600846006800F00100009000BFAD
:100DC00000BF00BF081D006840F08050091D08608A
:100DD0000846006800F08050009000BF00BF08BDCA
:100DE0002438024001460846002809DB00F01F03B2
:100DF00001229A4043099B0003F1E023C3F800213C
:100E000000BF70472DE9F05F80460D46164600276B
:100E100003F014FE074639462A46334601F0070020
:100E2000C0F1070ABAF1040F02D94FF0040A01E039
:100E3000C0F1070AD14600F1040ABAF1070F02D245
:100E40004FF0000A01E0A0F1030AD4464FF0010A76
:100E50000AFA09FAAAF1010A0AEA020A0AFA0CFADB
:100E60004FF0010B0BFA0CFBABF1010B0BEA030B80
:100E70004AEA0B042146404603F0E8FDBDE8F09F36
:100E800000BF00F00702064B19684FF6FF03194038
:100E9000044B0B4343EA0221014B196000BF70472A
:100EA0000CED00E00000FA052DE9F04104460D4686
:100EB00014B90120BDE8F0817E48006800F001000F
:100EC000A84218D200BF012D05D17A48006840F031
:100ED0000400784908607748006820F00100284342
:100EE0007449086000BF0846006800F00100A8428D
:100EF00001D00120DEE7207800F00200022807D1AF
:100F00006D48006820F0F000A16808436A49086055
:100F1000207800F0010000287FD06068022807D107
:100F200065480838006800F40030F8B90120C1E7CE
:100F30006068032807D160480838006800F0007036
:100F4000A0B90120B6E76068012807D15A480838DF
:100F5000006800F0020048B90120ABE756480838A5
:100F6000006800F4007008B90120A3E75248006847
:100F700020F00300616808434F490860FFF7B6FEA0
:100F800006466068022810D108E0FFF7AFFE801B1C
:100F900041F28831884201D903208BE74648006836
:100FA00000F00C000828F0D137E06068032810D169
:100FB00008E0FFF79BFE801B41F28831884201D98F
:100FC000032077E73C48006800F00C000C28F0D1C3
:100FD00023E06068012810D108E0FFF787FE801B3E
:100FE00041F28831884201D9032063E73248006822
:100FF00000F00C000428F0D10FE008E0FFF776FEC7
:10100000801B41F28831884201D9032052E72A48E7
:10101000006800F00C000028F0D12648006800F0BD
:101020000100A84218D900BF012D05D12148006850
:1010300040F004001F4908601E48006820F00100CD
:1010400028431C49086000BF0846006800F0010002
:10105000A84201D001202DE7207800F004000428E8
:1010600007D11548006820F4E060E16808431249A0
:101070000860207800F00800082808D10E480068B1
:1010800020F46050216940EAC1000B49086000F07B
:1010900041F809490968C1F30311084A515CC84085
:1010A0000749086007480068FFF742FE07463846D0
:1010B00000E70000003C0240083802406B4F000887
:1010C000340100202C010020014800687047000016
:1010D0003401002000B5FFF7F7FF04490968C1F3A8
:1010E0000221034A515CC84000BD0000083802409C
:1010F0007B4F000800B5FFF7E7FF04490968C1F31B
:10110000C221034A515CC84000BD000008380240BB
:101110007B4F00082DE9F05F2248D0F8009009F0DD
:101120000C0070B3042804D0082804D00C2829D15E
:1011300003E01D4D32E01D4D30E01D48C9F38341F1
:1011400010F801A0C9F38150441C1648006800F44F
:10115000803050B11548A0FB0A700146224600239A
:101160003846FEF7E3FF064609E00F48A0FB0A7089
:101170000146224600233846FEF7D8FF064635468C
:101180000CE000E000BF0748001F0068C0F3423BCE
:101190000BF1010001218140CD0300BF00BF2846B3
:1011A000BDE8F09F083802400024F40000127A00E5
:1011B000624F00082DE9F843044614B90120BDE848
:1011C000F883FE48006800F00C06FC48006800F454
:1011D0008037207800F00100002875D0082E04D058
:1011E0000C2E0ED1B7F5803F0BD1F44808380068BB
:1011F00000F40030002867D06068002864D1012026
:10120000DDE700BF6068012808D1EC4808380068B5
:1012100040F48030E949083908602DE0606868B919
:10122000E6480838006820F48030E449083908604E
:101230000846006820F4802008601DE060680528EA
:101240000DD1DE480838006840F48020DB490839B9
:1012500008600846006840F4803008600CE0D74819
:101260000838006820F48030D449083908600846FE
:10127000006820F48020086000BF606890B1FFF72C
:1012800035FD054606E0FFF731FD401B642801D916
:10129000032094E7C9480838006800F400300028AB
:1012A000F1D011E0FFF722FD054606E0FFF71EFD35
:1012B000401B642801D9032081E7C0480838006832
:1012C00000F400300028F1D1207800F0020002285C
:1012D00053D1042E02D00C2E17D1B7B9B748083815
:1012E000006800F0020020B1E068012801D0012070
:1012F00065E7B248001F006820F4F850216940EA11
:101300000120AE49091F086037E0E06800B3012002
:10131000AB490860FFF7EAFC054606E0FFF7E6FC8C
:10132000401B022801D9032049E7A4480838006877
:1013300000F002000028F1D0A048001F006820F44F
:10134000F850216940EA01209C49091F086014E017
:1013500000209B490860FFF7C9FC054606E0FFF73F
:10136000C5FC401B022801D9032028E79348083810
:10137000006800F002000028F1D1207800F0100091
:10138000102871D1F6BB8D480838006800F4007051
:1013900018B1A06908B9012011E78849091F206A1E
:1013A000096801F46041884219D9206A01F0A0FB64
:1013B00008B1012003E78148001F006820F4604065
:1013C000216A08437D49091F0860217F7B48001F6F
:1013D000006861F31F607949091F08601AE07748C7
:1013E000001F006820F46040216A08437349091F08
:1013F0000860217F7148001F006861F31F606F491A
:10140000091F00E020E00860206A01F071FB08B1CC
:101410000120D4E60121206A01EB503101208840EF
:10142000C00366490968C1F30311664A515CC840AC
:101430006549086065480068FFF77AFC8046B8F1A6
:10144000000F42D04046BAE6A06948B301205C498B
:101450000862FFF74BFC054607E0FFF747FC401B1F
:10146000022802D90320AAE62FE054480838006871
:1014700000F400700028F0D05048001F006820F4ED
:101480006040216A08434D49091F0860217F4B488D
:10149000001F006861F31F604849091F086014E0DD
:1014A000002047490862FFF721FC054606E0FFF7E8
:1014B0001DFC401B022801D9032080E63F48083864
:1014C000006800F400700028F1D1207800F00800D6
:1014D00008282CD16069A8B101203D490860FFF7B8
:1014E00005FC054606E0FFF701FC401B022801D978
:1014F000032064E631482C30006800F00200002828
:10150000F1D014E0002032490860FFF7EFFB0546F8
:1015100006E0FFF7EBFB401B022801D903204EE653
:1015200026482C30006800F002000028F1D1207815
:1015300000F0040004286ED14FF000091F481C3051
:10154000006800F0805088B900BF1C481C3000685B
:1015500040F0805019491C3108600846006800F0CE
:101560008050009000BF00BF4FF00109194800688B
:1015700000F48070B0B91748006840F480701549D5
:101580000860FFF7B3FB054606E0FFF7AFFB401B23
:10159000642801D9032012E60E48006800F4807028
:1015A0000028F2D000BFA068012817D103482C30D2
:1015B000006840F4807001492C310DE00838024089
:1015C000000047426B4F0008340100202C0100202E
:1015D0008006474200700040086028E0A06858B9C3
:1015E0006648006820F48070644908600846006816
:1015F00020F4806008601AE0A06805280CD15F48DC
:10160000006840F480605D4908600846006840F466
:10161000807008600BE040E05848006820F480705B
:10162000564908600846006820F48060086000BFE2
:10163000A06898B1FFF75AFB054608E0FFF756FB94
:10164000401B41F28831884201D90320B7E54B485D
:10165000006800F400700028F0D012E0FFF746FBAD
:10166000054608E0FFF742FB401B41F28831884203
:1016700001D90320A3E54148006800F40070002868
:10168000F0D1B9F1010F07D13C481038006820F0C3
:1016900080503A491039086000BF606AA8B30C2E28
:1016A00052D0606A022839D1002035490866FFF718
:1016B0001DFB054606E0FFF719FB401B022801D978
:1016C00003207CE52D483438006800F000700028C5
:1016D000F1D1D4E90A010843216B084327492C3989
:1016E000096821F47D01084324492C390860012050
:1016F00023490866FFF7FAFA054607E0FFF7F6FA0E
:10170000401B022802D9032059E535E01B48343834
:10171000006800F000700028F0D02DE0002018498B
:101720000866FFF7E3FA054606E0FFF7DFFA401B1D
:10173000022801D9032042E510483438006800F03F
:1017400000700028F1D117E0606A012800D136E569
:101750000A482C38076807F48031A06A814209D111
:1017600007F47011E06A814204D107F44001206B54
:10177000814201D0012022E5002020E534380240DA
:101780000000474210B504460CB9012010BD606A44
:1017900038B96068B0F5827F00D105E00021E161D1
:1017A00002E00021216161610021A16294F85100F1
:1017B00028B9002084F85000204600F03DF80220AF
:1017C00084F851002068006820F04000216808601B
:1017D000A08800F48270218901F404410843A189A2
:1017E00001F400610843217C01F002010843217DDE
:1017F00001F001010843218B01F400710843217FAE
:1018000001F0380108432021095D01F080010843FF
:10181000218D01F400510843216808600421A0696A
:1018200001EA10402168486000206065012084F8CA
:1018300051000020AAE7000010B586B0044614212C
:1018400001A8FEF7BDFC18492068884229D100BFD5
:101850001648006840F48050144908600846006843
:1018600000F48050009000BF00BF00BF081F006858
:1018700040F00100091F08600846006800F0010000
:10188000009000BF00BFE0200190022002900020E5
:101890000390032004900520059001A90448FFF758
:1018A00025F906B010BD000000300140203802408C
:1018B000000002402DE9FF5F0446884691461D4620
:1018C0000E9E012002900020019000BF94F850006D
:1018D000012803D1022004B0BDE8F09F012084F864
:1018E000500000BFFFF702FA074694F851B0606855
:1018F0000390AA46BBF1010F0BD00398B0F5827F8D
:1019000004D1A06810B9BBF1040F02D002200190ED
:10191000DBE0B8F1000F03D0B9F1000F00D015B92A
:1019200001200190D1E094F85100042802D0052054
:1019300084F8510000206065C4F83890E587A587D9
:10194000C4F83080E586A58620646064206800685D
:1019500000F04000402805D02068006840F04000BA
:1019600021680860E068B0F5006F4AD1606810B186
:10197000BAF1010F09D1206B00882168C860206B83
:10198000801C2063E08E401EE08633E02068806883
:1019900000F00200022810D1E08E70B102980128F8
:1019A0000BD1206B00882168C860206B801C2063ED
:1019B000E08E401EE086002002902068806800F0E3
:1019C000010068B1E08F58B12068C068A16B088041
:1019D000A06B801CA063E08F401EE0870120029076
:1019E000FFF784F9C01BB04204D3701C10B1032070
:1019F00001906AE0E08E0028C8D1E08F0028C5D1B0
:101A00004AE0606810B1BAF1010F09D1206B00788B
:101A100021680873206B401C2063E08E401EE08626
:101A200034E02068806800F00200022810D1E08EC7
:101A300070B1029801280BD1206B007821680873DF
:101A4000206B401C2063E08E401EE0860020029048
:101A50002068806800F0010068B1E08F58B120680C
:101A6000C068A16B0870A06B401CA063E08F401E93
:101A7000E08701200290FFF739F9C01BB04201D383
:101A8000701C00B916B9032001901EE0E08E0028FA
:101A9000C7D1E08F0028C4D13A463146204601F034
:101AA00099F820B101200190202060650DE0A06828
:101AB00050B900BF002000902068C06800902068E6
:101AC0008068009000BF00BF00BF012084F8510073
:101AD00000BF002084F8500000BF0198FBE670B5FD
:101AE00004462546681EB0F1807F01D301200FE037
:101AF000681E4FF0E02148610F214FF0FF3002F0E7
:101B0000A5FF00204FF0E021886107200861002038
:101B100070BD000030B502460B4600BF92F8380099
:101B2000012801D1022030BD012082F8380000BF19
:101B3000022082F83900106844681068816824F037
:101B4000700418680443106844601068B0F1804F56
:101B50000BD00E4D1068A84207D00D4D1068A8425A
:101B600003D00C4D1068A84205D121F080015868BF
:101B7000014310688160012082F8390000BF002015
:101B800082F8380000BF00BFCDE70000000400402D
:101B9000000800400008014010B504460CB90120BF
:101BA00010BD94F8390028B9002084F83800204688
:101BB00000F01AF8022084F83900211D206802F094
:101BC00073FC012084F83E0000BF84F83A00012134
:101BD0003B2001553C2001553D20015500BF01200F
:101BE00084F839000020DBE738B504462068B0F1FE
:101BF000804F0DD100BF1D48006840F001001B4917
:101C000008600846006800F00100009000BF2BE06B
:101C10001749206888420DD100BF1448006840F081
:101C20000200124908600846006800F002000090B7
:101C300000BF19E00F492068884215D100BF0B484A
:101C4000006840F00400094908600846006800F098
:101C50000400009000BF00BF002211461E20FFF7C5
:101C6000D1F81E20FFF7BEF838BD0000243802402E
:101C70000004004000080040014691F839000128A6
:101C800001D001207047022081F839000868C0683F
:101C900040F001000B68D8600868B0F1804F0BD0AD
:101CA000104B0868984207D00F4B0868984203D041
:101CB0000E4B086898420CD10868806800F0070253
:101CC000062A0CD00868006840F001000B68186014
:101CD00005E00868006840F001000B68186000200B
:101CE000D0E7000000040040000800400008014068
:101CF0002DE9F04104460D4600BF94F83800012854
:101D000002D10220BDE8F081012084F8380000BF34
:101D1000022084F839002068866826F0770626F4C9
:101D20007F46206886602868502833D00CDC202845
:101D300050D004DC00284BD0102851D149E0302885
:101D400049D040284CD139E060282DD0702807D0E8
:101D5000B0F5805F03D0B0F5005F41D10DE040E009
:101D6000D5E902136A68206802F0EBFB20688668F8
:101D700046F077062068866033E0D5E902136A688A
:101D8000206802F0DEFB2068806840F48040216813
:101D9000886026E0EA686968206802F04BFC502100
:101DA000206802F0D9FB1CE0EA686968206802F04C
:101DB00054FC6021206802F0CFFB12E0EA686968F9
:101DC000206802F037FC4021206802F0C5FB08E0E3
:101DD00000BF00BF00BF2968206802F0BDFB00E023
:101DE00000BF00BF012084F8390000BF002084F844
:101DF000380000BF00BF85E7704710B50446206873
:101E00000069C0F34000D8B12068C068C0F340004A
:101E1000B0B16FF0020021680861012020762068CF
:101E2000806900F0030018B12046FFF7E5FF05E0E8
:101E3000204600F0B9F8204600F05EF90020207638
:101E400020680069C0F38000D8B12068C068C0F382
:101E50008000B0B16FF00400216808610220207694
:101E60002068806900F4407018B12046FFF7C4FF75
:101E700005E0204600F098F8204600F03DF90020EB
:101E8000207620680069C0F3C000D8B12068C0681F
:101E9000C0F3C000B0B16FF00800216808610420F1
:101EA00020762068C06900F0030018B12046FFF7D3
:101EB000A3FF05E0204600F077F8204600F01CF96B
:101EC0000020207620680069C0F30010D8B1206897
:101ED000C068C0F30010B0B16FF010002168086155
:101EE000082020762068C06900F4407018B12046B0
:101EF000FFF782FF05E0204600F056F8204600F08C
:101F0000FBF8002020762068006900F0010058B13D
:101F10002068C06800F0010030B16FF00100216856
:101F20000861204600F046F920680069C0F380107F
:101F300058B12068C068C0F3801030B16FF0400025
:101F400021680861204600F091F910BD10B586B0F7
:101F50000446142101A8FEF733F92068B0F1804F40
:101F60001BD100BF0E48006840F001000C4908601A
:101F70000846006800F00100009000BF00BF01208B
:101F80000190022002900020039003200490012081
:101F9000059001A90348FEF7A9FD06B010BD000099
:101FA0001C38024000000240704770B504460D46E0
:101FB000164600BF94F83800012801D1022070BDF8
:101FC000012084F8380000BF36B1042E1BD0082E43
:101FD00031D00C2E5ED145E02946206802F0C5FACA
:101FE0002068806940F00800216888612068806965
:101FF00020F004002168886120688069E96808434E
:102000002168886147E02946206802F0C6FA206806
:10201000806940F40060216888612068806920F44C
:1020200080602168886120688069E96840EA012051
:10203000216888612FE02946206802F0C8FA2068EC
:10204000C06940F008002168C8612068C06920F0BC
:1020500004002168C8612068C069E96808432168F4
:10206000C86118E02946206802F0CAFA2068C069F1
:1020700040F400602168C8612068C06920F4806075
:102080002168C8612068C069E96840EA01202168C8
:10209000C86100E000BF00BF00BF002084F8380026
:1020A00000BF00BF8BE710B504460CB9012010BD7E
:1020B00094F8390028B9002084F83800204600F050
:1020C0001AF8022084F83900211D206802F0ECF98A
:1020D000012084F83E0000BF84F83A0001213B2033
:1020E00001553C2001553D20015500BF012084F8D9
:1020F00039000020DBE770477047000070B50446E8
:102100000D4615B994F83A000BE0042D02D13B209E
:10211000005D06E0082D02D13C20005D01E03D207D
:10212000005D012801D0012070BD1DB9022084F896
:102130003A000EE0042D03D102213B20015508E0B6
:10214000082D03D102213C20015502E002213D204F
:10215000015501222946206802F0E2F92068B0F119
:10216000804F0BD010492068884207D00F49206863
:10217000884203D00E49206888420CD120688068CC
:1021800000F00706062E0CD02068006840F0010021
:102190002168086005E02068006840F001002168BF
:1021A00008600020C0E70000000400400008004074
:1021B000000801402DE9F04704462549206888427F
:1021C00043D12448007801283FD123480068C0F358
:1021D000CF0522480078801CC006060EDFF88080FC
:1021E0004FF000091C480068B0421CD2002718F8C4
:1021F00005001949097801F00701C1F1070140FA0A
:1022000001F909F001070FB1012000E000200246AA
:102210004FF400411348FEF763FD0F480068401C6F
:102220000D49086010E010480078322805DA0E48A1
:102230000078401C0C49087006E000200A4908702C
:10224000054908600349087000BFBDE8F087000039
:1022500000080040EC00002010010020ED000020EC
:1022600040050020000402400C0100207047704728
:102270002DE9F0470446206805682068C668206894
:1022800047694FF00008C14605F00F08B8F1000F8C
:102290000AD105F0200038B106F0200020B1204618
:1022A00002F019FABDE8F087B8F1000F72D007F01C
:1022B000010018B906F4907000286BD005F00100F9
:1022C00030B106F4807018B1E06B40F00100E063BB
:1022D00005F0040030B107F0010018B1E06B40F0E8
:1022E0000200E06305F0020030B107F0010018B110
:1022F000E06B40F00400E06305F0080048B106F030
:10230000200010B907F0010018B1E06B40F00800A0
:10231000E063E06B70B305F0200028B106F0200008
:1023200010B1204602F0D7F920684069C0F3801947
:10233000E06B00F0080010B9B9F1000F23D020467F
:1023400002F0A9F92068406900F04000402816D149
:102350002068406920F0400021684861606B50B1FE
:102360001748616B4863606BFEF76DFB10B1606BE3
:10237000416B88470CE02046FFF779FF08E02046D4
:10238000FFF775FF04E02046FFF771FF0020E063D0
:1023900088E7FFE705F0800030B106F0800018B153
:1023A000204602F0C3FA7DE705F0400030B106F0A8
:1023B000400018B1204602F07EF973E700BF71E7D4
:1023C0008346000810B504460CB9012010BDA06971
:1023D00000B100E000BF94F8390028B9002084F86B
:1023E0003800204600F028F8242084F839002068BE
:1023F000C06820F400502168C860204602F0BEF991
:102400002068006920F490402168086120684069D4
:1024100020F02A00216848612068C06840F400501C
:102420002168C8600020E063202084F8390084F827
:102430003A000020CAE7000010B586B00446142117
:1024400001A8FDF7BDFE1C492068884232D100BFBB
:102450001A48006840F4804018490860084600683F
:1024600000F48040009000BF00BF00BF081F00685C
:1024700040F00100091F08600846006800F00100F4
:10248000009000BF00BF4FF4C06001900220029096
:1024900000200390032004900720059001A908481C
:1024A000FEF724FB002211462520FEF7ABFC252079
:1024B000FEF798FC06B010BD0038014020380240FD
:1024C0000000024010B5034693F83A0020282FD1AF
:1024D00001B10AB9012010BD00BF93F838000128EE
:1024E00001D10220F7E7012083F8380000BF99628C
:1024F0009A85DA850020D863222083F83A0000BF4D
:10250000002083F8380000BF1868C06840F480706D
:102510001C68E0601868406940F001001C68606158
:102520001868C06840F020001C68E0600020D2E716
:102530000220D0E70349884202D10121024A1170EA
:1025400070470000EC040020E70000202DE9F8436C
:1025500004460D4616461F464FF0000994F8390010
:1025600020285DD105B116B90120BDE8F88300BF70
:1025700094F83800012801D10220F6E7012084F800
:10258000380000BF0020E063212084F83900FEF706
:10259000ADFB8146A684E68400BF002084F83800A5
:1025A00000BF2BE0E08C401EE084A068B0F5805FA7
:1025B00016D14B46002280212046009702F0EAF90E
:1025C00008B10320D1E7A846B8F80000C0F308001E
:1025D00021684860206908B9AD1C0FE06D1C0DE052
:1025E0004B46002280212046009702F0D3F908B123
:1025F0000320BAE715F8010B21684860E08C002839
:10260000D0D14B46002240212046009702F0C2F96B
:1026100008B10320A9E7202084F839000020A4E7AE
:102620000220A2E7704700BFFEE7000000B587B0B8
:10263000142102A8FDF7C4FD00BF6048006840F007
:1026400020005E4908600846006800F02000019004
:1026500000BF00BF00BF0846006840F001000860EE
:102660000846006800F00100019000BF00BF00BFF5
:102670000846006840F0020008600846006800F064
:102680000200019000BF00BF002248F602014C4842
:10269000FEF726FB01224FF488714948FEF720FB24
:1026A000012202214748FEF71BFB00224FF20411D2
:1026B0004448FEF715FB48F2020002900120039007
:1026C000002004900320059002A93D48FEF70EFA71
:1026D0000C20029000200390049002A93848FEF7D5
:1026E00005FA4FF4887002900120039004900220B4
:1026F000059002A93248FEF7F9F90120029032480C
:1027000003900020049002A92E48FEF7EFF9022062
:1027100002900120039004900220059002A929480C
:10272000FEF7E4F9042002900120039000200490B9
:10273000059002A92348FEF7D9F94FF471400290A1
:1027400001200390002004900320059002A91D4859
:10275000FEF7CCF94FF400600290012003900220B4
:1027600004900320059002A91548FEF7BFF94FF425
:1027700080500290144803900020049002A9104851
:10278000FEF7B4F94FF40E7002900020039004900D
:1027900002A90C48FEF7AAF9002211460620FEF70E
:1027A00031FB0620FEF71EFB002211462820FEF713
:1027B00029FB2820FEF716FB07B000BD1C3802409D
:1027C00000000240000402400000111010B50E4845
:1027D0000E4908604FF48270486000210B48816008
:1027E000C160016141614FF4007181610821C161E3
:1027F00000210162416281620A21C162FEF7C2FFCB
:1028000008B1FEF71FF910BD00300140D4030020CD
:1028100000B58BB000200790089009900A900590B1
:10282000069001900290039004904FF08040204960
:1028300008600020486000211D4881600121C160BE
:102840000021016180214161FFF7A6F908B1FEF77F
:10285000F9F84FF48050079007A91548FFF748FA98
:1028600008B1FEF7EFF81248FFF71DFC08B1FEF7BC
:10287000E9F800200590069005A90D48FFF74AF9F0
:1028800008B1FEF7DFF860200190012002900020DF
:1028900003900490002201A90548FFF786FB08B1C8
:1028A000FEF7D0F80248FFF751FB0BB000BD000067
:1028B0002C04002000B587B0002003900490059000
:1028C0000690019002901448144908600320486063
:1028D0000021124881600521C16000210161416130
:1028E000FFF75AF908B1FEF7ADF84FF480500390A6
:1028F00003A90A48FFF7FCF908B1FEF7A3F8002086
:102900000190029001A90548FFF704F908B1FEF70C
:1029100099F807B000BD0000000400406C040020DE
:1029200000B587B0002003900490059006900190B8
:1029300002901548154908601F204860002113487F
:10294000816040F2E731C160002101618021416175
:10295000FFF722F908B1FEF775F84FF480500390A5
:1029600003A90A48FFF7C4F908B1FEF76BF8002085
:102970000190029001A90548FFF7CCF808B1FEF7D5
:1029800061F807B000BD000000080040AC04002062
:1029900010B50B480B4908604FF4165048600021F1
:1029A00008488160C16001610C21416100218161A1
:1029B000C161FFF707FD08B1FEF744F810BD000044
:1029C00000380140EC04002000BFFEE77047000023
:1029D00070B53A49096848698047C4B23848006808
:1029E00038490968401AB0F5FA7F03D348F2352018
:1029F000354908603548007830B101280CD00228EC
:102A00002AD0032857D14CE012213148FDF7D8FBDA
:102A100001202E4908704FE0022C1CD12748006885
:102A20002C49C2682C48904702F0B0F92A48007837
:102A3000542810D12848407823490968B1FBF0F2A6
:102A400000FB1210254908600220204908701C482C
:102A50000068234908602FE0194800682049096888
:102A6000411A1D4880781D4A1268504300EBC0028D
:102A700002EB0010B1EB800F12D9134819A10268C4
:102A8000194801F0C7FF1848FDF7A5FB85B20B48B0
:102A90000068294602691448904703200B490870D2
:102AA0000AE0042C06D1054909688868804700209F
:102AB0000649087000E000BF00BF70BDAC000020F8
:102AC00020010020B4000020E800002000010020C8
:102AD000DE000020A8000020C00300200801002024
:102AE0000401002025640000B800002070470000A9
:102AF00018B5034600222548006800F0F00050BBDE
:102B000022481C30006800F0805020B12048006846
:102B100000F4C05118E000BF1C481C30006840F0B1
:102B200080501A4C1C3420602046006800F0805011
:102B3000009000BF00BF1648006800F4C051204656
:102B4000006820F080502060B1F5C05F03D1B3F57C
:102B5000404F00D1012200BF012A05D10D48006875
:102B600040F004000B4C20600A48006820F001008F
:102B70001043084C206000BF2046006800F00100B0
:102B8000904201D0012018BD0020FCE70838024027
:102B900000700040003C02400748084908600848AF
:102BA0004860084888600848C860084808610848C4
:102BB0004861084670470000D13400083801002001
:102BC0000542000839430008AD34000815430008E9
:102BD0002D4100087CB504460D461646164800688F
:102BE0001821B0FBF1F01549B0FBF1F04FF47A7108
:102BF000484301906068B0F5827F0DD12B460022DA
:102C000080212046009600F01BF898B1606D40F0DE
:102C10002000606503207CBD00BF019800B908E07A
:102C20000198401E019020688068C0F3C010002801
:102C3000F3D100BF0020EEE73401002040420F0036
:102C40002DE9F84F04460D4690461E46DDF82890C3
:102C5000FEF74CF8A0EB0900371AFEF747F882465A
:102C60002C480068C0F3CB307843009045E0701CDE
:102C7000002842D0FEF73AF8A0EB0A00B84200D292
:102C8000A7BB2068406820F0E000216848606068C9
:102C9000B0F5827F0DD1A068B0F5004F03D0A068D9
:102CA000B0F5806F05D12068006820F040002168F1
:102CB0000860A06AB0F5005F0DD100BF2068006811
:102CC00020F40050216808602068006840F400503B
:102CD0002168086000BF012084F8510000BF002077
:102CE00084F8500000BF0320BDE8F88FFFE700988C
:102CF00000B900270098401E009020688068284096
:102D0000A84201D1012000E000204045AFD10020C1
:102D1000EAE70000340100207047000030B5164893
:102D2000006890F8270000F00700421C1248006875
:102D300090F83000C3091048006890F8300000F0A7
:102D4000060008B1012000E0002004460A4800689F
:102D500090F832100848006890F8300000F0100039
:102D6000102801D1022000E000200546D0182044A0
:102D70000844284480B230BD2400002070B50546C8
:102D80000C460648008820800020044908802288DC
:102D900003492846FDF7FBF970BD0000380000200C
:102DA000C00100202DE9F04F89B001200890F948BA
:102DB00000780C287ED2DFE800F0060784EFEDEC07
:102DC000EBEAE9E8E7E6C1E2F348006890F8300092
:102DD00000F01000102805D14C20EF49096881F857
:102DE000400004E00C20EC49096881F84000E12033
:102DF000E949096881F841000222E7480168403149
:102E0000402001F0AFFA052000F004FB4FF4807180
:102E1000E248FDF7D5F9E2494868FDF77CFBCDE9CA
:102E20000201FFF77BFF0190FDF775FB8046002252
:102E3000DC4BFDF77EFA0646DDE90223FDF7EBFAEF
:102E40000022D94BCDE90401FDF773FACDE9060163
:102E500001F052FF04460022D44BFDF7C3F982462D
:102E6000FDF785FB80B2D24908600846006800EB98
:102E70005000086008460068CE490860CE480068E7
:102E8000CE490860CE490860A020C349096881F88E
:102E90003500C148006890F83510352001F05AFA25
:102EA0000020C8490870C8490870C8490870C84956
:102EB000087000E049E2C74908800220B54908705F
:102EC00044E201F08DF9012809D1BE48007830B9FB
:102ED0000120BC490870B8480068B949086001F091
:102EE0006FF901281ED1B748007801281AD1B648D9
:102EF0000078B8B90120B449087000F065FAB64A04
:102F000003C200F039FAB549086000F075FAB44917
:102F10000870A9480068A9490860A9490860032009
:102F20009C490870A8480078B8B9A64800780128DC
:102F300013D1A1480068A2490968401A9D4909684F
:102F400088420AD901209349087093480068407B61
:102F500040F020010D2001F0FDF99B48007888B970
:102F60009848007870B99948007858B99248006834
:102F700092490968401A8E490968884202D9052099
:102F800084490870E2E1DAE1D3E186E151E129E127
:102F9000ECE0D8E0CEE0FFE78E480088B0F5807F17
:102FA00003DD06207B490870D0E101F001F901281A
:102FB00053D188480088A8B98548007890B97648E8
:102FC000006890F8300000F08000802804D10121D2
:102FD000804801F00DF905E06F48006890F8320074
:102FE0007C4908807B48008879490978401A6A49F9
:102FF000096891F8351001F03F01884217DD664AF3
:10300000126892F8352002F03F01644A704B1B7839
:10301000D01801F0EDF86048006890F8350000F035
:103020003F006B49097808446949087015E0694A0E
:103030001278674B1B78D21AD1B2584A644B1B786E
:10304000D01801F0D5F86348007861490978401A32
:103050005F49097808445E49087001F09FF801282B
:1030600058D101F093FE544800685449086059480B
:10307000008890BB5648007878BB4748006890F8B5
:10308000300000F08000802804D10121514801F077
:10309000AFF805E04048006890F832004D490880DC
:1030A0004C4A12784A4B1B78D21AD1B23B4A484B51
:1030B0001B78D01801F09CF84648007844490978FC
:1030C000401A4349097808444149087001203F49A2
:1030D000087004202F4908701CE0FFE73D4A127871
:1030E0003B4B1B78D21AD1B22C4A394B1B78D018E3
:1030F00001F07EF83748007835490978401A34499C
:1031000009780844324908700120304908700420C9
:10311000204908702D48007858B927480068274989
:103120000968401A22490968884202D905201949CC
:1031300008700BE10020264908700120154908702D
:103140000220089002E100202149087021490880EE
:1031500011480068407B40F020010D2001F0FAF892
:1031600001200C49087003200890EFE00020184966
:1031700008701849088008480068407B40F020012A
:103180000D2001F0E7F801200249087006200890A0
:10319000DCE000002900002024000020C001002005
:1031A000080000200000204000408F400000F03F59
:1031B0002C000020300000202001002050000020C2
:1031C000540000203400002035000020360000208C
:1031D0003A00002038000020400000204800002075
:1031E0004C00002001205C49096881F84000202043
:1031F0005949096881F84100022257480168403165
:10320000402001F0AFF898205349096881F8350053
:103210005148006890F83510352001F09BF80320E4
:1032200000F0F8F808204D49087000204C4908705B
:103230008CE000F0CDFF01282ED14748006890F8BF
:10324000300000F08000802803D10121454801F0C2
:10325000A9F844480088002808DD42480088402832
:1032600004DC404800784049087002E020203E49D4
:1032700008703D4801783D4801F094F838480078DE
:10328000394909780844364908703948006839498D
:10329000086009203149087058E000F089FF70BBD0
:1032A000304800882E490978401A2F490978884209
:1032B0000FDD2E492A4A127888182B49097801F027
:1032C00071F827480078284909780844244908708B
:1032D00015E0244A1278224B1B78D21AD1B2234A25
:1032E0001F4B1B78D01801F05DF81E4800781C4970
:1032F0000978401A1A49097808441949087000F0F9
:103300004DFF012809D11A4800681A4908600A20AF
:1033100012490870012000F07DF815480068154931
:103320000968401AB0F57A7F02D90B200B49087062
:103330000CE00020094908700420089006E00020F5
:10334000064908700520089000E000BF00BF0898FB
:1033500009B0BDE8F08F0000240000202900002003
:103360003B0000205800002028000020C001002061
:10337000200100205C0000202DE9F04702221048C7
:1033800001681B311B2000F0E7FE0D490968097F29
:103390000B4A1268D27E41EA0220FDF7ABF8804664
:1033A000FDF7C6F88246FDF7A5F806460022054B54
:1033B000FCF7BFFF0446FDF7BBF8BDE8F08700004F
:1033C0002400002080844E4070B50A480168113105
:1033D000112000F0B7FE07490968487CFDF79BF80B
:1033E000044600224FF08043FDF715F881F00041BC
:1033F00070BD00002400002010B5054801680C31A4
:103400000C2000F09FFE02480068007B400910BDC0
:103410002400002070B50446002514480068407858
:1034200020F0F800124908700846007884421CD049
:10343000032C01D1012500E000250E4800788542CB
:1034400004D00C480570284600F0B5FF0748006816
:10345000407800F0F80020430449096848700348A8
:1034600000684178012000F075FF70BD2400002045
:1034700060000020610000200149087070470000D2
:103480002900002070B504460D46054805800288D5
:1034900021460448FCF77BFE07200349087070BDF5
:1034A00058000020C00100202900002070B504460B
:1034B0000D460648007820B929462046FFF75EFCF5
:1034C00003E02946204600F033F870BD00000020DC
:1034D00010B50948094908600949086000F014F866
:1034E00000F090FE0120074908700846007800F0BF
:1034F000A3FE00F031F810BD500100202400002090
:10350000840000200000002010B50122102107488F
:10351000FDF7E6FB0122D1020448FDF7E1FB0022A2
:1035200002210248FDF7DCFB10BD00000000024054
:1035300070B505460C4606480088208000200449E6
:103540000880228803492846FCF721FE70BD000050
:103550008A000020C002002010B500202149087018
:1035600000F07CFB6F222049012000F0F5FD2020B7
:103570001E49096808736F221B49012000F0F2FE02
:103580001B49086800F09AFC1949887900F068FD29
:103590001749C87900F06CFB1549087A00F05AFC0D
:1035A0001349487900F03EFD1149487A00F080FB4C
:1035B00040F2FF3000F082FD0D49087E00F06AFC09
:1035C000012000F093FB802000F0FEFB012000F0C2
:1035D00015FC074991F9040000F09CFC012000F063
:1035E000C1FB10BD88000020510100208400002094
:1035F000680000202DE9F84F4FF0010AFB480078E1
:103600000B2874D2DFE800F0060774CEEFEEEDEC85
:1036100073EBEA0004E3012000F0A4FB9D20F449D1
:1036200009684874F2480068417C112000F092FE5D
:10363000F048C07A012816D1EE48007BEC490968B1
:1036400081F82400EA4801681C311C2000F07AFD52
:10365000E7490968097F01F03F01E74A52F8210074
:1036600000F02CFC04E0FF20E149096881F8240007
:10367000DF48006890F82410242000F06BFE002042
:10368000DB49096881F83D00D949096881F83E00A5
:103690000222D74801683D31402000F063FED54842
:1036A000807A012803D1062000F05CFB0EE0D048B0
:1036B0000068C07BCE4909684873CD480068417BEB
:1036C0000D2000F047FE052000F04CFB4FF4807108
:1036D000CA48FCF775FDC7484069C9490860C94830
:1036E0000068C94908600220C049087098E296E263
:1036F00000F054FD012820D101F048FBC1480068CA
:10370000C1490860BB48C07A01280FD1B848016898
:103710001C311C2000F016FDB5490968097F01F035
:103720003F01B54A52F8210000F0C8FB40211220A9
:1037300000F010FE0320AD49087000F041FD0128A3
:103740001FD1B0480068B0490860AA48C07A012873
:103750000FD1A74801681C311C2000F0F3FCA449DC
:103760000968097F01F03F01A34A52F8210000F0E7
:10377000A5FB0221122000F0EDFD00F061FAA34943
:1037800008709C48807A01280BD19E4800689E49A9
:103790000968401A9A490968884202D90420934965
:1037A00008703DE2924801681231122000F0CAFC14
:1037B0008F480068807C00F02000202814D1202150
:1037C000122000F0C7FD8B48807A012802D187497A
:1037D000087002E002208549087021E203E2DEE180
:1037E000D4E1ABE130E129E16946192000F0AAFCFF
:1037F0009DF8000000F0800068B19DF80000C04313
:10380000401CC0F385008249087008460078404299
:1038100040B2087004E09DF8000080087C49087000
:10382000734801681A311A2000F08CFC7148006856
:10383000784988422FD2764890F90000002818DA9B
:10384000734890F90000FCF755FE04460D466849A0
:103850000968887EFCF75FFE804600226E4BFCF70D
:10386000C1FC064622462B46FCF7BCFC6B4A03C251
:1038700040E05F490968887EFCF74DFE0646684ACD
:10388000684BFCF756FD04460022634BFCF7AAFC8C
:10389000624A03C22EE05E4890F90000002818DA60
:1038A0005B4890F90000FCF725FE04460D465049A0
:1038B0000968887EFCF72FFE804600225A4BFCF7F1
:1038C00091FC064622462B46FCF78CFC534A03C269
:1038D00010E047490968887EFCF71DFE0646504AFD
:1038E000504BFCF726FD044600224F4BFCF77AFCB8
:1038F0004A4A03C23F48807A01282FD13C480068D9
:10390000C07B3B490968487339480068417B0D20FA
:1039100000F020FD3748407A01280DD13448006876
:1039200090F82200414908803148006890F8221040
:10393000324800F05DFC52E02D480168133113203D
:1039400000F000FC2A480068C07C384908802848FC
:103950000068C17C294800F04BFC40E02448016825
:103960001031102000F0EEFB2248407A012819D1D6
:103970001F48006890F822002C4908801C48006805
:10398000007C1B490968487319480068417B0D2079
:1039900000F0E0FC1648006890F82210174800F08C
:1039A00027FC1CE0124801681331132000F0CAFB09
:1039B0000F480068C07C1D4908800D480068007CE5
:1039C0000B49096848730A480068417B0D2000F0E4
:1039D000C1FC07480068C17C084800F009FC0548A4
:1039E000807A012824D10149087024E08800002051
:1039F0008400002068000020784E0008C0020020EB
:103A0000A0000020200100209C0000209800002041
:103A10008C000020008F4233008064C090000020A2
:103A20001B9E5E29CB10F13F00A063C08A000020DE
:103A300002207D4908704FF0020AF1E001207A4926
:103A400008704FF0030AEBE0012000F08BF9774893
:103A5000C07A01281AD1F52075490968487473485D
:103A6000007B7349096881F82400714801681C31A2
:103A70001C2000F067FB6E490968097F01F03F01D7
:103A80006C4A52F8210000F019FA08E0F720684962
:103A90000968487400206649096881F82400644870
:103AA000006890F82410242000F054FC604800685E
:103AB000417C112000F04EFC5F4800785C490968A9
:103AC00081F822005A48006890F82210222000F065
:103AD00041FC002056490968887355480068817B7D
:103AE0000E2000F037FC52480068807B504909687E
:103AF00048734F480068417B0D2000F02BFC4C4878
:103B0000006890F822104D4800F04CFC41204849D4
:103B1000096881F83D0040204549096881F83E0068
:103B20000222434801683D31402000F01BFC032085
:103B300000F018F906203C49087071E000F02EFBF7
:103B4000012806D10821122000F004FC0720364984
:103B5000087000F035FB012817D13448C07A0128DD
:103B60000FD1334801681C311C2000F0EBFA3049BA
:103B70000968097F01F03F012E4A52F8210000F048
:103B80009DF90221122000F0E5FB49E0012000F040
:103B9000E9F80020244908704FF0040A40E00120B1
:103BA00000F0E0F8FA2022490968487420480068CB
:103BB000417C112000F0CEFB00201D49096881F8EE
:103BC0003D001B49096881F83E000222184801683F
:103BD0003D31402000F0C6FB072000F0C3F80A206A
:103BE000114908701CE000F0F3FA012816D10421F5
:103BF000122000F0AFFB00F0F3FA012809D10121F7
:103C0000122000F0A7FB0120074908704FF0080AB6
:103C100004E00020044908704FF0070A00E000BFEC
:103C200000BF5046BDE8F88F8800002068000020E3
:103C300084000020784E0008A4000020C00200206C
:103C400010B5054801680C310C2000F07BFA0248E1
:103C50000068007B400910BD8400002010B50348B7
:103C600001683F31422000F06DFA10BD8400002051
:103C700010B504460C4801681D311D2000F062FAA1
:103C800009480068407F00F0F10040EA440006491E
:103C90000968487704480068417F1D2000F05AFBFE
:103CA0000248C47110BD000084000020680000209C
:103CB00010B504460B4801681D311D2000F042FA82
:103CC00008480068407F00F0FE002043054909686D
:103CD000487704480068417F1D2000F03BFB024804
:103CE000447210BD840000206800002010B5044616
:103CF0000C4801682631262000F024FA09480068A3
:103D000090F8260000F0F70040EAC4000549096871
:103D100081F826000348006890F82610262000F05D
:103D200019FB10BD8400002010B504460C48016842
:103D30003031312000F006FA0948006890F8300070
:103D400000F0F80020430649096881F83000044873
:103D5000006890F83010312000F0FCFA10BD00002F
:103D60008400002070B5044600251448006840789F
:103D700020F0F800124908700846007884421CD0F0
:103D8000032C01D1012500E000250E480078854272
:103D900004D00C480570284600F00DFB0748006869
:103DA000407800F0F800204304490968487003484F
:103DB00000684178012000F0CDFA70BD8400002039
:103DC000A6000020A700002010B504460A4801689C
:103DD0000931092000F0B6F907480068407A00F080
:103DE0007F00204304490968487203480068417A0B
:103DF000092000F0AFFA10BD8400002010B5044681
:103E00001348016849314D2000F09CF910480168C1
:103E10000931092000F096F90D480068407A00F059
:103E20008000802807D1012C0AD187200849096821
:103E300081F8490004E084200549096881F84900B7
:103E40000348006890F849104D2000F083FA10BD37
:103E50008400002010B504460C4801681E311E2065
:103E600000F070F909480068807F00F0FB0040EA2C
:103E7000840006490968887704480068817F1E200D
:103E800000F068FA0248047210BD000084000020AF
:103E90006800002010B504460648006880F82240FB
:103EA0000448006890F82210222000F053FA0248DB
:103EB000047610BD84000020680000202DE9F04148
:103EC0000446114804602046FCF725FB0546002205
:103ED0000E4BFCF7A0FA0746FCF749FB0446200C02
:103EE0000B4909688871200A09490968C87108499D
:103EF00009680C72032206480168891D062000F03B
:103F000031FABDE8F08100006800002080844E4056
:103F10008400002010B504463D480168093109209D
:103F200000F010F93A48016849314D2000F00AF9D3
:103F300037480068407A00F08000802841D134483A
:103F4000006890F8490000F0870087281CD1052CF4
:103F500000DA0524142C00DD14242D480068407A72
:103F600000F08F0040F07000294909684872284825
:103F70000068407A00F0F000611F01F00F01084373
:103F80002349096848723AE0022C00DA0224112C15
:103F900000DD11241E480068407A00F08F0040F0D8
:103FA00070001B490968487219480068407A00F09F
:103FB000F000A11E01F00F0108431549096848727D
:103FC0001DE0B4F1FF3F01DA4FF0FF340E2C00DDAD
:103FD0000E240F480068407A00F08F0040F0700017
:103FE0000B49096848720A480068407A00F0F000FE
:103FF000611C01F00F010843054909684872044833
:104000000068417A092000F0A5F90248047110BD4A
:1040100084000020680000200149087070470000FB
:104020008800002010B504460B4801681D311D2092
:1040300000F088F808480068407F64F31F100649C4
:104040000968487704480068417F1D2000F082F924
:104050000248447110BD0000840000206800002068
:1040600010B504460C2C01DD0C2402E0062C00DA0D
:104070000624062C03D10520FFF756FE02E003209C
:10408000FFF752FE0B4801681E311E2000F05AF85F
:1040900008480068807F64F31F1006490968887724
:1040A00004480068817F1E2000F054F902488471A2
:1040B00010BD0000840000206800002010B50446F8
:1040C00002220F4801681E311E2000F045F80C48FE
:1040D0000068807F00F0FC006FF0FC0101EA242101
:1040E000084307490968887705490968CC7702229F
:1040F000034801681E311E2000F034F910BD000095
:104100008400002070B504460D46054805800288ED
:1041100021460448FCF73BF805200349087070BDB0
:10412000A4000020C00200208800002010B5044830
:10413000007810B9FEF736FE10BDFFF75BFAFBE71B
:104140000000002070B504460D4601222946204695
:1041500000F002F870BD00002DE9F04105460E4662
:104160001746002210210C48FCF7BAFD05F07F002D
:1041700000F022F9002405E0002000F01DF9305580
:10418000601CC4B2BC42F7DB012210210248FCF7DC
:10419000A7FDBDE8F08100000000024010B54FF41B
:1041A00000710248FCF78AFD10BD000000040240C7
:1041B00010B508210148FCF781FD10BD0004024044
:1041C00010B510210148FCF779FD10BD0004024034
:1041D00010B520210148FCF771FD10BD000402401C
:1041E00010B508210148FCF769FD10BD0000024030
:1041F00070B504460D462A4621460020FFF7ACFF65
:1042000070BD000010B5012000F072F80948046884
:1042100000BF08480068001BFBD0002000F068F8D1
:104220000448046800BF03480068001B0A28FAD34A
:1042300010BD00002001002010B50446284804707D
:1042400028480470007801282BD10020FFF78AFD50
:1042500025480068407800F07F0040F08000224947
:1042600009684870204800684178012000F072F821
:104270000120FFF777FD00201B49096881F83D0008
:104280001949096881F83E000222174801683D314A
:10429000402000F067F86F2214490120FFF75CFF0F
:1042A0001DE06F2211490120FFF756FF0020FFF7A4
:1042B00059FD0D480068407800F07F000A49096800
:1042C0004870094800684178012000F043F8012057
:1042D000FFF748FD6F2205490120FFF73DFF10BDA4
:1042E0000100002000000020840000205101002077
:1042F00010B50446012C05D1002201020448FCF748
:10430000EFFC04E0012211020148FCF7E9FC10BDBA
:104310000004024070B504460D460648007820B9F6
:1043200029462046FFF7AEF803E029462046FFF76E
:10433000E9FE70BD0000002010B50548007818B9EE
:104340000120FFF799F802E00120FFF765FE10BD9C
:104350000000002013B50446012201A9204600F008
:1043600001F81CBD2DE9F04105460E461746002216
:1043700010210B48FCF7B4FC45F0800000F01CF85D
:10438000002404E0305D00F017F8601CC4B2BC42A9
:10439000F8DB012210210248FCF7A2FCBDE8F08105
:1043A0000000024070B504460D462A462146002012
:1043B000FFF7D8FF70BD704701B582B032200123EE
:1043C00001AA02A900900348FDF774FA9DF80400C1
:1043D0000EBD0000D403002010B504480068401C46
:1043E00002490860FCF788FC10BD00002001002095
:1043F00000B593B0342106A8FBF7E2FE142101A812
:10440000FBF7DEFE1548006820F4C05040F4006061
:104410001249086001200690079002200F90C10306
:1044200010914FF4402111914105129106A8FCF71B
:10443000C1FE08B1FCF706FB0F200190032002909B
:104440000020039004900590012101A8FCF72CFDA9
:1044500008B1FCF7F7FA13B000BD0000007000408F
:104460004FF00060014908607047000008ED00E06F
:1044700010B50A480068401C0849086008460068F2
:104480004FF47A71B0FBF1F201FB120010B9012078
:10449000034908700348FDF7B0FC10BD140100206B
:1044A000B0000020AC04002010B50268B0F1804FCD
:1044B00005D0164B984202D0154B984203D122F0FA
:1044C00070024B681A43B0F1804F0ED00F4B9842E8
:1044D0000BD00F4B984208D00E4B984205D00E4B94
:1044E000984202D00D4B984203D122F44072CB681F
:1044F0001A4322F080030C6943EA040202608B68CD
:10450000C3620B6883620123436110BD0004004055
:104510000008004000080140000C0140001001406C
:1045200030B501F01F05012404FA05F3046A9C4329
:104530000462046A01F01F0502FA05F52C430462C7
:1045400030BD30B50C46816821F47F4142EA032535
:1045500025432943816030BD0A46816821F07001FE
:1045600042F0070319438160704730B5056A25F0B2
:1045700001050562036A4468826922F0700222F034
:1045800003020D682A4323F002038D682B43446025
:1045900082614D684563036230BD30B5056A25F020
:1045A00010050562036A4468826922F4E04222F43D
:1045B00040720D6842EA052223F020038D6843EA29
:1045C0000513446082614D688563036230BD30B578
:1045D000056A25F480750562036A4468C26922F0A1
:1045E000700222F003020D682A4323F400738D68E1
:1045F00043EA05234460C2614D68C563036230BD70
:1046000030B5056A25F480550562036A4468C269BD
:1046100022F4E04222F440720D6842EA052223F4BB
:1046200000538D6843EA05334460C2614D680564F8
:10463000036230BD30B50B461446026A056A25F0A8
:1046400001050562816921F0F00141EA041122F0BF
:104650000A021A438161026230BD30B50B4614462E
:10466000056A25F0100505628169026A21F470412E
:1046700041EA043122F0A00242EA0312816102629F
:1046800030BD70B505466C6A0020E085E0842046A8
:10469000FDF7EDFD70BD0168C96821F490710268F5
:1046A000D1600168496921F001010268516120214E
:1046B00080F83A10704710B504462068C06820F0B2
:1046C00040002168C860202084F839002046FDF7AA
:1046D000A9FF002010BD70B5044694F83A002228C6
:1046E0004AD1A068B0F5805F13D1A56A206940B9AE
:1046F00020684068C0F308002880A06A801CA0627F
:1047000019E020684068C0B22880A06A401CA062FE
:1047100011E0206938B920684068C1B2A26A501C13
:10472000A062117007E02068406800F07F01A26A73
:10473000501CA0621170E08D401E80B2E085C8B9A7
:104740002068C06820F020002168C8602068C06828
:1047500020F480702168C8602068406920F0010062
:1047600021684861202084F83A002046FDF7E2FEE7
:10477000002070BD0020FCE70220FAE770B5044677
:104780002168096921F44051E268114322681161EE
:104790002269A168114362691143E26941EA020595
:1047A0002168C96849F20C62914329432268D160AB
:1047B0002168496921F44071A2691143226851615D
:1047C000594A2168914202D1FCF794FC01E0FCF7C0
:1047D00081FCE169B1F5004F53D100EBC00101EB61
:1047E000001162685200B1FBF2F16422B1FBF2F1F8
:1047F0000A0100EBC00101EB001163685B00B1FB33
:10480000F3F100EBC00303EB001366687600B3FB23
:10481000F6F36426B3FBF6F303EBC30606EB0313D0
:10482000A1EB8301322303EBC1016423B1FBF3F15C
:1048300001F0F80102EB410200EBC00101EB0011B5
:1048400063685B00B1FBF3F100EBC00303EB001303
:1048500066687600B3FBF6F36426B3FBF6F303EB6E
:10486000C30606EB0313A1EB8301322303EBC10163
:104870006423B1FBF3F101F0070111442268916058
:1048800051E000EBC00101EB001162689200B1FB46
:10489000F2F100EBC00202EB001263689B00B2FB76
:1048A000F3F26423B2FBF3F202EBC20303EB021256
:1048B000A1EB8201322202EB01116422B1FBF2F181
:1048C00001F0F00100EBC00202EB001263689B00F4
:1048D000B2FBF3F26423B2FBF3F201EB021200EB42
:1048E000C00101EB001163689B00B1FBF3F100EB29
:1048F000C00303EB00136668B600B3FBF6F364264F
:10490000B3FBF6F303EBC30606EB0313A1EB830142
:10491000322303EB01116423B1FBF3F101F00F012A
:1049200011442268916070BD00380140014691F841
:10493000390021282CD18868B0F5805F0FD10A6A30
:104940001088C0F308000B685860086918B9086A35
:10495000801C086209E0086A401C086205E00B6AD6
:10496000581C086218780B685860C88C401E80B2CA
:10497000C88458B90868C06820F080000B68D86007
:104980000868C06840F040000B68D860002070479D
:104990000220FCE72DE9F04104460D4617469846F3
:1049A000069E21E0701CF8B12EB1FCF79FF9A0EB38
:1049B0000800B04218D92068C06820F4D07021687F
:1049C000C8602068406920F001002168486120200B
:1049D00084F8390084F83A0000BF002084F83800D9
:1049E00000BF0320BDE8F081206800682840A8428D
:1049F00001D1012000E00020B842D3D00020F1E72F
:104A000010B50248FDF734FC10BD0000EC04002096
:104A100000BFFEE70FB4084B10B504A902AA039823
:104A200000F038F8044602A9002000F0DDF8204626
:104A300010BC5DF814FB0000E94B00080248006858
:104A4000C0F30220704700000CED00E010B5002814
:104A500004DB0A07130E054A135406E00A07140E76
:104A6000034A00F00F031B1FD45410BD00E400E004
:104A700018ED00E002E008C8121F08C1002AFAD1B0
:104A800070477047002001E001C1121F002AFBD1CE
:104A9000704700002DE9FF4F89B09B460446002572
:104AA00006E025280BD05A460B999047641C6D1CD4
:104AB00020780028F5D10DB02846BDE8F08F0027FA
:104AC000B8460122474900E0074314F8013F203B64
:104AD00002FA03F00842F7D120782E2819D114F8F1
:104AE000010F47F004072A280ED06FF02F0220781C
:104AF000A0F1300109290CD808EB880102EB410133
:104B000000EB0108641CF2E70A98641C50F8048B5F
:104B10000A9020780028CED0642808D0692806D0D2
:104B200075281ED05A460B9990476D1C58E00A997B
:104B30004FF00A0901C90A91002802DA40422D21EA
:104B400002E0390504D52B218DF82010012103E066
:104B5000F90704D02021F7E78A4608AE0DE00021CE
:104B6000FAE70A994FF00A0901C90A91F7E749469D
:104B7000FBF72EFD303106F8011D0028F7D1ADEB13
:104B8000060000F12009780701D44FF00108C8455C
:104B900002DDA8EB090000E000208046002706E0C7
:104BA00008A85A46C05D0B9990476D1C7F1C57455D
:104BB000F6DB04E030205A460B9990476D1CB8F1A3
:104BC0000001A8F10108F5DC05E016F8010B5A46D2
:104BD0000B9990476D1CB9F10001A9F10109F4DCB2
:104BE000641C65E7092801000A68531C0B601070FB
:104BF000704700001FB5FCF78BF8FFF7F9FBFDF7D6
:104C000015FDFDF7E3FDFDF7C3FEFDF753FEFDF7D0
:104C100087FEFDF7FDFD2B48FBF7DDFA84B24FF66A
:104C2000FF73224627492848FDF790FC07222749B1
:104C30002548FDF747FC2648FDF71EF8FDF7ACFFB9
:104C4000244908600968086880472249096888681B
:104C5000804700212048FDF751FA4FF4FA60FBF736
:104C600021FFFBF7F3FD42F22820FBF725FE1B494D
:104C70000020FBF741FE1A490120FBF73DFE1FE033
:104C800018A103C9CDE90201002000900190DDE9DF
:104C90000201CDE900011548007870B922211448BD
:104CA000FBF78EFA06236A462221114800F078F8B5
:104CB0001049087001200D490870FDF789FE00BFFA
:104CC000DEE70000B8000020EC040020DE00002039
:104CD000AC040020AC0000202C040020D0DD060035
:104CE00020A107007478746573740000EC00002044
:104CF00040050020ED0000202DE9F04D07460E464E
:104D0000FBF70AFD04460D463A463346FBF70EFB19
:104D1000DFF86CA0DFF86CB01B4B0746884616F036
:104D2000004F4FF000020AD0FBF73AFC0AD90022EC
:104D30005B4638464146FBF733FD1BD212E0FBF7DA
:104D40002FFC08D20022534620462946FBF7EBFAF7
:104D500004460D460EE000225B4638464146FBF70E
:104D60001FFD07D80022534620462946FBF73AFA92
:104D700004460D463146204665F31E01BDE8F08D20
:104D80000000F03F0000E03F0000E0BF10B54FF42E
:104D900000410248FBF79AFF10BD000000040240EA
:104DA0002DE9F04387B005460E4617469846B8F100
:104DB000060F01D1112E03DA002007B0BDE8F08301
:104DC0002C46AA2205212046FBF7F3F9641D1C4856
:104DD0000690BDF8180020809DF81A00A070E41C11
:104DE0001422184901A8FBF7D2F93868CDF805005C
:104DF000B888ADF80900072101A8FBF7EDFD4FEADF
:104E00001029072101A8FBF7E7FDC0B249EA0020FD
:104E1000069001A8BDF81810ADF80B100DF10D02A9
:104E2000092100F011F8DDF80D002060DDF8110017
:104E300060609DF8150020720934601BC0B2BCE7A9
:104E4000C194C100504F000830B504460B46122BE8
:104E500002D94FF0FF3030BD002100BF06E0605C9A
:104E6000044D6D5C68405054481CC1B29942F6DB59
:104E70000020F0E7EE00002020AEA036E07D0B37EA
:104E8000A017083660F0AF3660F0AF36403D2E36E2
:104E9000C0AFD235000D993620A5633680A33137D7
:104EA0004061223760DE353640466B36A032BF3671
:104EB000A032BF36A00ECB35E0625436A04439375D
:104EC000A00ECB35809AF436001F1337E050DA3548
:104ED00040466B36809AF43680A33137807F3D366A
:104EE0000016D636A03BFC36C0C14C36809AF4364C
:104EF00060DE353680A33137809AF4368091B7363C
:104F000060022A3700FB1E3660F0AF36A044393706
:104F1000209C2636000D993660D5F835000D99365F
:104F2000C0AFD2354034F135C0CA893640466B3601
:104F3000C0B80F36807F3D36A044393760022A372B
:104F4000C0C14C36313233340035363738000000BA
:104F5000060000000000000000000000000000004B
:104F60000000030406080C101820300000000000A8
:104F70000000000102030406070809000000000108
:104F800002030400A44F00080000002038010000C4
:104F9000F407000810500008380100203008000015
:104FA000844A00088167400ECF19C0120213140210
:104FB00023200A120114591529603C12070C0F32E4
:104FC000045A64040A23FF4CDC01011212C7343373
:104FD00033303030281068656C6C6F206675636BF9
:104FE00020776F726C5D112A3101B1081317FF87AA
:104FF000B859B7A1CC24575E4B9C0EE9EA502ABEA3
:10500000CCD70203040506075A10981468FF1F0046
:04000005080000F5FA
:00000001FF
